{
  "_format": "hh-sol-artifact-1",
  "contractName": "Test",
  "sourceName": "contracts/BEP20.sol",
  "abi": [
    {
      "inputs": [],
      "name": "a",
      "outputs": [
        {
          "internalType": "uint256",
          "name": "",
          "type": "uint256"
        }
      ],
      "stateMutability": "view",
      "type": "function"
    },
    {
      "inputs": [],
      "name": "b",
      "outputs": [
        {
          "internalType": "uint256",
          "name": "",
          "type": "uint256"
        }
      ],
      "stateMutability": "view",
      "type": "function"
    },
    {
      "inputs": [],
      "name": "c",
      "outputs": [
        {
          "internalType": "uint256",
          "name": "",
          "type": "uint256"
        }
      ],
      "stateMutability": "view",
      "type": "function"
    },
    {
      "inputs": [],
      "name": "express",
      "outputs": [
        {
          "internalType": "uint256",
          "name": "",
          "type": "uint256"
        }
      ],
      "stateMutability": "nonpayable",
      "type": "function"
    },
    {
      "inputs": [],
      "name": "mineblock",
      "outputs": [],
      "stateMutability": "nonpayable",
      "type": "function"
    }
  ],
  "bytecode": "0x608060405266038d7ea4c6800060005534801561001b57600080fd5b506103268061002b6000396000f3fe608060405234801561001057600080fd5b50600436106100575760003560e01c80630dbe671f1461005c5780634df7e3d01461007a578063856e481b14610098578063c3da42b8146100a2578063fe906c5a146100c0575b600080fd5b6100646100de565b6040518082815260200191505060405180910390f35b6100826100e4565b6040518082815260200191505060405180910390f35b6100a06100ea565b005b6100aa6100ec565b6040518082815260200191505060405180910390f35b6100c86100f2565b6040518082815260200191505060405180910390f35b60005481565b60015481565b565b60025481565b60008061010d6298967960005461013990919063ffffffff16565b90508060010260018190555061012f629896798261018390919063ffffffff16565b6002819055505090565b600061017b83836040518060400160405280601a81526020017f536166654d6174683a206469766973696f6e206279207a65726f000000000000815250610209565b905092915050565b6000808314156101965760009050610203565b60008284029050828482816101a757fe5b04146101fe576040517f08c379a00000000000000000000000000000000000000000000000000000000081526004018080602001828103825260218152602001806102d06021913960400191505060405180910390fd5b809150505b92915050565b600080831182906102b5576040517f08c379a00000000000000000000000000000000000000000000000000000000081526004018080602001828103825283818151815260200191508051906020019080838360005b8381101561027a57808201518184015260208101905061025f565b50505050905090810190601f1680156102a75780820380516001836020036101000a031916815260200191505b509250505060405180910390fd5b5060008385816102c157fe5b04905080915050939250505056fe536166654d6174683a206d756c7469706c69636174696f6e206f766572666c6f77a2646970667358221220fdba1231dd179c2c49b487234a0e6a83217b1f64fc0645c3f3e4223db3b0968c64736f6c634300060c0033",
  "linkReferences": {},
  "deployedLinkReferences": {}
}