{
  "_format": "hh-sol-artifact-1",
  "contractName": "MasterPredWallet",
  "sourceName": "contracts/MasterPredWallet.sol",
  "abi": [
    {
      "inputs": [
        {
          "internalType": "contract IBEP20",
          "name": "_pred",
          "type": "address"
        }
      ],
      "stateMutability": "nonpayable",
      "type": "constructor"
    },
    {
      "inputs": [],
      "name": "owner",
      "outputs": [
        {
          "internalType": "address",
          "name": "",
          "type": "address"
        }
      ],
      "stateMutability": "view",
      "type": "function"
    },
    {
      "inputs": [],
      "name": "pred",
      "outputs": [
        {
          "internalType": "contract IBEP20",
          "name": "",
          "type": "address"
        }
      ],
      "stateMutability": "view",
      "type": "function"
    },
    {
      "inputs": [
        {
          "internalType": "address",
          "name": "_to",
          "type": "address"
        },
        {
          "internalType": "uint256",
          "name": "_amount",
          "type": "uint256"
        }
      ],
      "name": "safePredTransfer",
      "outputs": [
        {
          "internalType": "uint256",
          "name": "",
          "type": "uint256"
        }
      ],
      "stateMutability": "nonpayable",
      "type": "function"
    }
  ],
  "bytecode": "0x608060405234801561001057600080fd5b506040516108ce3803806108ce8339818101604052602081101561003357600080fd5b8101908080519060200190929190505050806000806101000a81548173ffffffffffffffffffffffffffffffffffffffff021916908373ffffffffffffffffffffffffffffffffffffffff16021790555033600160006101000a81548173ffffffffffffffffffffffffffffffffffffffff021916908373ffffffffffffffffffffffffffffffffffffffff160217905550506107f9806100d56000396000f3fe608060405234801561001057600080fd5b50600436106100415760003560e01c80638da5cb5b14610046578063e5c9ad2e1461007a578063e6d41a82146100ae575b600080fd5b61004e610110565b604051808273ffffffffffffffffffffffffffffffffffffffff16815260200191505060405180910390f35b610082610136565b604051808273ffffffffffffffffffffffffffffffffffffffff16815260200191505060405180910390f35b6100fa600480360360408110156100c457600080fd5b81019080803573ffffffffffffffffffffffffffffffffffffffff1690602001909291908035906020019092919050505061015a565b6040518082815260200191505060405180910390f35b600160009054906101000a900473ffffffffffffffffffffffffffffffffffffffff1681565b60008054906101000a900473ffffffffffffffffffffffffffffffffffffffff1681565b6000600160009054906101000a900473ffffffffffffffffffffffffffffffffffffffff1673ffffffffffffffffffffffffffffffffffffffff163373ffffffffffffffffffffffffffffffffffffffff1614610202576040517f08c379a00000000000000000000000000000000000000000000000000000000081526004018080602001828103825260248152602001806107a06024913960400191505060405180910390fd5b60008060009054906101000a900473ffffffffffffffffffffffffffffffffffffffff1673ffffffffffffffffffffffffffffffffffffffff166370a08231306040518263ffffffff1660e01b8152600401808273ffffffffffffffffffffffffffffffffffffffff16815260200191505060206040518083038186803b15801561028c57600080fd5b505afa1580156102a0573d6000803e3d6000fd5b505050506040513d60208110156102b657600080fd5b81019080805190602001909291905050509050808311156103255761031c848260008054906101000a900473ffffffffffffffffffffffffffffffffffffffff1673ffffffffffffffffffffffffffffffffffffffff1661037b9092919063ffffffff16565b80915050610375565b610370848460008054906101000a900473ffffffffffffffffffffffffffffffffffffffff1673ffffffffffffffffffffffffffffffffffffffff1661037b9092919063ffffffff16565b829150505b92915050565b6104188363a9059cbb60e01b8484604051602401808373ffffffffffffffffffffffffffffffffffffffff16815260200182815260200192505050604051602081830303815290604052907bffffffffffffffffffffffffffffffffffffffffffffffffffffffff19166020820180517bffffffffffffffffffffffffffffffffffffffffffffffffffffffff838183161783525050505061041d565b505050565b606061047f826040518060400160405280602081526020017f5361666542455032303a206c6f772d6c6576656c2063616c6c206661696c65648152508573ffffffffffffffffffffffffffffffffffffffff1661050c9092919063ffffffff16565b9050600081511115610507578080602001905160208110156104a057600080fd5b8101908080519060200190929190505050610506576040517f08c379a000000000000000000000000000000000000000000000000000000000815260040180806020018281038252602a815260200180610776602a913960400191505060405180910390fd5b5b505050565b606061051b8484600085610524565b90509392505050565b606061052f8561072a565b6105a1576040517f08c379a000000000000000000000000000000000000000000000000000000000815260040180806020018281038252601d8152602001807f416464726573733a2063616c6c20746f206e6f6e2d636f6e747261637400000081525060200191505060405180910390fd5b600060608673ffffffffffffffffffffffffffffffffffffffff1685876040518082805190602001908083835b602083106105f157805182526020820191506020810190506020830392506105ce565b6001836020036101000a03801982511681845116808217855250505050505090500191505060006040518083038185875af1925050503d8060008114610653576040519150601f19603f3d011682016040523d82523d6000602084013e610658565b606091505b5091509150811561066d578092505050610722565b6000815111156106805780518082602001fd5b836040517f08c379a00000000000000000000000000000000000000000000000000000000081526004018080602001828103825283818151815260200191508051906020019080838360005b838110156106e75780820151818401526020810190506106cc565b50505050905090810190601f1680156107145780820380516001836020036101000a031916815260200191505b509250505060405180910390fd5b949350505050565b60008060007fc5d2460186f7233c927e7db2dcc703c0e500b653ca82273b7bfad8045d85a47060001b9050833f915080821415801561076c57506000801b8214155b9250505091905056fe5361666542455032303a204245503230206f7065726174696f6e20646964206e6f74207375636365656457616c6c65743a204f6e6c79204d6173746572507265642063616e207472616e73666572a2646970667358221220b18acefbc3daf30c82f8adfdc33cfd5db8a801d326dcc5a492c781d7b6b2f63564736f6c634300060c0033",
  "linkReferences": {},
  "deployedLinkReferences": {}
}