{
  "_format": "hh-sol-artifact-1",
  "contractName": "MasterPred",
  "sourceName": "contracts/Farm.sol",
  "abi": [
    {
      "anonymous": false,
      "inputs": [
        {
          "indexed": false,
          "internalType": "address",
          "name": "previousAdmin",
          "type": "address"
        },
        {
          "indexed": false,
          "internalType": "address",
          "name": "newAdmin",
          "type": "address"
        }
      ],
      "name": "AdminChanged",
      "type": "event"
    },
    {
      "anonymous": false,
      "inputs": [
        {
          "indexed": true,
          "internalType": "address",
          "name": "beacon",
          "type": "address"
        }
      ],
      "name": "BeaconUpgraded",
      "type": "event"
    },
    {
      "anonymous": false,
      "inputs": [
        {
          "indexed": true,
          "internalType": "address",
          "name": "user",
          "type": "address"
        },
        {
          "indexed": true,
          "internalType": "uint256",
          "name": "pid",
          "type": "uint256"
        },
        {
          "indexed": false,
          "internalType": "uint256",
          "name": "amount",
          "type": "uint256"
        }
      ],
      "name": "Deposit",
      "type": "event"
    },
    {
      "anonymous": false,
      "inputs": [
        {
          "indexed": true,
          "internalType": "address",
          "name": "user",
          "type": "address"
        },
        {
          "indexed": true,
          "internalType": "uint256",
          "name": "pid",
          "type": "uint256"
        },
        {
          "indexed": false,
          "internalType": "uint256",
          "name": "amount",
          "type": "uint256"
        }
      ],
      "name": "EmergencyWithdraw",
      "type": "event"
    },
    {
      "anonymous": false,
      "inputs": [
        {
          "indexed": true,
          "internalType": "address",
          "name": "previousOwner",
          "type": "address"
        },
        {
          "indexed": true,
          "internalType": "address",
          "name": "newOwner",
          "type": "address"
        }
      ],
      "name": "OwnershipTransferred",
      "type": "event"
    },
    {
      "anonymous": false,
      "inputs": [
        {
          "indexed": false,
          "internalType": "address",
          "name": "account",
          "type": "address"
        }
      ],
      "name": "Paused",
      "type": "event"
    },
    {
      "anonymous": false,
      "inputs": [
        {
          "indexed": false,
          "internalType": "address",
          "name": "account",
          "type": "address"
        }
      ],
      "name": "Unpaused",
      "type": "event"
    },
    {
      "anonymous": false,
      "inputs": [
        {
          "indexed": true,
          "internalType": "address",
          "name": "implementation",
          "type": "address"
        }
      ],
      "name": "Upgraded",
      "type": "event"
    },
    {
      "anonymous": false,
      "inputs": [
        {
          "indexed": true,
          "internalType": "address",
          "name": "user",
          "type": "address"
        },
        {
          "indexed": true,
          "internalType": "uint256",
          "name": "pid",
          "type": "uint256"
        },
        {
          "indexed": false,
          "internalType": "uint256",
          "name": "amount",
          "type": "uint256"
        }
      ],
      "name": "Withdraw",
      "type": "event"
    },
    {
      "inputs": [],
      "name": "BONUS_MULTIPLIER",
      "outputs": [
        {
          "internalType": "uint256",
          "name": "",
          "type": "uint256"
        }
      ],
      "stateMutability": "view",
      "type": "function"
    },
    {
      "inputs": [
        {
          "internalType": "uint256",
          "name": "_allocPoint",
          "type": "uint256"
        },
        {
          "internalType": "contract IBEP20",
          "name": "_lpToken",
          "type": "address"
        },
        {
          "internalType": "bool",
          "name": "_withUpdate",
          "type": "bool"
        }
      ],
      "name": "add",
      "outputs": [],
      "stateMutability": "nonpayable",
      "type": "function"
    },
    {
      "inputs": [
        {
          "internalType": "uint256",
          "name": "_pid",
          "type": "uint256"
        },
        {
          "internalType": "uint256",
          "name": "_amount",
          "type": "uint256"
        }
      ],
      "name": "deposit",
      "outputs": [],
      "stateMutability": "nonpayable",
      "type": "function"
    },
    {
      "inputs": [
        {
          "internalType": "uint256",
          "name": "_pid",
          "type": "uint256"
        }
      ],
      "name": "emergencyWithdraw",
      "outputs": [],
      "stateMutability": "nonpayable",
      "type": "function"
    },
    {
      "inputs": [
        {
          "internalType": "uint256",
          "name": "_from",
          "type": "uint256"
        },
        {
          "internalType": "uint256",
          "name": "_to",
          "type": "uint256"
        }
      ],
      "name": "getMultiplier",
      "outputs": [
        {
          "internalType": "uint256",
          "name": "",
          "type": "uint256"
        }
      ],
      "stateMutability": "view",
      "type": "function"
    },
    {
      "inputs": [
        {
          "internalType": "contract IBEP20",
          "name": "_pred",
          "type": "address"
        },
        {
          "internalType": "uint256",
          "name": "_predPerBlock",
          "type": "uint256"
        },
        {
          "internalType": "uint256",
          "name": "_startBlock",
          "type": "uint256"
        },
        {
          "internalType": "contract MasterPredWallet",
          "name": "_wallet",
          "type": "address"
        }
      ],
      "name": "initialize",
      "outputs": [],
      "stateMutability": "nonpayable",
      "type": "function"
    },
    {
      "inputs": [],
      "name": "massUpdatePools",
      "outputs": [],
      "stateMutability": "nonpayable",
      "type": "function"
    },
    {
      "inputs": [
        {
          "internalType": "uint256",
          "name": "_pid",
          "type": "uint256"
        }
      ],
      "name": "migrate",
      "outputs": [],
      "stateMutability": "nonpayable",
      "type": "function"
    },
    {
      "inputs": [],
      "name": "migrator",
      "outputs": [
        {
          "internalType": "contract IMigratorChef",
          "name": "",
          "type": "address"
        }
      ],
      "stateMutability": "view",
      "type": "function"
    },
    {
      "inputs": [],
      "name": "owner",
      "outputs": [
        {
          "internalType": "address",
          "name": "",
          "type": "address"
        }
      ],
      "stateMutability": "view",
      "type": "function"
    },
    {
      "inputs": [],
      "name": "pause",
      "outputs": [],
      "stateMutability": "nonpayable",
      "type": "function"
    },
    {
      "inputs": [],
      "name": "paused",
      "outputs": [
        {
          "internalType": "bool",
          "name": "",
          "type": "bool"
        }
      ],
      "stateMutability": "view",
      "type": "function"
    },
    {
      "inputs": [
        {
          "internalType": "uint256",
          "name": "_pid",
          "type": "uint256"
        },
        {
          "internalType": "address",
          "name": "_user",
          "type": "address"
        }
      ],
      "name": "pendingPred",
      "outputs": [
        {
          "internalType": "uint256",
          "name": "",
          "type": "uint256"
        }
      ],
      "stateMutability": "view",
      "type": "function"
    },
    {
      "inputs": [
        {
          "internalType": "uint256",
          "name": "",
          "type": "uint256"
        }
      ],
      "name": "poolInfo",
      "outputs": [
        {
          "internalType": "contract IBEP20",
          "name": "lpToken",
          "type": "address"
        },
        {
          "internalType": "uint256",
          "name": "allocPoint",
          "type": "uint256"
        },
        {
          "internalType": "uint256",
          "name": "lastRewardBlock",
          "type": "uint256"
        },
        {
          "internalType": "uint256",
          "name": "accPredPerShare",
          "type": "uint256"
        }
      ],
      "stateMutability": "view",
      "type": "function"
    },
    {
      "inputs": [],
      "name": "poolLength",
      "outputs": [
        {
          "internalType": "uint256",
          "name": "",
          "type": "uint256"
        }
      ],
      "stateMutability": "view",
      "type": "function"
    },
    {
      "inputs": [],
      "name": "pred",
      "outputs": [
        {
          "internalType": "contract IBEP20",
          "name": "",
          "type": "address"
        }
      ],
      "stateMutability": "view",
      "type": "function"
    },
    {
      "inputs": [],
      "name": "predPerBlock",
      "outputs": [
        {
          "internalType": "uint256",
          "name": "",
          "type": "uint256"
        }
      ],
      "stateMutability": "view",
      "type": "function"
    },
    {
      "inputs": [],
      "name": "renounceOwnership",
      "outputs": [],
      "stateMutability": "nonpayable",
      "type": "function"
    },
    {
      "inputs": [
        {
          "internalType": "uint256",
          "name": "_pid",
          "type": "uint256"
        },
        {
          "internalType": "uint256",
          "name": "_allocPoint",
          "type": "uint256"
        },
        {
          "internalType": "bool",
          "name": "_withUpdate",
          "type": "bool"
        }
      ],
      "name": "set",
      "outputs": [],
      "stateMutability": "nonpayable",
      "type": "function"
    },
    {
      "inputs": [
        {
          "internalType": "contract IMigratorChef",
          "name": "_migrator",
          "type": "address"
        }
      ],
      "name": "setMigrator",
      "outputs": [],
      "stateMutability": "nonpayable",
      "type": "function"
    },
    {
      "inputs": [],
      "name": "startBlock",
      "outputs": [
        {
          "internalType": "uint256",
          "name": "",
          "type": "uint256"
        }
      ],
      "stateMutability": "view",
      "type": "function"
    },
    {
      "inputs": [],
      "name": "totalAllocPoint",
      "outputs": [
        {
          "internalType": "uint256",
          "name": "",
          "type": "uint256"
        }
      ],
      "stateMutability": "view",
      "type": "function"
    },
    {
      "inputs": [],
      "name": "totalRewardDebt",
      "outputs": [
        {
          "internalType": "uint256",
          "name": "",
          "type": "uint256"
        }
      ],
      "stateMutability": "view",
      "type": "function"
    },
    {
      "inputs": [
        {
          "internalType": "address",
          "name": "newOwner",
          "type": "address"
        }
      ],
      "name": "transferOwnership",
      "outputs": [],
      "stateMutability": "nonpayable",
      "type": "function"
    },
    {
      "inputs": [],
      "name": "unpause",
      "outputs": [],
      "stateMutability": "nonpayable",
      "type": "function"
    },
    {
      "inputs": [
        {
          "internalType": "uint256",
          "name": "multiplierNumber",
          "type": "uint256"
        }
      ],
      "name": "updateMultiplier",
      "outputs": [],
      "stateMutability": "nonpayable",
      "type": "function"
    },
    {
      "inputs": [
        {
          "internalType": "uint256",
          "name": "_pid",
          "type": "uint256"
        }
      ],
      "name": "updatePool",
      "outputs": [],
      "stateMutability": "nonpayable",
      "type": "function"
    },
    {
      "inputs": [
        {
          "internalType": "address",
          "name": "newImplementation",
          "type": "address"
        }
      ],
      "name": "upgradeTo",
      "outputs": [],
      "stateMutability": "nonpayable",
      "type": "function"
    },
    {
      "inputs": [
        {
          "internalType": "address",
          "name": "newImplementation",
          "type": "address"
        },
        {
          "internalType": "bytes",
          "name": "data",
          "type": "bytes"
        }
      ],
      "name": "upgradeToAndCall",
      "outputs": [],
      "stateMutability": "payable",
      "type": "function"
    },
    {
      "inputs": [
        {
          "internalType": "uint256",
          "name": "",
          "type": "uint256"
        },
        {
          "internalType": "address",
          "name": "",
          "type": "address"
        }
      ],
      "name": "userInfo",
      "outputs": [
        {
          "internalType": "uint256",
          "name": "amount",
          "type": "uint256"
        },
        {
          "internalType": "uint256",
          "name": "rewardDebt",
          "type": "uint256"
        }
      ],
      "stateMutability": "view",
      "type": "function"
    },
    {
      "inputs": [],
      "name": "wallet",
      "outputs": [
        {
          "internalType": "contract MasterPredWallet",
          "name": "",
          "type": "address"
        }
      ],
      "stateMutability": "view",
      "type": "function"
    },
    {
      "inputs": [
        {
          "internalType": "uint256",
          "name": "_pid",
          "type": "uint256"
        },
        {
          "internalType": "uint256",
          "name": "_amount",
          "type": "uint256"
        }
      ],
      "name": "withdraw",
      "outputs": [],
      "stateMutability": "nonpayable",
      "type": "function"
    }
  ],
  "bytecode": "0x608060405234801561001057600080fd5b5061477b806100206000396000f3fe6080604052600436106101e35760003560e01c80635ffe6146116101025780638aa28550116100955780639e3d87cd116100645780639e3d87cd14610677578063e2bbb158146106a0578063e5c9ad2e146106c9578063f2fde38b146106f4576101e3565b80638aa28550146105a65780638da5cb5b146105d15780638dbb1e3a146105fc57806393f1a40b14610639576101e3565b8063715018a6116100d1578063715018a6146105225780637cd07e471461053957806383bb3877146105645780638456cb591461058f576101e3565b80635ffe61461461047c578063630b5ba1146104a557806364482f79146104bc5780636450b8a9146104e5576101e3565b8063441a3e701161017a57806351eb05a61161014957806351eb05a6146103d4578063521eb273146103fd5780635312ea8e146104285780635c975abb14610451576101e3565b8063441a3e701461033b578063454b06081461036457806348cd4cb11461038d5780634f1ef286146103b8576101e3565b80631fc7be89116101b65780631fc7be89146102a757806323cf3118146102d25780633659cfe6146102fb5780633f4ba83a14610324576101e3565b8063081e3eda146101e85780631526fe271461021357806317caf6f1146102535780631eaaa0451461027e575b600080fd5b3480156101f457600080fd5b506101fd61071d565b60405161020a9190613ed8565b60405180910390f35b34801561021f57600080fd5b5061023a60048036038101906102359190613731565b61072b565b60405161024a9493929190613c5b565b60405180910390f35b34801561025f57600080fd5b5061026861078c565b6040516102759190613ed8565b60405180910390f35b34801561028a57600080fd5b506102a560048036038101906102a091906137bf565b610793565b005b3480156102b357600080fd5b506102bc610925565b6040516102c99190613ed8565b60405180910390f35b3480156102de57600080fd5b506102f960048036038101906102f49190613708565b61092b565b005b34801561030757600080fd5b50610322600480360381019061031d91906135d6565b6109eb565b005b34801561033057600080fd5b50610339610a12565b005b34801561034757600080fd5b50610362600480360381019061035d919061380e565b610a98565b005b34801561037057600080fd5b5061038b60048036038101906103869190613731565b610d3a565b005b34801561039957600080fd5b506103a26110e1565b6040516103af9190613ed8565b60405180910390f35b6103d260048036038101906103cd91906135ff565b6110e8565b005b3480156103e057600080fd5b506103fb60048036038101906103f69190613731565b611101565b005b34801561040957600080fd5b506104126113e7565b60405161041f9190613cbb565b60405180910390f35b34801561043457600080fd5b5061044f600480360381019061044a9190613731565b61140d565b005b34801561045d57600080fd5b50610466611628565b6040516104739190613c25565b60405180910390f35b34801561048857600080fd5b506104a3600480360381019061049e9190613731565b61163f565b005b3480156104b157600080fd5b506104ba6116c5565b005b3480156104c857600080fd5b506104e360048036038101906104de919061384a565b6116f9565b005b3480156104f157600080fd5b5061050c60048036038101906105079190613783565b611863565b6040516105199190613ed8565b60405180910390f35b34801561052e57600080fd5b50610537611bb2565b005b34801561054557600080fd5b5061054e611c3a565b60405161055b9190613ca0565b60405180910390f35b34801561057057600080fd5b50610579611c60565b6040516105869190613ed8565b60405180910390f35b34801561059b57600080fd5b506105a4611c67565b005b3480156105b257600080fd5b506105bb611ced565b6040516105c89190613ed8565b60405180910390f35b3480156105dd57600080fd5b506105e6611cf3565b6040516105f39190613b81565b60405180910390f35b34801561060857600080fd5b50610623600480360381019061061e919061380e565b611d1d565b6040516106309190613ed8565b60405180910390f35b34801561064557600080fd5b50610660600480360381019061065b9190613783565b611d4e565b60405161066e929190613ef3565b60405180910390f35b34801561068357600080fd5b5061069e600480360381019061069991906136a5565b611d80565b005b3480156106ac57600080fd5b506106c760048036038101906106c2919061380e565b611fd8565b005b3480156106d557600080fd5b506106de6123b3565b6040516106eb9190613c40565b60405180910390f35b34801561070057600080fd5b5061071b600480360381019061071691906135d6565b6123d9565b005b600061010080549050905090565b610100818154811061073c57600080fd5b90600052602060002090600402016000915090508060000160009054906101000a900473ffffffffffffffffffffffffffffffffffffffff16908060010154908060020154908060030154905084565b6101025481565b61079b6124d1565b73ffffffffffffffffffffffffffffffffffffffff166107b9611cf3565b73ffffffffffffffffffffffffffffffffffffffff161461080f576040517f08c379a000000000000000000000000000000000000000000000000000000000815260040161080690613dd8565b60405180910390fd5b801561081e5761081d6116c5565b5b60006101035443116108335761010354610835565b435b905061084d84610102546124d990919063ffffffff16565b6101028190555061010060405180608001604052808573ffffffffffffffffffffffffffffffffffffffff1681526020018681526020018381526020016000815250908060018154018082558091505060019003906000526020600020906004020160009091909190915060008201518160000160006101000a81548173ffffffffffffffffffffffffffffffffffffffff021916908373ffffffffffffffffffffffffffffffffffffffff160217905550602082015181600101556040820151816002015560608201518160030155505050505050565b60fc5481565b6109336124d1565b73ffffffffffffffffffffffffffffffffffffffff16610951611cf3565b73ffffffffffffffffffffffffffffffffffffffff16146109a7576040517f08c379a000000000000000000000000000000000000000000000000000000000815260040161099e90613dd8565b60405180910390fd5b8060fe60006101000a81548173ffffffffffffffffffffffffffffffffffffffff021916908373ffffffffffffffffffffffffffffffffffffffff16021790555050565b6109f4816124ef565b610a0f8160405180602001604052806000815250600061256e565b50565b610a1a6124d1565b73ffffffffffffffffffffffffffffffffffffffff16610a38611cf3565b73ffffffffffffffffffffffffffffffffffffffff1614610a8e576040517f08c379a0000000000000000000000000000000000000000000000000000000008152600401610a8590613dd8565b60405180910390fd5b610a9661273f565b565b610aa0611628565b15610ae0576040517f08c379a0000000000000000000000000000000000000000000000000000000008152600401610ad790613d78565b60405180910390fd5b60006101008381548110610b1d577f4e487b7100000000000000000000000000000000000000000000000000000000600052603260045260246000fd5b906000526020600020906004020190506000610101600085815260200190815260200160002060003373ffffffffffffffffffffffffffffffffffffffff1673ffffffffffffffffffffffffffffffffffffffff16815260200190815260200160002090508281600001541015610bc9576040517f08c379a0000000000000000000000000000000000000000000000000000000008152600401610bc090613e38565b60405180910390fd5b610bd284611101565b6000610c1c8260010154610c0e64e8d4a51000610c00876003015487600001546127e190919063ffffffff16565b6127f790919063ffffffff16565b61280d90919063ffffffff16565b90506000811115610c3257610c313382612823565b5b6000841115610caa57610c5284836000015461280d90919063ffffffff16565b8260000181905550610ca933858560000160009054906101000a900473ffffffffffffffffffffffffffffffffffffffff1673ffffffffffffffffffffffffffffffffffffffff166128f29092919063ffffffff16565b5b610cdc64e8d4a51000610cce856003015485600001546127e190919063ffffffff16565b6127f790919063ffffffff16565b8260010181905550843373ffffffffffffffffffffffffffffffffffffffff167ff279e6a1f5e320cca91135676d9cb6e44ca8a08c0b88342bcdb1144f6511b56886604051610d2b9190613ed8565b60405180910390a35050505050565b600073ffffffffffffffffffffffffffffffffffffffff1660fe60009054906101000a900473ffffffffffffffffffffffffffffffffffffffff1673ffffffffffffffffffffffffffffffffffffffff161415610dcc576040517f08c379a0000000000000000000000000000000000000000000000000000000008152600401610dc390613eb8565b60405180910390fd5b60006101008281548110610e09577f4e487b7100000000000000000000000000000000000000000000000000000000600052603260045260246000fd5b9060005260206000209060040201905060008160000160009054906101000a900473ffffffffffffffffffffffffffffffffffffffff16905060008173ffffffffffffffffffffffffffffffffffffffff166370a08231306040518263ffffffff1660e01b8152600401610e7d9190613b81565b60206040518083038186803b158015610e9557600080fd5b505afa158015610ea9573d6000803e3d6000fd5b505050506040513d601f19601f82011682018060405250810190610ecd919061375a565b9050610f1c60fe60009054906101000a900473ffffffffffffffffffffffffffffffffffffffff16828473ffffffffffffffffffffffffffffffffffffffff166129789092919063ffffffff16565b600060fe60009054906101000a900473ffffffffffffffffffffffffffffffffffffffff1673ffffffffffffffffffffffffffffffffffffffff1663ce5494bb846040518263ffffffff1660e01b8152600401610f799190613c40565b602060405180830381600087803b158015610f9357600080fd5b505af1158015610fa7573d6000803e3d6000fd5b505050506040513d601f19601f82011682018060405250810190610fcb919061367c565b90508073ffffffffffffffffffffffffffffffffffffffff166370a08231306040518263ffffffff1660e01b81526004016110069190613b81565b60206040518083038186803b15801561101e57600080fd5b505afa158015611032573d6000803e3d6000fd5b505050506040513d601f19601f82011682018060405250810190611056919061375a565b8214611097576040517f08c379a000000000000000000000000000000000000000000000000000000000815260040161108e90613e78565b60405180910390fd5b808460000160006101000a81548173ffffffffffffffffffffffffffffffffffffffff021916908373ffffffffffffffffffffffffffffffffffffffff1602179055505050505050565b6101035481565b6110f1826124ef565b6110fd8282600161256e565b5050565b6000610100828154811061113e577f4e487b7100000000000000000000000000000000000000000000000000000000600052603260045260246000fd5b906000526020600020906004020190508060020154431161115f57506113e4565b60008160000160009054906101000a900473ffffffffffffffffffffffffffffffffffffffff1673ffffffffffffffffffffffffffffffffffffffff166370a08231306040518263ffffffff1660e01b81526004016111be9190613b81565b60206040518083038186803b1580156111d657600080fd5b505afa1580156111ea573d6000803e3d6000fd5b505050506040513d601f19601f8201168201806040525081019061120e919061375a565b905060008114156112295743826002018190555050506113e4565b6000611239836002015443611d1d565b9050600061127d6101025461126f866001015461126160fc54876127e190919063ffffffff16565b6127e190919063ffffffff16565b6127f790919063ffffffff16565b905060006113636101045460fb60009054906101000a900473ffffffffffffffffffffffffffffffffffffffff1673ffffffffffffffffffffffffffffffffffffffff166370a0823160ff60009054906101000a900473ffffffffffffffffffffffffffffffffffffffff166040518263ffffffff1660e01b81526004016113059190613b81565b60206040518083038186803b15801561131d57600080fd5b505afa158015611331573d6000803e3d6000fd5b505050506040513d601f19601f82011682018060405250810190611355919061375a565b61280d90919063ffffffff16565b9050808210611370578091505b6113b061139d8561138f64e8d4a51000866127e190919063ffffffff16565b6127f790919063ffffffff16565b86600301546124d990919063ffffffff16565b85600301819055506113ce82610104546124d990919063ffffffff16565b6101048190555043856002018190555050505050505b50565b60ff60009054906101000a900473ffffffffffffffffffffffffffffffffffffffff1681565b611415611628565b611454576040517f08c379a000000000000000000000000000000000000000000000000000000000815260040161144b90613cf8565b60405180910390fd5b60006101008281548110611491577f4e487b7100000000000000000000000000000000000000000000000000000000600052603260045260246000fd5b906000526020600020906004020190506000610101600084815260200190815260200160002060003373ffffffffffffffffffffffffffffffffffffffff1673ffffffffffffffffffffffffffffffffffffffff168152602001908152602001600020905060008160000154905060008260000181905550600082600101819055506000611559836001015461154b64e8d4a5100061153d8860030154876127e190919063ffffffff16565b6127f790919063ffffffff16565b61280d90919063ffffffff16565b90506101045481116115835761157b816101045461280d90919063ffffffff16565b610104819055505b6115d233838660000160009054906101000a900473ffffffffffffffffffffffffffffffffffffffff1673ffffffffffffffffffffffffffffffffffffffff166128f29092919063ffffffff16565b843373ffffffffffffffffffffffffffffffffffffffff167fbb757047c2b5f3974fe26b7c10f732e7bce710b0952a71082702781e62ae0595846040516116199190613ed8565b60405180910390a35050505050565b6000603360009054906101000a900460ff16905090565b6116476124d1565b73ffffffffffffffffffffffffffffffffffffffff16611665611cf3565b73ffffffffffffffffffffffffffffffffffffffff16146116bb576040517f08c379a00000000000000000000000000000000000000000000000000000000081526004016116b290613dd8565b60405180910390fd5b8060fd8190555050565b600061010080549050905060005b818110156116f5576116e481611101565b806116ee90614216565b90506116d3565b5050565b6117016124d1565b73ffffffffffffffffffffffffffffffffffffffff1661171f611cf3565b73ffffffffffffffffffffffffffffffffffffffff1614611775576040517f08c379a000000000000000000000000000000000000000000000000000000000815260040161176c90613dd8565b60405180910390fd5b8015611784576117836116c5565b5b600061010084815481106117c1577f4e487b7100000000000000000000000000000000000000000000000000000000600052603260045260246000fd5b9060005260206000209060040201600101549050826101008581548110611811577f4e487b7100000000000000000000000000000000000000000000000000000000600052603260045260246000fd5b90600052602060002090600402016001018190555082811461185d5761185583611847836101025461280d90919063ffffffff16565b6124d990919063ffffffff16565b610102819055505b50505050565b60008061010084815481106118a1577f4e487b7100000000000000000000000000000000000000000000000000000000600052603260045260246000fd5b906000526020600020906004020190506000610101600086815260200190815260200160002060008573ffffffffffffffffffffffffffffffffffffffff1673ffffffffffffffffffffffffffffffffffffffff168152602001908152602001600020905060008260030154905060008360000160009054906101000a900473ffffffffffffffffffffffffffffffffffffffff1673ffffffffffffffffffffffffffffffffffffffff166370a08231306040518263ffffffff1660e01b815260040161196e9190613b81565b60206040518083038186803b15801561198657600080fd5b505afa15801561199a573d6000803e3d6000fd5b505050506040513d601f19601f820116820180604052508101906119be919061375a565b90508360020154431180156119d4575060008114155b15611b625760006119e9856002015443611d1d565b90506000611a2d61010254611a1f8860010154611a1160fc54876127e190919063ffffffff16565b6127e190919063ffffffff16565b6127f790919063ffffffff16565b90506000611b136101045460fb60009054906101000a900473ffffffffffffffffffffffffffffffffffffffff1673ffffffffffffffffffffffffffffffffffffffff166370a0823160ff60009054906101000a900473ffffffffffffffffffffffffffffffffffffffff166040518263ffffffff1660e01b8152600401611ab59190613b81565b60206040518083038186803b158015611acd57600080fd5b505afa158015611ae1573d6000803e3d6000fd5b505050506040513d601f19601f82011682018060405250810190611b05919061375a565b61280d90919063ffffffff16565b9050808210611b20578091505b611b5c611b4d85611b3f64e8d4a51000866127e190919063ffffffff16565b6127f790919063ffffffff16565b866124d990919063ffffffff16565b94505050505b611ba68360010154611b9864e8d4a51000611b8a8688600001546127e190919063ffffffff16565b6127f790919063ffffffff16565b61280d90919063ffffffff16565b94505050505092915050565b611bba6124d1565b73ffffffffffffffffffffffffffffffffffffffff16611bd8611cf3565b73ffffffffffffffffffffffffffffffffffffffff1614611c2e576040517f08c379a0000000000000000000000000000000000000000000000000000000008152600401611c2590613dd8565b60405180910390fd5b611c386000612ad6565b565b60fe60009054906101000a900473ffffffffffffffffffffffffffffffffffffffff1681565b6101045481565b611c6f6124d1565b73ffffffffffffffffffffffffffffffffffffffff16611c8d611cf3565b73ffffffffffffffffffffffffffffffffffffffff1614611ce3576040517f08c379a0000000000000000000000000000000000000000000000000000000008152600401611cda90613dd8565b60405180910390fd5b611ceb612b9c565b565b60fd5481565b600060c960009054906101000a900473ffffffffffffffffffffffffffffffffffffffff16905090565b6000611d4660fd54611d38858561280d90919063ffffffff16565b6127e190919063ffffffff16565b905092915050565b610101602052816000526040600020602052806000526040600020600091509150508060000154908060010154905082565b600060019054906101000a900460ff1680611da6575060008054906101000a900460ff16155b611de5576040517f08c379a0000000000000000000000000000000000000000000000000000000008152600401611ddc90613d98565b60405180910390fd5b60008060019054906101000a900460ff161590508015611e35576001600060016101000a81548160ff02191690831515021790555060016000806101000a81548160ff0219169083151502179055505b611e3d612c3f565b8460fb60006101000a81548173ffffffffffffffffffffffffffffffffffffffff021916908373ffffffffffffffffffffffffffffffffffffffff1602179055508360fc8190555082610103819055508160ff60006101000a81548173ffffffffffffffffffffffffffffffffffffffff021916908373ffffffffffffffffffffffffffffffffffffffff16021790555061010060405180608001604052808773ffffffffffffffffffffffffffffffffffffffff16815260200160c881526020016101035481526020016000815250908060018154018082558091505060019003906000526020600020906004020160009091909190915060008201518160000160006101000a81548173ffffffffffffffffffffffffffffffffffffffff021916908373ffffffffffffffffffffffffffffffffffffffff16021790555060208201518160010155604082015181600201556060820151816003015550506298968060fd8190555060c8610102819055508015611fd15760008060016101000a81548160ff0219169083151502179055505b5050505050565b611fe0611628565b15612020576040517f08c379a000000000000000000000000000000000000000000000000000000000815260040161201790613d78565b60405180910390fd5b6000610100838154811061205d577f4e487b7100000000000000000000000000000000000000000000000000000000600052603260045260246000fd5b906000526020600020906004020190506000610101600085815260200190815260200160002060003373ffffffffffffffffffffffffffffffffffffffff1673ffffffffffffffffffffffffffffffffffffffff16815260200190815260200160002090506120cb84611101565b60008160000154111561213a576000612122826001015461211464e8d4a51000612106876003015487600001546127e190919063ffffffff16565b6127f790919063ffffffff16565b61280d90919063ffffffff16565b90506000811115612138576121373382612823565b5b505b60008311156123245760008260000160009054906101000a900473ffffffffffffffffffffffffffffffffffffffff1673ffffffffffffffffffffffffffffffffffffffff166370a08231306040518263ffffffff1660e01b81526004016121a29190613b81565b60206040518083038186803b1580156121ba57600080fd5b505afa1580156121ce573d6000803e3d6000fd5b505050506040513d601f19601f820116820180604052508101906121f2919061375a565b90506122453330868660000160009054906101000a900473ffffffffffffffffffffffffffffffffffffffff1673ffffffffffffffffffffffffffffffffffffffff16612d28909392919063ffffffff16565b61231a612307828560000160009054906101000a900473ffffffffffffffffffffffffffffffffffffffff1673ffffffffffffffffffffffffffffffffffffffff166370a08231306040518263ffffffff1660e01b81526004016122a99190613b81565b60206040518083038186803b1580156122c157600080fd5b505afa1580156122d5573d6000803e3d6000fd5b505050506040513d601f19601f820116820180604052508101906122f9919061375a565b61280d90919063ffffffff16565b83600001546124d990919063ffffffff16565b8260000181905550505b61235664e8d4a51000612348846003015484600001546127e190919063ffffffff16565b6127f790919063ffffffff16565b8160010181905550833373ffffffffffffffffffffffffffffffffffffffff167f90890809c654f11d6e72a28fa60149770a0d11ec6c92319d6ceb2bb0a4ea1a15856040516123a59190613ed8565b60405180910390a350505050565b60fb60009054906101000a900473ffffffffffffffffffffffffffffffffffffffff1681565b6123e16124d1565b73ffffffffffffffffffffffffffffffffffffffff166123ff611cf3565b73ffffffffffffffffffffffffffffffffffffffff1614612455576040517f08c379a000000000000000000000000000000000000000000000000000000000815260040161244c90613dd8565b60405180910390fd5b600073ffffffffffffffffffffffffffffffffffffffff168173ffffffffffffffffffffffffffffffffffffffff1614156124c5576040517f08c379a00000000000000000000000000000000000000000000000000000000081526004016124bc90613d38565b60405180910390fd5b6124ce81612ad6565b50565b600033905090565b600081836124e79190613fa4565b905092915050565b6124f76124d1565b73ffffffffffffffffffffffffffffffffffffffff16612515611cf3565b73ffffffffffffffffffffffffffffffffffffffff161461256b576040517f08c379a000000000000000000000000000000000000000000000000000000000815260040161256290613dd8565b60405180910390fd5b50565b6000612578612db1565b905061258384612e08565b6000835111806125905750815b156125a15761259f8484612ec1565b505b60006125cf7f4910fdfa16fed3260ed0e7147f7cc6da11a60208b5b9406d12a635614ffd914360001b612fa5565b90508060000160009054906101000a900460ff166127385760018160000160006101000a81548160ff02191690831515021790555061269b85836040516024016126199190613b81565b6040516020818303038152906040527f3659cfe6000000000000000000000000000000000000000000000000000000007bffffffffffffffffffffffffffffffffffffffffffffffffffffffff19166020820180517bffffffffffffffffffffffffffffffffffffffffffffffffffffffff8381831617835250505050612ec1565b5060008160000160006101000a81548160ff0219169083151502179055506126c1612db1565b73ffffffffffffffffffffffffffffffffffffffff168273ffffffffffffffffffffffffffffffffffffffff161461272e576040517f08c379a000000000000000000000000000000000000000000000000000000000815260040161272590613d18565b60405180910390fd5b61273785612faf565b5b5050505050565b612747611628565b612786576040517f08c379a000000000000000000000000000000000000000000000000000000000815260040161277d90613cf8565b60405180910390fd5b6000603360006101000a81548160ff0219169083151502179055507f5db9ee0a495bf2e6ff9c91a7834c1ba4fdd244a5e8aa4e537bd38aeae4b073aa6127ca6124d1565b6040516127d79190613b81565b60405180910390a1565b600081836127ef919061402b565b905092915050565b600081836128059190613ffa565b905092915050565b6000818361281b9190614085565b905092915050565b6128e760ff60009054906101000a900473ffffffffffffffffffffffffffffffffffffffff1673ffffffffffffffffffffffffffffffffffffffff1663e6d41a8284846040518363ffffffff1660e01b8152600401612883929190613bfc565b602060405180830381600087803b15801561289d57600080fd5b505af11580156128b1573d6000803e3d6000fd5b505050506040513d601f19601f820116820180604052508101906128d5919061375a565b6101045461280d90919063ffffffff16565b610104819055505050565b6129738363a9059cbb60e01b8484604051602401612911929190613bfc565b604051602081830303815290604052907bffffffffffffffffffffffffffffffffffffffffffffffffffffffff19166020820180517bffffffffffffffffffffffffffffffffffffffffffffffffffffffff8381831617835250505050612ffe565b505050565b6000811480612a11575060008373ffffffffffffffffffffffffffffffffffffffff1663dd62ed3e30856040518363ffffffff1660e01b81526004016129bf929190613b9c565b60206040518083038186803b1580156129d757600080fd5b505afa1580156129eb573d6000803e3d6000fd5b505050506040513d601f19601f82011682018060405250810190612a0f919061375a565b145b612a50576040517f08c379a0000000000000000000000000000000000000000000000000000000008152600401612a4790613e98565b60405180910390fd5b612ad18363095ea7b360e01b8484604051602401612a6f929190613bfc565b604051602081830303815290604052907bffffffffffffffffffffffffffffffffffffffffffffffffffffffff19166020820180517bffffffffffffffffffffffffffffffffffffffffffffffffffffffff8381831617835250505050612ffe565b505050565b600060c960009054906101000a900473ffffffffffffffffffffffffffffffffffffffff1690508160c960006101000a81548173ffffffffffffffffffffffffffffffffffffffff021916908373ffffffffffffffffffffffffffffffffffffffff1602179055508173ffffffffffffffffffffffffffffffffffffffff168173ffffffffffffffffffffffffffffffffffffffff167f8be0079c531659141344cd1fd0a4f28419497f9722a3daafe3b4186f6b6457e060405160405180910390a35050565b612ba4611628565b15612be4576040517f08c379a0000000000000000000000000000000000000000000000000000000008152600401612bdb90613d78565b60405180910390fd5b6001603360006101000a81548160ff0219169083151502179055507f62e78cea01bee320cd4e420270b5ea74000d11b0c9f74754ebdbfc544b05a258612c286124d1565b604051612c359190613b81565b60405180910390a1565b600060019054906101000a900460ff1680612c65575060008054906101000a900460ff16155b612ca4576040517f08c379a0000000000000000000000000000000000000000000000000000000008152600401612c9b90613d98565b60405180910390fd5b60008060019054906101000a900460ff161590508015612cf4576001600060016101000a81548160ff02191690831515021790555060016000806101000a81548160ff0219169083151502179055505b612cfc6130c5565b612d0461319e565b8015612d255760008060016101000a81548160ff0219169083151502179055505b50565b612dab846323b872dd60e01b858585604051602401612d4993929190613bc5565b604051602081830303815290604052907bffffffffffffffffffffffffffffffffffffffffffffffffffffffff19166020820180517bffffffffffffffffffffffffffffffffffffffffffffffffffffffff8381831617835250505050612ffe565b50505050565b6000612ddf7f360894a13ba1a3210667c828492db98dca3e2076cc3735a920a3ca505d382bbc60001b613287565b60000160009054906101000a900473ffffffffffffffffffffffffffffffffffffffff16905090565b612e1181613291565b612e50576040517f08c379a0000000000000000000000000000000000000000000000000000000008152600401612e4790613db8565b60405180910390fd5b80612e7d7f360894a13ba1a3210667c828492db98dca3e2076cc3735a920a3ca505d382bbc60001b613287565b60000160006101000a81548173ffffffffffffffffffffffffffffffffffffffff021916908373ffffffffffffffffffffffffffffffffffffffff16021790555050565b6060612ecc83613291565b612f0b576040517f08c379a0000000000000000000000000000000000000000000000000000000008152600401612f0290613df8565b60405180910390fd5b6000808473ffffffffffffffffffffffffffffffffffffffff1684604051612f339190613b6a565b600060405180830381855af49150503d8060008114612f6e576040519150601f19603f3d011682016040523d82523d6000602084013e612f73565b606091505b5091509150612f9b828260405180606001604052806027815260200161471f602791396132a4565b9250505092915050565b6000819050919050565b612fb881612e08565b8073ffffffffffffffffffffffffffffffffffffffff167fbc7cd75a20ee27fd9adebab32041f755214dbc6bffa90cc0225b39da2e5c2d3b60405160405180910390a250565b6000613060826040518060400160405280602081526020017f5361666545524332303a206c6f772d6c6576656c2063616c6c206661696c65648152508573ffffffffffffffffffffffffffffffffffffffff1661330b9092919063ffffffff16565b90506000815111156130c057808060200190518101906130809190613653565b6130bf576040517f08c379a00000000000000000000000000000000000000000000000000000000081526004016130b690613e58565b60405180910390fd5b5b505050565b600060019054906101000a900460ff16806130eb575060008054906101000a900460ff16155b61312a576040517f08c379a000000000000000000000000000000000000000000000000000000000815260040161312190613d98565b60405180910390fd5b60008060019054906101000a900460ff16159050801561317a576001600060016101000a81548160ff02191690831515021790555060016000806101000a81548160ff0219169083151502179055505b801561319b5760008060016101000a81548160ff0219169083151502179055505b50565b600060019054906101000a900460ff16806131c4575060008054906101000a900460ff16155b613203576040517f08c379a00000000000000000000000000000000000000000000000000000000081526004016131fa90613d98565b60405180910390fd5b60008060019054906101000a900460ff161590508015613253576001600060016101000a81548160ff02191690831515021790555060016000806101000a81548160ff0219169083151502179055505b61326361325e6124d1565b612ad6565b80156132845760008060016101000a81548160ff0219169083151502179055505b50565b6000819050919050565b600080823b905060008111915050919050565b606083156132b457829050613304565b6000835111156132c75782518084602001fd5b816040517f08c379a00000000000000000000000000000000000000000000000000000000081526004016132fb9190613cd6565b60405180910390fd5b9392505050565b606061331a8484600085613323565b90509392505050565b606082471015613368576040517f08c379a000000000000000000000000000000000000000000000000000000000815260040161335f90613d58565b60405180910390fd5b61337185613437565b6133b0576040517f08c379a00000000000000000000000000000000000000000000000000000000081526004016133a790613e18565b60405180910390fd5b6000808673ffffffffffffffffffffffffffffffffffffffff1685876040516133d99190613b6a565b60006040518083038185875af1925050503d8060008114613416576040519150601f19603f3d011682016040523d82523d6000602084013e61341b565b606091505b509150915061342b82828661344a565b92505050949350505050565b600080823b905060008111915050919050565b6060831561345a578290506134aa565b60008351111561346d5782518084602001fd5b816040517f08c379a00000000000000000000000000000000000000000000000000000000081526004016134a19190613cd6565b60405180910390fd5b9392505050565b60006134c46134bf84613f41565b613f1c565b9050828152602081018484840111156134dc57600080fd5b6134e78482856141a3565b509392505050565b6000813590506134fe81614694565b92915050565b600081359050613513816146ab565b92915050565b600081519050613528816146ab565b92915050565b600082601f83011261353f57600080fd5b813561354f8482602086016134b1565b91505092915050565b600081359050613567816146c2565b92915050565b60008151905061357c816146c2565b92915050565b600081359050613591816146d9565b92915050565b6000813590506135a6816146f0565b92915050565b6000813590506135bb81614707565b92915050565b6000815190506135d081614707565b92915050565b6000602082840312156135e857600080fd5b60006135f6848285016134ef565b91505092915050565b6000806040838503121561361257600080fd5b6000613620858286016134ef565b925050602083013567ffffffffffffffff81111561363d57600080fd5b6136498582860161352e565b9150509250929050565b60006020828403121561366557600080fd5b600061367384828501613519565b91505092915050565b60006020828403121561368e57600080fd5b600061369c8482850161356d565b91505092915050565b600080600080608085870312156136bb57600080fd5b60006136c987828801613558565b94505060206136da878288016135ac565b93505060406136eb878288016135ac565b92505060606136fc87828801613597565b91505092959194509250565b60006020828403121561371a57600080fd5b600061372884828501613582565b91505092915050565b60006020828403121561374357600080fd5b6000613751848285016135ac565b91505092915050565b60006020828403121561376c57600080fd5b600061377a848285016135c1565b91505092915050565b6000806040838503121561379657600080fd5b60006137a4858286016135ac565b92505060206137b5858286016134ef565b9150509250929050565b6000806000606084860312156137d457600080fd5b60006137e2868287016135ac565b93505060206137f386828701613558565b925050604061380486828701613504565b9150509250925092565b6000806040838503121561382157600080fd5b600061382f858286016135ac565b9250506020613840858286016135ac565b9150509250929050565b60008060006060848603121561385f57600080fd5b600061386d868287016135ac565b935050602061387e868287016135ac565b925050604061388f86828701613504565b9150509250925092565b6138a2816140b9565b82525050565b6138b1816140cb565b82525050565b60006138c282613f72565b6138cc8185613f88565b93506138dc8185602086016141b2565b80840191505092915050565b6138f181614137565b82525050565b6139008161415b565b82525050565b61390f8161417f565b82525050565b600061392082613f7d565b61392a8185613f93565b935061393a8185602086016141b2565b613943816142ec565b840191505092915050565b600061395b601483613f93565b9150613966826142fd565b602082019050919050565b600061397e602f83613f93565b915061398982614326565b604082019050919050565b60006139a1602683613f93565b91506139ac82614375565b604082019050919050565b60006139c4602683613f93565b91506139cf826143c4565b604082019050919050565b60006139e7601083613f93565b91506139f282614413565b602082019050919050565b6000613a0a602e83613f93565b9150613a158261443c565b604082019050919050565b6000613a2d602d83613f93565b9150613a388261448b565b604082019050919050565b6000613a50602083613f93565b9150613a5b826144da565b602082019050919050565b6000613a73602683613f93565b9150613a7e82614503565b604082019050919050565b6000613a96601d83613f93565b9150613aa182614552565b602082019050919050565b6000613ab9601283613f93565b9150613ac48261457b565b602082019050919050565b6000613adc602a83613f93565b9150613ae7826145a4565b604082019050919050565b6000613aff600c83613f93565b9150613b0a826145f3565b602082019050919050565b6000613b22603683613f93565b9150613b2d8261461c565b604082019050919050565b6000613b45601483613f93565b9150613b508261466b565b602082019050919050565b613b648161412d565b82525050565b6000613b7682846138b7565b915081905092915050565b6000602082019050613b966000830184613899565b92915050565b6000604082019050613bb16000830185613899565b613bbe6020830184613899565b9392505050565b6000606082019050613bda6000830186613899565b613be76020830185613899565b613bf46040830184613b5b565b949350505050565b6000604082019050613c116000830185613899565b613c1e6020830184613b5b565b9392505050565b6000602082019050613c3a60008301846138a8565b92915050565b6000602082019050613c5560008301846138e8565b92915050565b6000608082019050613c7060008301876138e8565b613c7d6020830186613b5b565b613c8a6040830185613b5b565b613c976060830184613b5b565b95945050505050565b6000602082019050613cb560008301846138f7565b92915050565b6000602082019050613cd06000830184613906565b92915050565b60006020820190508181036000830152613cf08184613915565b905092915050565b60006020820190508181036000830152613d118161394e565b9050919050565b60006020820190508181036000830152613d3181613971565b9050919050565b60006020820190508181036000830152613d5181613994565b9050919050565b60006020820190508181036000830152613d71816139b7565b9050919050565b60006020820190508181036000830152613d91816139da565b9050919050565b60006020820190508181036000830152613db1816139fd565b9050919050565b60006020820190508181036000830152613dd181613a20565b9050919050565b60006020820190508181036000830152613df181613a43565b9050919050565b60006020820190508181036000830152613e1181613a66565b9050919050565b60006020820190508181036000830152613e3181613a89565b9050919050565b60006020820190508181036000830152613e5181613aac565b9050919050565b60006020820190508181036000830152613e7181613acf565b9050919050565b60006020820190508181036000830152613e9181613af2565b9050919050565b60006020820190508181036000830152613eb181613b15565b9050919050565b60006020820190508181036000830152613ed181613b38565b9050919050565b6000602082019050613eed6000830184613b5b565b92915050565b6000604082019050613f086000830185613b5b565b613f156020830184613b5b565b9392505050565b6000613f26613f37565b9050613f3282826141e5565b919050565b6000604051905090565b600067ffffffffffffffff821115613f5c57613f5b6142bd565b5b613f65826142ec565b9050602081019050919050565b600081519050919050565b600081519050919050565b600081905092915050565b600082825260208201905092915050565b6000613faf8261412d565b9150613fba8361412d565b9250827fffffffffffffffffffffffffffffffffffffffffffffffffffffffffffffffff03821115613fef57613fee61425f565b5b828201905092915050565b60006140058261412d565b91506140108361412d565b9250826140205761401f61428e565b5b828204905092915050565b60006140368261412d565b91506140418361412d565b9250817fffffffffffffffffffffffffffffffffffffffffffffffffffffffffffffffff048311821515161561407a5761407961425f565b5b828202905092915050565b60006140908261412d565b915061409b8361412d565b9250828210156140ae576140ad61425f565b5b828203905092915050565b60006140c48261410d565b9050919050565b60008115159050919050565b60006140e2826140b9565b9050919050565b60006140f4826140b9565b9050919050565b6000614106826140b9565b9050919050565b600073ffffffffffffffffffffffffffffffffffffffff82169050919050565b6000819050919050565b600061414282614149565b9050919050565b60006141548261410d565b9050919050565b60006141668261416d565b9050919050565b60006141788261410d565b9050919050565b600061418a82614191565b9050919050565b600061419c8261410d565b9050919050565b82818337600083830152505050565b60005b838110156141d05780820151818401526020810190506141b5565b838111156141df576000848401525b50505050565b6141ee826142ec565b810181811067ffffffffffffffff8211171561420d5761420c6142bd565b5b80604052505050565b60006142218261412d565b91507fffffffffffffffffffffffffffffffffffffffffffffffffffffffffffffffff8214156142545761425361425f565b5b600182019050919050565b7f4e487b7100000000000000000000000000000000000000000000000000000000600052601160045260246000fd5b7f4e487b7100000000000000000000000000000000000000000000000000000000600052601260045260246000fd5b7f4e487b7100000000000000000000000000000000000000000000000000000000600052604160045260246000fd5b6000601f19601f8301169050919050565b7f5061757361626c653a206e6f7420706175736564000000000000000000000000600082015250565b7f45524331393637557067726164653a207570677261646520627265616b73206660008201527f7572746865722075706772616465730000000000000000000000000000000000602082015250565b7f4f776e61626c653a206e6577206f776e657220697320746865207a65726f206160008201527f6464726573730000000000000000000000000000000000000000000000000000602082015250565b7f416464726573733a20696e73756666696369656e742062616c616e636520666f60008201527f722063616c6c0000000000000000000000000000000000000000000000000000602082015250565b7f5061757361626c653a2070617573656400000000000000000000000000000000600082015250565b7f496e697469616c697a61626c653a20636f6e747261637420697320616c72656160008201527f647920696e697469616c697a6564000000000000000000000000000000000000602082015250565b7f455243313936373a206e657720696d706c656d656e746174696f6e206973206e60008201527f6f74206120636f6e747261637400000000000000000000000000000000000000602082015250565b7f4f776e61626c653a2063616c6c6572206973206e6f7420746865206f776e6572600082015250565b7f416464726573733a2064656c65676174652063616c6c20746f206e6f6e2d636f60008201527f6e74726163740000000000000000000000000000000000000000000000000000602082015250565b7f416464726573733a2063616c6c20746f206e6f6e2d636f6e7472616374000000600082015250565b7f77697468647261773a206e6f7420676f6f640000000000000000000000000000600082015250565b7f5361666545524332303a204552433230206f7065726174696f6e20646964206e60008201527f6f74207375636365656400000000000000000000000000000000000000000000602082015250565b7f6d6967726174653a206261640000000000000000000000000000000000000000600082015250565b7f5361666545524332303a20617070726f76652066726f6d206e6f6e2d7a65726f60008201527f20746f206e6f6e2d7a65726f20616c6c6f77616e636500000000000000000000602082015250565b7f6d6967726174653a206e6f206d69677261746f72000000000000000000000000600082015250565b61469d816140b9565b81146146a857600080fd5b50565b6146b4816140cb565b81146146bf57600080fd5b50565b6146cb816140d7565b81146146d657600080fd5b50565b6146e2816140e9565b81146146ed57600080fd5b50565b6146f9816140fb565b811461470457600080fd5b50565b6147108161412d565b811461471b57600080fd5b5056fe416464726573733a206c6f772d6c6576656c2064656c65676174652063616c6c206661696c6564a2646970667358221220aa4d92bfd3263d75e11ec1e7fdccdc1d034f45c7228fc875a65dabbf035329c964736f6c63430008020033",
  "linkReferences": {},
  "deployedLinkReferences": {}
}