{
  "_format": "hh-sol-artifact-1",
  "contractName": "MasterPred",
  "sourceName": "contracts/Farm.sol",
  "abi": [
    {
      "inputs": [
        {
          "internalType": "contract IBEP20",
          "name": "_pred",
          "type": "address"
        },
        {
          "internalType": "uint256",
          "name": "_predPerBlock",
          "type": "uint256"
        },
        {
          "internalType": "uint256",
          "name": "_startBlock",
          "type": "uint256"
        }
      ],
      "stateMutability": "nonpayable",
      "type": "constructor"
    },
    {
      "anonymous": false,
      "inputs": [
        {
          "indexed": true,
          "internalType": "address",
          "name": "user",
          "type": "address"
        },
        {
          "indexed": true,
          "internalType": "uint256",
          "name": "pid",
          "type": "uint256"
        },
        {
          "indexed": false,
          "internalType": "uint256",
          "name": "amount",
          "type": "uint256"
        }
      ],
      "name": "Deposit",
      "type": "event"
    },
    {
      "anonymous": false,
      "inputs": [
        {
          "indexed": true,
          "internalType": "address",
          "name": "user",
          "type": "address"
        },
        {
          "indexed": true,
          "internalType": "uint256",
          "name": "pid",
          "type": "uint256"
        },
        {
          "indexed": false,
          "internalType": "uint256",
          "name": "amount",
          "type": "uint256"
        }
      ],
      "name": "EmergencyWithdraw",
      "type": "event"
    },
    {
      "anonymous": false,
      "inputs": [
        {
          "indexed": true,
          "internalType": "address",
          "name": "previousOwner",
          "type": "address"
        },
        {
          "indexed": true,
          "internalType": "address",
          "name": "newOwner",
          "type": "address"
        }
      ],
      "name": "OwnershipTransferred",
      "type": "event"
    },
    {
      "anonymous": false,
      "inputs": [
        {
          "indexed": true,
          "internalType": "address",
          "name": "user",
          "type": "address"
        },
        {
          "indexed": true,
          "internalType": "uint256",
          "name": "pid",
          "type": "uint256"
        },
        {
          "indexed": false,
          "internalType": "uint256",
          "name": "amount",
          "type": "uint256"
        }
      ],
      "name": "Withdraw",
      "type": "event"
    },
    {
      "inputs": [],
      "name": "BONUS_MULTIPLIER",
      "outputs": [
        {
          "internalType": "uint256",
          "name": "",
          "type": "uint256"
        }
      ],
      "stateMutability": "view",
      "type": "function"
    },
    {
      "inputs": [
        {
          "internalType": "uint256",
          "name": "_allocPoint",
          "type": "uint256"
        },
        {
          "internalType": "contract IBEP20",
          "name": "_lpToken",
          "type": "address"
        },
        {
          "internalType": "bool",
          "name": "_withUpdate",
          "type": "bool"
        }
      ],
      "name": "add",
      "outputs": [],
      "stateMutability": "nonpayable",
      "type": "function"
    },
    {
      "inputs": [
        {
          "internalType": "uint256",
          "name": "_pid",
          "type": "uint256"
        },
        {
          "internalType": "uint256",
          "name": "_amount",
          "type": "uint256"
        }
      ],
      "name": "deposit",
      "outputs": [],
      "stateMutability": "nonpayable",
      "type": "function"
    },
    {
      "inputs": [
        {
          "internalType": "uint256",
          "name": "_pid",
          "type": "uint256"
        }
      ],
      "name": "emergencyWithdraw",
      "outputs": [],
      "stateMutability": "nonpayable",
      "type": "function"
    },
    {
      "inputs": [
        {
          "internalType": "uint256",
          "name": "_from",
          "type": "uint256"
        },
        {
          "internalType": "uint256",
          "name": "_to",
          "type": "uint256"
        }
      ],
      "name": "getMultiplier",
      "outputs": [
        {
          "internalType": "uint256",
          "name": "",
          "type": "uint256"
        }
      ],
      "stateMutability": "view",
      "type": "function"
    },
    {
      "inputs": [],
      "name": "massUpdatePools",
      "outputs": [],
      "stateMutability": "nonpayable",
      "type": "function"
    },
    {
      "inputs": [
        {
          "internalType": "uint256",
          "name": "_pid",
          "type": "uint256"
        }
      ],
      "name": "migrate",
      "outputs": [],
      "stateMutability": "nonpayable",
      "type": "function"
    },
    {
      "inputs": [],
      "name": "migrator",
      "outputs": [
        {
          "internalType": "contract IMigratorChef",
          "name": "",
          "type": "address"
        }
      ],
      "stateMutability": "view",
      "type": "function"
    },
    {
      "inputs": [],
      "name": "owner",
      "outputs": [
        {
          "internalType": "address",
          "name": "",
          "type": "address"
        }
      ],
      "stateMutability": "view",
      "type": "function"
    },
    {
      "inputs": [
        {
          "internalType": "uint256",
          "name": "_pid",
          "type": "uint256"
        },
        {
          "internalType": "address",
          "name": "_user",
          "type": "address"
        }
      ],
      "name": "pendingPred",
      "outputs": [
        {
          "internalType": "uint256",
          "name": "",
          "type": "uint256"
        }
      ],
      "stateMutability": "view",
      "type": "function"
    },
    {
      "inputs": [
        {
          "internalType": "uint256",
          "name": "",
          "type": "uint256"
        }
      ],
      "name": "poolInfo",
      "outputs": [
        {
          "internalType": "contract IBEP20",
          "name": "lpToken",
          "type": "address"
        },
        {
          "internalType": "uint256",
          "name": "allocPoint",
          "type": "uint256"
        },
        {
          "internalType": "uint256",
          "name": "lastRewardBlock",
          "type": "uint256"
        },
        {
          "internalType": "uint256",
          "name": "accPredPerShare",
          "type": "uint256"
        }
      ],
      "stateMutability": "view",
      "type": "function"
    },
    {
      "inputs": [],
      "name": "poolLength",
      "outputs": [
        {
          "internalType": "uint256",
          "name": "",
          "type": "uint256"
        }
      ],
      "stateMutability": "view",
      "type": "function"
    },
    {
      "inputs": [],
      "name": "pred",
      "outputs": [
        {
          "internalType": "contract IBEP20",
          "name": "",
          "type": "address"
        }
      ],
      "stateMutability": "view",
      "type": "function"
    },
    {
      "inputs": [],
      "name": "predPerBlock",
      "outputs": [
        {
          "internalType": "uint256",
          "name": "",
          "type": "uint256"
        }
      ],
      "stateMutability": "view",
      "type": "function"
    },
    {
      "inputs": [],
      "name": "renounceOwnership",
      "outputs": [],
      "stateMutability": "nonpayable",
      "type": "function"
    },
    {
      "inputs": [
        {
          "internalType": "uint256",
          "name": "_pid",
          "type": "uint256"
        },
        {
          "internalType": "uint256",
          "name": "_allocPoint",
          "type": "uint256"
        },
        {
          "internalType": "bool",
          "name": "_withUpdate",
          "type": "bool"
        }
      ],
      "name": "set",
      "outputs": [],
      "stateMutability": "nonpayable",
      "type": "function"
    },
    {
      "inputs": [
        {
          "internalType": "contract IMigratorChef",
          "name": "_migrator",
          "type": "address"
        }
      ],
      "name": "setMigrator",
      "outputs": [],
      "stateMutability": "nonpayable",
      "type": "function"
    },
    {
      "inputs": [],
      "name": "startBlock",
      "outputs": [
        {
          "internalType": "uint256",
          "name": "",
          "type": "uint256"
        }
      ],
      "stateMutability": "view",
      "type": "function"
    },
    {
      "inputs": [],
      "name": "totalAllocPoint",
      "outputs": [
        {
          "internalType": "uint256",
          "name": "",
          "type": "uint256"
        }
      ],
      "stateMutability": "view",
      "type": "function"
    },
    {
      "inputs": [],
      "name": "totalRewardDebt",
      "outputs": [
        {
          "internalType": "uint256",
          "name": "",
          "type": "uint256"
        }
      ],
      "stateMutability": "view",
      "type": "function"
    },
    {
      "inputs": [
        {
          "internalType": "address",
          "name": "newOwner",
          "type": "address"
        }
      ],
      "name": "transferOwnership",
      "outputs": [],
      "stateMutability": "nonpayable",
      "type": "function"
    },
    {
      "inputs": [
        {
          "internalType": "uint256",
          "name": "multiplierNumber",
          "type": "uint256"
        }
      ],
      "name": "updateMultiplier",
      "outputs": [],
      "stateMutability": "nonpayable",
      "type": "function"
    },
    {
      "inputs": [
        {
          "internalType": "uint256",
          "name": "_pid",
          "type": "uint256"
        }
      ],
      "name": "updatePool",
      "outputs": [],
      "stateMutability": "nonpayable",
      "type": "function"
    },
    {
      "inputs": [
        {
          "internalType": "uint256",
          "name": "",
          "type": "uint256"
        },
        {
          "internalType": "address",
          "name": "",
          "type": "address"
        }
      ],
      "name": "userInfo",
      "outputs": [
        {
          "internalType": "uint256",
          "name": "amount",
          "type": "uint256"
        },
        {
          "internalType": "uint256",
          "name": "rewardDebt",
          "type": "uint256"
        }
      ],
      "stateMutability": "view",
      "type": "function"
    },
    {
      "inputs": [],
      "name": "wallet",
      "outputs": [
        {
          "internalType": "contract MasterPredWallet",
          "name": "",
          "type": "address"
        }
      ],
      "stateMutability": "view",
      "type": "function"
    },
    {
      "inputs": [
        {
          "internalType": "uint256",
          "name": "_pid",
          "type": "uint256"
        },
        {
          "internalType": "uint256",
          "name": "_amount",
          "type": "uint256"
        }
      ],
      "name": "withdraw",
      "outputs": [],
      "stateMutability": "nonpayable",
      "type": "function"
    }
  ],
  "bytecode": "0x6080604052600160035560006008553480156200001b57600080fd5b5060405162003a1e38038062003a1e833981810160405260608110156200004157600080fd5b81019080805190602001909291908051906020019092919080519060200190929190505050600062000078620002d060201b60201c565b9050806000806101000a81548173ffffffffffffffffffffffffffffffffffffffff021916908373ffffffffffffffffffffffffffffffffffffffff1602179055508073ffffffffffffffffffffffffffffffffffffffff16600073ffffffffffffffffffffffffffffffffffffffff167f8be0079c531659141344cd1fd0a4f28419497f9722a3daafe3b4186f6b6457e060405160405180910390a35082600160006101000a81548173ffffffffffffffffffffffffffffffffffffffff021916908373ffffffffffffffffffffffffffffffffffffffff1602179055508160028190555080600981905550826040516200017490620002d8565b808273ffffffffffffffffffffffffffffffffffffffff168152602001915050604051809103906000f080158015620001b1573d6000803e3d6000fd5b50600560006101000a81548173ffffffffffffffffffffffffffffffffffffffff021916908373ffffffffffffffffffffffffffffffffffffffff160217905550600660405180608001604052808573ffffffffffffffffffffffffffffffffffffffff16815260200160c8815260200160095481526020016000815250908060018154018082558091505060019003906000526020600020906004020160009091909190915060008201518160000160006101000a81548173ffffffffffffffffffffffffffffffffffffffff021916908373ffffffffffffffffffffffffffffffffffffffff160217905550602082015181600101556040820151816002015560608201518160030155505060c8600881905550505050620002e6565b600033905090565b6108ce806200315083390190565b612e5a80620002f66000396000f3fe608060405234801561001057600080fd5b506004361061018e5760003560e01c8063630b5ba1116100de5780638aa285501161009757806393f1a40b1161007157806393f1a40b146105e4578063e2bbb1581461064d578063e5c9ad2e14610685578063f2fde38b146106b95761018e565b80638aa28550146105465780638da5cb5b146105645780638dbb1e3a146105985761018e565b8063630b5ba11461043a57806364482f79146104445780636450b8a914610488578063715018a6146104ea5780637cd07e47146104f457806383bb3877146105285761018e565b8063441a3e701161014b57806351eb05a61161012557806351eb05a61461037c578063521eb273146103aa5780635312ea8e146103de5780635ffe61461461040c5761018e565b8063441a3e70146102f8578063454b06081461033057806348cd4cb11461035e5761018e565b8063081e3eda146101935780631526fe27146101b157806317caf6f11461021e5780631eaaa0451461023c5780631fc7be891461029657806323cf3118146102b4575b600080fd5b61019b6106fd565b6040518082815260200191505060405180910390f35b6101dd600480360360208110156101c757600080fd5b810190808035906020019092919050505061070a565b604051808573ffffffffffffffffffffffffffffffffffffffff16815260200184815260200183815260200182815260200194505050505060405180910390f35b610226610767565b6040518082815260200191505060405180910390f35b6102946004803603606081101561025257600080fd5b8101908080359060200190929190803573ffffffffffffffffffffffffffffffffffffffff16906020019092919080351515906020019092919050505061076d565b005b61029e610946565b6040518082815260200191505060405180910390f35b6102f6600480360360208110156102ca57600080fd5b81019080803573ffffffffffffffffffffffffffffffffffffffff16906020019092919050505061094c565b005b61032e6004803603604081101561030e57600080fd5b810190808035906020019092919080359060200190929190505050610a58565b005b61035c6004803603602081101561034657600080fd5b8101908080359060200190929190505050610cb6565b005b6103666110e0565b6040518082815260200191505060405180910390f35b6103a86004803603602081101561039257600080fd5b81019080803590602001909291905050506110e6565b005b6103b26113cc565b604051808273ffffffffffffffffffffffffffffffffffffffff16815260200191505060405180910390f35b61040a600480360360208110156103f457600080fd5b81019080803590602001909291905050506113f2565b005b6104386004803603602081101561042257600080fd5b8101908080359060200190929190505050611524565b005b6104426115f6565b005b6104866004803603606081101561045a57600080fd5b810190808035906020019092919080359060200190929190803515159060200190929190505050611623565b005b6104d46004803603604081101561049e57600080fd5b8101908080359060200190929190803573ffffffffffffffffffffffffffffffffffffffff16906020019092919050505061177b565b6040518082815260200191505060405180910390f35b6104f2611acb565b005b6104fc611c51565b604051808273ffffffffffffffffffffffffffffffffffffffff16815260200191505060405180910390f35b610530611c77565b6040518082815260200191505060405180910390f35b61054e611c7d565b6040518082815260200191505060405180910390f35b61056c611c83565b604051808273ffffffffffffffffffffffffffffffffffffffff16815260200191505060405180910390f35b6105ce600480360360408110156105ae57600080fd5b810190808035906020019092919080359060200190929190505050611cac565b6040518082815260200191505060405180910390f35b610630600480360360408110156105fa57600080fd5b8101908080359060200190929190803573ffffffffffffffffffffffffffffffffffffffff169060200190929190505050611cdd565b604051808381526020018281526020019250505060405180910390f35b6106836004803603604081101561066357600080fd5b810190808035906020019092919080359060200190929190505050611d0e565b005b61068d6120a4565b604051808273ffffffffffffffffffffffffffffffffffffffff16815260200191505060405180910390f35b6106fb600480360360208110156106cf57600080fd5b81019080803573ffffffffffffffffffffffffffffffffffffffff1690602001909291905050506120ca565b005b6000600680549050905090565b6006818154811061071757fe5b90600052602060002090600402016000915090508060000160009054906101000a900473ffffffffffffffffffffffffffffffffffffffff16908060010154908060020154908060030154905084565b60085481565b61077561219e565b73ffffffffffffffffffffffffffffffffffffffff1660008054906101000a900473ffffffffffffffffffffffffffffffffffffffff1673ffffffffffffffffffffffffffffffffffffffff1614610835576040517f08c379a00000000000000000000000000000000000000000000000000000000081526004018080602001828103825260208152602001807f4f776e61626c653a2063616c6c6572206973206e6f7420746865206f776e657281525060200191505060405180910390fd5b8015610844576108436115f6565b5b6000600954431161085757600954610859565b435b9050610870846008546121a690919063ffffffff16565b600881905550600660405180608001604052808573ffffffffffffffffffffffffffffffffffffffff1681526020018681526020018381526020016000815250908060018154018082558091505060019003906000526020600020906004020160009091909190915060008201518160000160006101000a81548173ffffffffffffffffffffffffffffffffffffffff021916908373ffffffffffffffffffffffffffffffffffffffff160217905550602082015181600101556040820151816002015560608201518160030155505050505050565b60025481565b61095461219e565b73ffffffffffffffffffffffffffffffffffffffff1660008054906101000a900473ffffffffffffffffffffffffffffffffffffffff1673ffffffffffffffffffffffffffffffffffffffff1614610a14576040517f08c379a00000000000000000000000000000000000000000000000000000000081526004018080602001828103825260208152602001807f4f776e61626c653a2063616c6c6572206973206e6f7420746865206f776e657281525060200191505060405180910390fd5b80600460006101000a81548173ffffffffffffffffffffffffffffffffffffffff021916908373ffffffffffffffffffffffffffffffffffffffff16021790555050565b600060068381548110610a6757fe5b9060005260206000209060040201905060006007600085815260200190815260200160002060003373ffffffffffffffffffffffffffffffffffffffff1673ffffffffffffffffffffffffffffffffffffffff16815260200190815260200160002090508281600001541015610b45576040517f08c379a00000000000000000000000000000000000000000000000000000000081526004018080602001828103825260128152602001807f77697468647261773a206e6f7420676f6f64000000000000000000000000000081525060200191505060405180910390fd5b610b4e846110e6565b6000610b988260010154610b8a64e8d4a51000610b7c8760030154876000015461222e90919063ffffffff16565b6122b490919063ffffffff16565b6122fe90919063ffffffff16565b90506000811115610bae57610bad3382612348565b5b6000841115610c2657610bce8483600001546122fe90919063ffffffff16565b8260000181905550610c2533858560000160009054906101000a900473ffffffffffffffffffffffffffffffffffffffff1673ffffffffffffffffffffffffffffffffffffffff166124349092919063ffffffff16565b5b610c5864e8d4a51000610c4a8560030154856000015461222e90919063ffffffff16565b6122b490919063ffffffff16565b8260010181905550843373ffffffffffffffffffffffffffffffffffffffff167ff279e6a1f5e320cca91135676d9cb6e44ca8a08c0b88342bcdb1144f6511b568866040518082815260200191505060405180910390a35050505050565b600073ffffffffffffffffffffffffffffffffffffffff16600460009054906101000a900473ffffffffffffffffffffffffffffffffffffffff1673ffffffffffffffffffffffffffffffffffffffff161415610d7b576040517f08c379a00000000000000000000000000000000000000000000000000000000081526004018080602001828103825260148152602001807f6d6967726174653a206e6f206d69677261746f7200000000000000000000000081525060200191505060405180910390fd5b600060068281548110610d8a57fe5b9060005260206000209060040201905060008160000160009054906101000a900473ffffffffffffffffffffffffffffffffffffffff16905060008173ffffffffffffffffffffffffffffffffffffffff166370a08231306040518263ffffffff1660e01b8152600401808273ffffffffffffffffffffffffffffffffffffffff16815260200191505060206040518083038186803b158015610e2c57600080fd5b505afa158015610e40573d6000803e3d6000fd5b505050506040513d6020811015610e5657600080fd5b81019080805190602001909291905050509050610eb6600460009054906101000a900473ffffffffffffffffffffffffffffffffffffffff16828473ffffffffffffffffffffffffffffffffffffffff166124d69092919063ffffffff16565b6000600460009054906101000a900473ffffffffffffffffffffffffffffffffffffffff1673ffffffffffffffffffffffffffffffffffffffff1663ce5494bb846040518263ffffffff1660e01b8152600401808273ffffffffffffffffffffffffffffffffffffffff168152602001915050602060405180830381600087803b158015610f4357600080fd5b505af1158015610f57573d6000803e3d6000fd5b505050506040513d6020811015610f6d57600080fd5b810190808051906020019092919050505090508073ffffffffffffffffffffffffffffffffffffffff166370a08231306040518263ffffffff1660e01b8152600401808273ffffffffffffffffffffffffffffffffffffffff16815260200191505060206040518083038186803b158015610fe757600080fd5b505afa158015610ffb573d6000803e3d6000fd5b505050506040513d602081101561101157600080fd5b81019080805190602001909291905050508214611096576040517f08c379a000000000000000000000000000000000000000000000000000000000815260040180806020018281038252600c8152602001807f6d6967726174653a20626164000000000000000000000000000000000000000081525060200191505060405180910390fd5b808460000160006101000a81548173ffffffffffffffffffffffffffffffffffffffff021916908373ffffffffffffffffffffffffffffffffffffffff1602179055505050505050565b60095481565b6000600682815481106110f557fe5b906000526020600020906004020190508060020154431161111657506113c9565b60008160000160009054906101000a900473ffffffffffffffffffffffffffffffffffffffff1673ffffffffffffffffffffffffffffffffffffffff166370a08231306040518263ffffffff1660e01b8152600401808273ffffffffffffffffffffffffffffffffffffffff16815260200191505060206040518083038186803b1580156111a357600080fd5b505afa1580156111b7573d6000803e3d6000fd5b505050506040513d60208110156111cd57600080fd5b8101908080519060200190929190505050905060008114156111f95743826002018190555050506113c9565b6000611209836002015443611cac565b9050600061124c60085461123e86600101546112306002548761222e90919063ffffffff16565b61222e90919063ffffffff16565b6122b490919063ffffffff16565b9050600061134a600a54600160009054906101000a900473ffffffffffffffffffffffffffffffffffffffff1673ffffffffffffffffffffffffffffffffffffffff166370a08231600560009054906101000a900473ffffffffffffffffffffffffffffffffffffffff166040518263ffffffff1660e01b8152600401808273ffffffffffffffffffffffffffffffffffffffff16815260200191505060206040518083038186803b15801561130157600080fd5b505afa158015611315573d6000803e3d6000fd5b505050506040513d602081101561132b57600080fd5b81019080805190602001909291905050506122fe90919063ffffffff16565b9050808210611357578091505b6113976113848561137664e8d4a510008661222e90919063ffffffff16565b6122b490919063ffffffff16565b86600301546121a690919063ffffffff16565b85600301819055506113b482600a546121a690919063ffffffff16565b600a8190555043856002018190555050505050505b50565b600560009054906101000a900473ffffffffffffffffffffffffffffffffffffffff1681565b60006006828154811061140157fe5b9060005260206000209060040201905060006007600084815260200190815260200160002060003373ffffffffffffffffffffffffffffffffffffffff1673ffffffffffffffffffffffffffffffffffffffff16815260200190815260200160002090506114b83382600001548460000160009054906101000a900473ffffffffffffffffffffffffffffffffffffffff1673ffffffffffffffffffffffffffffffffffffffff166124349092919063ffffffff16565b823373ffffffffffffffffffffffffffffffffffffffff167fbb757047c2b5f3974fe26b7c10f732e7bce710b0952a71082702781e62ae059583600001546040518082815260200191505060405180910390a36000816000018190555060008160010181905550505050565b61152c61219e565b73ffffffffffffffffffffffffffffffffffffffff1660008054906101000a900473ffffffffffffffffffffffffffffffffffffffff1673ffffffffffffffffffffffffffffffffffffffff16146115ec576040517f08c379a00000000000000000000000000000000000000000000000000000000081526004018080602001828103825260208152602001807f4f776e61626c653a2063616c6c6572206973206e6f7420746865206f776e657281525060200191505060405180910390fd5b8060038190555050565b6000600680549050905060005b8181101561161f57611614816110e6565b806001019050611603565b5050565b61162b61219e565b73ffffffffffffffffffffffffffffffffffffffff1660008054906101000a900473ffffffffffffffffffffffffffffffffffffffff1673ffffffffffffffffffffffffffffffffffffffff16146116eb576040517f08c379a00000000000000000000000000000000000000000000000000000000081526004018080602001828103825260208152602001807f4f776e61626c653a2063616c6c6572206973206e6f7420746865206f776e657281525060200191505060405180910390fd5b80156116fa576116f96115f6565b5b60006006848154811061170957fe5b9060005260206000209060040201600101549050826006858154811061172b57fe5b9060005260206000209060040201600101819055508281146117755761176e83611760836008546122fe90919063ffffffff16565b6121a690919063ffffffff16565b6008819055505b50505050565b6000806006848154811061178b57fe5b9060005260206000209060040201905060006007600086815260200190815260200160002060008573ffffffffffffffffffffffffffffffffffffffff1673ffffffffffffffffffffffffffffffffffffffff168152602001908152602001600020905060008260030154905060008360000160009054906101000a900473ffffffffffffffffffffffffffffffffffffffff1673ffffffffffffffffffffffffffffffffffffffff166370a08231306040518263ffffffff1660e01b8152600401808273ffffffffffffffffffffffffffffffffffffffff16815260200191505060206040518083038186803b15801561188557600080fd5b505afa158015611899573d6000803e3d6000fd5b505050506040513d60208110156118af57600080fd5b810190808051906020019092919050505090508360020154431180156118d6575060008114155b15611a7b5760006118eb856002015443611cac565b9050600061192e60085461192088600101546119126002548761222e90919063ffffffff16565b61222e90919063ffffffff16565b6122b490919063ffffffff16565b90506000611a2c600a54600160009054906101000a900473ffffffffffffffffffffffffffffffffffffffff1673ffffffffffffffffffffffffffffffffffffffff166370a08231600560009054906101000a900473ffffffffffffffffffffffffffffffffffffffff166040518263ffffffff1660e01b8152600401808273ffffffffffffffffffffffffffffffffffffffff16815260200191505060206040518083038186803b1580156119e357600080fd5b505afa1580156119f7573d6000803e3d6000fd5b505050506040513d6020811015611a0d57600080fd5b81019080805190602001909291905050506122fe90919063ffffffff16565b9050808210611a39578091505b611a75611a6685611a5864e8d4a510008661222e90919063ffffffff16565b6122b490919063ffffffff16565b866121a690919063ffffffff16565b94505050505b611abf8360010154611ab164e8d4a51000611aa386886000015461222e90919063ffffffff16565b6122b490919063ffffffff16565b6122fe90919063ffffffff16565b94505050505092915050565b611ad361219e565b73ffffffffffffffffffffffffffffffffffffffff1660008054906101000a900473ffffffffffffffffffffffffffffffffffffffff1673ffffffffffffffffffffffffffffffffffffffff1614611b93576040517f08c379a00000000000000000000000000000000000000000000000000000000081526004018080602001828103825260208152602001807f4f776e61626c653a2063616c6c6572206973206e6f7420746865206f776e657281525060200191505060405180910390fd5b600073ffffffffffffffffffffffffffffffffffffffff1660008054906101000a900473ffffffffffffffffffffffffffffffffffffffff1673ffffffffffffffffffffffffffffffffffffffff167f8be0079c531659141344cd1fd0a4f28419497f9722a3daafe3b4186f6b6457e060405160405180910390a360008060006101000a81548173ffffffffffffffffffffffffffffffffffffffff021916908373ffffffffffffffffffffffffffffffffffffffff160217905550565b600460009054906101000a900473ffffffffffffffffffffffffffffffffffffffff1681565b600a5481565b60035481565b60008060009054906101000a900473ffffffffffffffffffffffffffffffffffffffff16905090565b6000611cd5600354611cc785856122fe90919063ffffffff16565b61222e90919063ffffffff16565b905092915050565b6007602052816000526040600020602052806000526040600020600091509150508060000154908060010154905082565b600060068381548110611d1d57fe5b9060005260206000209060040201905060006007600085815260200190815260200160002060003373ffffffffffffffffffffffffffffffffffffffff1673ffffffffffffffffffffffffffffffffffffffff1681526020019081526020016000209050611d8a846110e6565b600081600001541115611df9576000611de18260010154611dd364e8d4a51000611dc58760030154876000015461222e90919063ffffffff16565b6122b490919063ffffffff16565b6122fe90919063ffffffff16565b90506000811115611df757611df63382612348565b5b505b60008311156120155760008260000160009054906101000a900473ffffffffffffffffffffffffffffffffffffffff1673ffffffffffffffffffffffffffffffffffffffff166370a08231306040518263ffffffff1660e01b8152600401808273ffffffffffffffffffffffffffffffffffffffff16815260200191505060206040518083038186803b158015611e8f57600080fd5b505afa158015611ea3573d6000803e3d6000fd5b505050506040513d6020811015611eb957600080fd5b81019080805190602001909291905050509050611f1d3330868660000160009054906101000a900473ffffffffffffffffffffffffffffffffffffffff1673ffffffffffffffffffffffffffffffffffffffff1661269b909392919063ffffffff16565b61200b611ff8828560000160009054906101000a900473ffffffffffffffffffffffffffffffffffffffff1673ffffffffffffffffffffffffffffffffffffffff166370a08231306040518263ffffffff1660e01b8152600401808273ffffffffffffffffffffffffffffffffffffffff16815260200191505060206040518083038186803b158015611faf57600080fd5b505afa158015611fc3573d6000803e3d6000fd5b505050506040513d6020811015611fd957600080fd5b81019080805190602001909291905050506122fe90919063ffffffff16565b83600001546121a690919063ffffffff16565b8260000181905550505b61204764e8d4a510006120398460030154846000015461222e90919063ffffffff16565b6122b490919063ffffffff16565b8160010181905550833373ffffffffffffffffffffffffffffffffffffffff167f90890809c654f11d6e72a28fa60149770a0d11ec6c92319d6ceb2bb0a4ea1a15856040518082815260200191505060405180910390a350505050565b600160009054906101000a900473ffffffffffffffffffffffffffffffffffffffff1681565b6120d261219e565b73ffffffffffffffffffffffffffffffffffffffff1660008054906101000a900473ffffffffffffffffffffffffffffffffffffffff1673ffffffffffffffffffffffffffffffffffffffff1614612192576040517f08c379a00000000000000000000000000000000000000000000000000000000081526004018080602001828103825260208152602001807f4f776e61626c653a2063616c6c6572206973206e6f7420746865206f776e657281525060200191505060405180910390fd5b61219b8161275c565b50565b600033905090565b600080828401905083811015612224576040517f08c379a000000000000000000000000000000000000000000000000000000000815260040180806020018281038252601b8152602001807f536166654d6174683a206164646974696f6e206f766572666c6f77000000000081525060200191505060405180910390fd5b8091505092915050565b60008083141561224157600090506122ae565b600082840290508284828161225257fe5b04146122a9576040517f08c379a0000000000000000000000000000000000000000000000000000000008152600401808060200182810382526021815260200180612dce6021913960400191505060405180910390fd5b809150505b92915050565b60006122f683836040518060400160405280601a81526020017f536166654d6174683a206469766973696f6e206279207a65726f00000000000081525061289f565b905092915050565b600061234083836040518060400160405280601e81526020017f536166654d6174683a207375627472616374696f6e206f766572666c6f770000815250612965565b905092915050565b61242a600560009054906101000a900473ffffffffffffffffffffffffffffffffffffffff1673ffffffffffffffffffffffffffffffffffffffff1663e6d41a8284846040518363ffffffff1660e01b8152600401808373ffffffffffffffffffffffffffffffffffffffff16815260200182815260200192505050602060405180830381600087803b1580156123de57600080fd5b505af11580156123f2573d6000803e3d6000fd5b505050506040513d602081101561240857600080fd5b8101908080519060200190929190505050600a546122fe90919063ffffffff16565b600a819055505050565b6124d18363a9059cbb60e01b8484604051602401808373ffffffffffffffffffffffffffffffffffffffff16815260200182815260200192505050604051602081830303815290604052907bffffffffffffffffffffffffffffffffffffffffffffffffffffffff19166020820180517bffffffffffffffffffffffffffffffffffffffffffffffffffffffff8381831617835250505050612a25565b505050565b60008114806125a4575060008373ffffffffffffffffffffffffffffffffffffffff1663dd62ed3e30856040518363ffffffff1660e01b8152600401808373ffffffffffffffffffffffffffffffffffffffff1681526020018273ffffffffffffffffffffffffffffffffffffffff1681526020019250505060206040518083038186803b15801561256757600080fd5b505afa15801561257b573d6000803e3d6000fd5b505050506040513d602081101561259157600080fd5b8101908080519060200190929190505050145b6125f9576040517f08c379a0000000000000000000000000000000000000000000000000000000008152600401808060200182810382526036815260200180612def6036913960400191505060405180910390fd5b6126968363095ea7b360e01b8484604051602401808373ffffffffffffffffffffffffffffffffffffffff16815260200182815260200192505050604051602081830303815290604052907bffffffffffffffffffffffffffffffffffffffffffffffffffffffff19166020820180517bffffffffffffffffffffffffffffffffffffffffffffffffffffffff8381831617835250505050612a25565b505050565b612756846323b872dd60e01b858585604051602401808473ffffffffffffffffffffffffffffffffffffffff1681526020018373ffffffffffffffffffffffffffffffffffffffff1681526020018281526020019350505050604051602081830303815290604052907bffffffffffffffffffffffffffffffffffffffffffffffffffffffff19166020820180517bffffffffffffffffffffffffffffffffffffffffffffffffffffffff8381831617835250505050612a25565b50505050565b600073ffffffffffffffffffffffffffffffffffffffff168173ffffffffffffffffffffffffffffffffffffffff1614156127e2576040517f08c379a0000000000000000000000000000000000000000000000000000000008152600401808060200182810382526026815260200180612da86026913960400191505060405180910390fd5b8073ffffffffffffffffffffffffffffffffffffffff1660008054906101000a900473ffffffffffffffffffffffffffffffffffffffff1673ffffffffffffffffffffffffffffffffffffffff167f8be0079c531659141344cd1fd0a4f28419497f9722a3daafe3b4186f6b6457e060405160405180910390a3806000806101000a81548173ffffffffffffffffffffffffffffffffffffffff021916908373ffffffffffffffffffffffffffffffffffffffff16021790555050565b6000808311829061294b576040517f08c379a00000000000000000000000000000000000000000000000000000000081526004018080602001828103825283818151815260200191508051906020019080838360005b838110156129105780820151818401526020810190506128f5565b50505050905090810190601f16801561293d5780820380516001836020036101000a031916815260200191505b509250505060405180910390fd5b50600083858161295757fe5b049050809150509392505050565b6000838311158290612a12576040517f08c379a00000000000000000000000000000000000000000000000000000000081526004018080602001828103825283818151815260200191508051906020019080838360005b838110156129d75780820151818401526020810190506129bc565b50505050905090810190601f168015612a045780820380516001836020036101000a031916815260200191505b509250505060405180910390fd5b5060008385039050809150509392505050565b6060612a87826040518060400160405280602081526020017f5361666542455032303a206c6f772d6c6576656c2063616c6c206661696c65648152508573ffffffffffffffffffffffffffffffffffffffff16612b149092919063ffffffff16565b9050600081511115612b0f57808060200190516020811015612aa857600080fd5b8101908080519060200190929190505050612b0e576040517f08c379a000000000000000000000000000000000000000000000000000000000815260040180806020018281038252602a815260200180612d7e602a913960400191505060405180910390fd5b5b505050565b6060612b238484600085612b2c565b90509392505050565b6060612b3785612d32565b612ba9576040517f08c379a000000000000000000000000000000000000000000000000000000000815260040180806020018281038252601d8152602001807f416464726573733a2063616c6c20746f206e6f6e2d636f6e747261637400000081525060200191505060405180910390fd5b600060608673ffffffffffffffffffffffffffffffffffffffff1685876040518082805190602001908083835b60208310612bf95780518252602082019150602081019050602083039250612bd6565b6001836020036101000a03801982511681845116808217855250505050505090500191505060006040518083038185875af1925050503d8060008114612c5b576040519150601f19603f3d011682016040523d82523d6000602084013e612c60565b606091505b50915091508115612c75578092505050612d2a565b600081511115612c885780518082602001fd5b836040517f08c379a00000000000000000000000000000000000000000000000000000000081526004018080602001828103825283818151815260200191508051906020019080838360005b83811015612cef578082015181840152602081019050612cd4565b50505050905090810190601f168015612d1c5780820380516001836020036101000a031916815260200191505b509250505060405180910390fd5b949350505050565b60008060007fc5d2460186f7233c927e7db2dcc703c0e500b653ca82273b7bfad8045d85a47060001b9050833f9150808214158015612d7457506000801b8214155b9250505091905056fe5361666542455032303a204245503230206f7065726174696f6e20646964206e6f7420737563636565644f776e61626c653a206e6577206f776e657220697320746865207a65726f2061646472657373536166654d6174683a206d756c7469706c69636174696f6e206f766572666c6f775361666542455032303a20617070726f76652066726f6d206e6f6e2d7a65726f20746f206e6f6e2d7a65726f20616c6c6f77616e6365a264697066735822122091add6eaa34e1effead5c93b5378ba117689a672faf557c8bfc7ad04511dcedc64736f6c634300060c0033608060405234801561001057600080fd5b506040516108ce3803806108ce8339818101604052602081101561003357600080fd5b8101908080519060200190929190505050806000806101000a81548173ffffffffffffffffffffffffffffffffffffffff021916908373ffffffffffffffffffffffffffffffffffffffff16021790555033600160006101000a81548173ffffffffffffffffffffffffffffffffffffffff021916908373ffffffffffffffffffffffffffffffffffffffff160217905550506107f9806100d56000396000f3fe608060405234801561001057600080fd5b50600436106100415760003560e01c80638da5cb5b14610046578063e5c9ad2e1461007a578063e6d41a82146100ae575b600080fd5b61004e610110565b604051808273ffffffffffffffffffffffffffffffffffffffff16815260200191505060405180910390f35b610082610136565b604051808273ffffffffffffffffffffffffffffffffffffffff16815260200191505060405180910390f35b6100fa600480360360408110156100c457600080fd5b81019080803573ffffffffffffffffffffffffffffffffffffffff1690602001909291908035906020019092919050505061015a565b6040518082815260200191505060405180910390f35b600160009054906101000a900473ffffffffffffffffffffffffffffffffffffffff1681565b60008054906101000a900473ffffffffffffffffffffffffffffffffffffffff1681565b6000600160009054906101000a900473ffffffffffffffffffffffffffffffffffffffff1673ffffffffffffffffffffffffffffffffffffffff163373ffffffffffffffffffffffffffffffffffffffff1614610202576040517f08c379a00000000000000000000000000000000000000000000000000000000081526004018080602001828103825260248152602001806107a06024913960400191505060405180910390fd5b60008060009054906101000a900473ffffffffffffffffffffffffffffffffffffffff1673ffffffffffffffffffffffffffffffffffffffff166370a08231306040518263ffffffff1660e01b8152600401808273ffffffffffffffffffffffffffffffffffffffff16815260200191505060206040518083038186803b15801561028c57600080fd5b505afa1580156102a0573d6000803e3d6000fd5b505050506040513d60208110156102b657600080fd5b81019080805190602001909291905050509050808311156103255761031c848260008054906101000a900473ffffffffffffffffffffffffffffffffffffffff1673ffffffffffffffffffffffffffffffffffffffff1661037b9092919063ffffffff16565b80915050610375565b610370848460008054906101000a900473ffffffffffffffffffffffffffffffffffffffff1673ffffffffffffffffffffffffffffffffffffffff1661037b9092919063ffffffff16565b829150505b92915050565b6104188363a9059cbb60e01b8484604051602401808373ffffffffffffffffffffffffffffffffffffffff16815260200182815260200192505050604051602081830303815290604052907bffffffffffffffffffffffffffffffffffffffffffffffffffffffff19166020820180517bffffffffffffffffffffffffffffffffffffffffffffffffffffffff838183161783525050505061041d565b505050565b606061047f826040518060400160405280602081526020017f5361666542455032303a206c6f772d6c6576656c2063616c6c206661696c65648152508573ffffffffffffffffffffffffffffffffffffffff1661050c9092919063ffffffff16565b9050600081511115610507578080602001905160208110156104a057600080fd5b8101908080519060200190929190505050610506576040517f08c379a000000000000000000000000000000000000000000000000000000000815260040180806020018281038252602a815260200180610776602a913960400191505060405180910390fd5b5b505050565b606061051b8484600085610524565b90509392505050565b606061052f8561072a565b6105a1576040517f08c379a000000000000000000000000000000000000000000000000000000000815260040180806020018281038252601d8152602001807f416464726573733a2063616c6c20746f206e6f6e2d636f6e747261637400000081525060200191505060405180910390fd5b600060608673ffffffffffffffffffffffffffffffffffffffff1685876040518082805190602001908083835b602083106105f157805182526020820191506020810190506020830392506105ce565b6001836020036101000a03801982511681845116808217855250505050505090500191505060006040518083038185875af1925050503d8060008114610653576040519150601f19603f3d011682016040523d82523d6000602084013e610658565b606091505b5091509150811561066d578092505050610722565b6000815111156106805780518082602001fd5b836040517f08c379a00000000000000000000000000000000000000000000000000000000081526004018080602001828103825283818151815260200191508051906020019080838360005b838110156106e75780820151818401526020810190506106cc565b50505050905090810190601f1680156107145780820380516001836020036101000a031916815260200191505b509250505060405180910390fd5b949350505050565b60008060007fc5d2460186f7233c927e7db2dcc703c0e500b653ca82273b7bfad8045d85a47060001b9050833f915080821415801561076c57506000801b8214155b9250505091905056fe5361666542455032303a204245503230206f7065726174696f6e20646964206e6f74207375636365656457616c6c65743a204f6e6c79204d6173746572507265642063616e207472616e73666572a2646970667358221220b18acefbc3daf30c82f8adfdc33cfd5db8a801d326dcc5a492c781d7b6b2f63564736f6c634300060c0033",
  "linkReferences": {},
  "deployedLinkReferences": {}
}