{
  "_format": "hh-sol-artifact-1",
  "contractName": "MasterPred",
  "sourceName": "contracts/Farm.sol",
  "abi": [
    {
      "anonymous": false,
      "inputs": [
        {
          "indexed": false,
          "internalType": "address",
          "name": "previousAdmin",
          "type": "address"
        },
        {
          "indexed": false,
          "internalType": "address",
          "name": "newAdmin",
          "type": "address"
        }
      ],
      "name": "AdminChanged",
      "type": "event"
    },
    {
      "anonymous": false,
      "inputs": [
        {
          "indexed": true,
          "internalType": "address",
          "name": "beacon",
          "type": "address"
        }
      ],
      "name": "BeaconUpgraded",
      "type": "event"
    },
    {
      "anonymous": false,
      "inputs": [
        {
          "indexed": true,
          "internalType": "address",
          "name": "user",
          "type": "address"
        },
        {
          "indexed": true,
          "internalType": "uint256",
          "name": "pid",
          "type": "uint256"
        },
        {
          "indexed": false,
          "internalType": "uint256",
          "name": "amount",
          "type": "uint256"
        }
      ],
      "name": "Deposit",
      "type": "event"
    },
    {
      "anonymous": false,
      "inputs": [
        {
          "indexed": true,
          "internalType": "address",
          "name": "user",
          "type": "address"
        },
        {
          "indexed": true,
          "internalType": "uint256",
          "name": "pid",
          "type": "uint256"
        },
        {
          "indexed": false,
          "internalType": "uint256",
          "name": "amount",
          "type": "uint256"
        }
      ],
      "name": "EmergencyWithdraw",
      "type": "event"
    },
    {
      "anonymous": false,
      "inputs": [
        {
          "indexed": true,
          "internalType": "address",
          "name": "previousOwner",
          "type": "address"
        },
        {
          "indexed": true,
          "internalType": "address",
          "name": "newOwner",
          "type": "address"
        }
      ],
      "name": "OwnershipTransferred",
      "type": "event"
    },
    {
      "anonymous": false,
      "inputs": [
        {
          "indexed": true,
          "internalType": "address",
          "name": "implementation",
          "type": "address"
        }
      ],
      "name": "Upgraded",
      "type": "event"
    },
    {
      "anonymous": false,
      "inputs": [
        {
          "indexed": true,
          "internalType": "address",
          "name": "user",
          "type": "address"
        },
        {
          "indexed": true,
          "internalType": "uint256",
          "name": "pid",
          "type": "uint256"
        },
        {
          "indexed": false,
          "internalType": "uint256",
          "name": "amount",
          "type": "uint256"
        }
      ],
      "name": "Withdraw",
      "type": "event"
    },
    {
      "inputs": [],
      "name": "BONUS_MULTIPLIER",
      "outputs": [
        {
          "internalType": "uint256",
          "name": "",
          "type": "uint256"
        }
      ],
      "stateMutability": "view",
      "type": "function"
    },
    {
      "inputs": [
        {
          "internalType": "uint256",
          "name": "_allocPoint",
          "type": "uint256"
        },
        {
          "internalType": "contract IBEP20",
          "name": "_lpToken",
          "type": "address"
        },
        {
          "internalType": "bool",
          "name": "_withUpdate",
          "type": "bool"
        }
      ],
      "name": "add",
      "outputs": [],
      "stateMutability": "nonpayable",
      "type": "function"
    },
    {
      "inputs": [
        {
          "internalType": "uint256",
          "name": "_pid",
          "type": "uint256"
        },
        {
          "internalType": "uint256",
          "name": "_amount",
          "type": "uint256"
        }
      ],
      "name": "deposit",
      "outputs": [],
      "stateMutability": "nonpayable",
      "type": "function"
    },
    {
      "inputs": [
        {
          "internalType": "uint256",
          "name": "_pid",
          "type": "uint256"
        }
      ],
      "name": "emergencyWithdraw",
      "outputs": [],
      "stateMutability": "nonpayable",
      "type": "function"
    },
    {
      "inputs": [
        {
          "internalType": "uint256",
          "name": "_from",
          "type": "uint256"
        },
        {
          "internalType": "uint256",
          "name": "_to",
          "type": "uint256"
        }
      ],
      "name": "getMultiplier",
      "outputs": [
        {
          "internalType": "uint256",
          "name": "",
          "type": "uint256"
        }
      ],
      "stateMutability": "view",
      "type": "function"
    },
    {
      "inputs": [
        {
          "internalType": "contract IBEP20",
          "name": "_pred",
          "type": "address"
        },
        {
          "internalType": "uint256",
          "name": "_predPerBlock",
          "type": "uint256"
        },
        {
          "internalType": "uint256",
          "name": "_startBlock",
          "type": "uint256"
        }
      ],
      "name": "initialize",
      "outputs": [],
      "stateMutability": "nonpayable",
      "type": "function"
    },
    {
      "inputs": [],
      "name": "massUpdatePools",
      "outputs": [],
      "stateMutability": "nonpayable",
      "type": "function"
    },
    {
      "inputs": [
        {
          "internalType": "uint256",
          "name": "_pid",
          "type": "uint256"
        }
      ],
      "name": "migrate",
      "outputs": [],
      "stateMutability": "nonpayable",
      "type": "function"
    },
    {
      "inputs": [],
      "name": "migrator",
      "outputs": [
        {
          "internalType": "contract IMigratorChef",
          "name": "",
          "type": "address"
        }
      ],
      "stateMutability": "view",
      "type": "function"
    },
    {
      "inputs": [],
      "name": "owner",
      "outputs": [
        {
          "internalType": "address",
          "name": "",
          "type": "address"
        }
      ],
      "stateMutability": "view",
      "type": "function"
    },
    {
      "inputs": [
        {
          "internalType": "uint256",
          "name": "_pid",
          "type": "uint256"
        },
        {
          "internalType": "address",
          "name": "_user",
          "type": "address"
        }
      ],
      "name": "pendingPred",
      "outputs": [
        {
          "internalType": "uint256",
          "name": "",
          "type": "uint256"
        }
      ],
      "stateMutability": "view",
      "type": "function"
    },
    {
      "inputs": [
        {
          "internalType": "uint256",
          "name": "",
          "type": "uint256"
        }
      ],
      "name": "poolInfo",
      "outputs": [
        {
          "internalType": "contract IBEP20",
          "name": "lpToken",
          "type": "address"
        },
        {
          "internalType": "uint256",
          "name": "allocPoint",
          "type": "uint256"
        },
        {
          "internalType": "uint256",
          "name": "lastRewardBlock",
          "type": "uint256"
        },
        {
          "internalType": "uint256",
          "name": "accPredPerShare",
          "type": "uint256"
        }
      ],
      "stateMutability": "view",
      "type": "function"
    },
    {
      "inputs": [],
      "name": "poolLength",
      "outputs": [
        {
          "internalType": "uint256",
          "name": "",
          "type": "uint256"
        }
      ],
      "stateMutability": "view",
      "type": "function"
    },
    {
      "inputs": [],
      "name": "pred",
      "outputs": [
        {
          "internalType": "contract IBEP20",
          "name": "",
          "type": "address"
        }
      ],
      "stateMutability": "view",
      "type": "function"
    },
    {
      "inputs": [],
      "name": "predPerBlock",
      "outputs": [
        {
          "internalType": "uint256",
          "name": "",
          "type": "uint256"
        }
      ],
      "stateMutability": "view",
      "type": "function"
    },
    {
      "inputs": [],
      "name": "renounceOwnership",
      "outputs": [],
      "stateMutability": "nonpayable",
      "type": "function"
    },
    {
      "inputs": [
        {
          "internalType": "uint256",
          "name": "_pid",
          "type": "uint256"
        },
        {
          "internalType": "uint256",
          "name": "_allocPoint",
          "type": "uint256"
        },
        {
          "internalType": "bool",
          "name": "_withUpdate",
          "type": "bool"
        }
      ],
      "name": "set",
      "outputs": [],
      "stateMutability": "nonpayable",
      "type": "function"
    },
    {
      "inputs": [
        {
          "internalType": "contract IMigratorChef",
          "name": "_migrator",
          "type": "address"
        }
      ],
      "name": "setMigrator",
      "outputs": [],
      "stateMutability": "nonpayable",
      "type": "function"
    },
    {
      "inputs": [],
      "name": "startBlock",
      "outputs": [
        {
          "internalType": "uint256",
          "name": "",
          "type": "uint256"
        }
      ],
      "stateMutability": "view",
      "type": "function"
    },
    {
      "inputs": [],
      "name": "totalAllocPoint",
      "outputs": [
        {
          "internalType": "uint256",
          "name": "",
          "type": "uint256"
        }
      ],
      "stateMutability": "view",
      "type": "function"
    },
    {
      "inputs": [],
      "name": "totalRewardDebt",
      "outputs": [
        {
          "internalType": "uint256",
          "name": "",
          "type": "uint256"
        }
      ],
      "stateMutability": "view",
      "type": "function"
    },
    {
      "inputs": [
        {
          "internalType": "address",
          "name": "newOwner",
          "type": "address"
        }
      ],
      "name": "transferOwnership",
      "outputs": [],
      "stateMutability": "nonpayable",
      "type": "function"
    },
    {
      "inputs": [
        {
          "internalType": "uint256",
          "name": "multiplierNumber",
          "type": "uint256"
        }
      ],
      "name": "updateMultiplier",
      "outputs": [],
      "stateMutability": "nonpayable",
      "type": "function"
    },
    {
      "inputs": [
        {
          "internalType": "uint256",
          "name": "_pid",
          "type": "uint256"
        }
      ],
      "name": "updatePool",
      "outputs": [],
      "stateMutability": "nonpayable",
      "type": "function"
    },
    {
      "inputs": [
        {
          "internalType": "address",
          "name": "newImplementation",
          "type": "address"
        }
      ],
      "name": "upgradeTo",
      "outputs": [],
      "stateMutability": "nonpayable",
      "type": "function"
    },
    {
      "inputs": [
        {
          "internalType": "address",
          "name": "newImplementation",
          "type": "address"
        },
        {
          "internalType": "bytes",
          "name": "data",
          "type": "bytes"
        }
      ],
      "name": "upgradeToAndCall",
      "outputs": [],
      "stateMutability": "payable",
      "type": "function"
    },
    {
      "inputs": [
        {
          "internalType": "uint256",
          "name": "",
          "type": "uint256"
        },
        {
          "internalType": "address",
          "name": "",
          "type": "address"
        }
      ],
      "name": "userInfo",
      "outputs": [
        {
          "internalType": "uint256",
          "name": "amount",
          "type": "uint256"
        },
        {
          "internalType": "uint256",
          "name": "rewardDebt",
          "type": "uint256"
        }
      ],
      "stateMutability": "view",
      "type": "function"
    },
    {
      "inputs": [],
      "name": "wallet",
      "outputs": [
        {
          "internalType": "contract MasterPredWallet",
          "name": "",
          "type": "address"
        }
      ],
      "stateMutability": "view",
      "type": "function"
    },
    {
      "inputs": [
        {
          "internalType": "uint256",
          "name": "_pid",
          "type": "uint256"
        },
        {
          "internalType": "uint256",
          "name": "_amount",
          "type": "uint256"
        }
      ],
      "name": "withdraw",
      "outputs": [],
      "stateMutability": "nonpayable",
      "type": "function"
    }
  ],
  "bytecode": "0x608060405234801561001057600080fd5b506152be806100206000396000f3fe608060405260043610620001ee5760003560e01c80635ffe6146116200010f57806383bb387711620000a357806393f1a40b116200006d57806393f1a40b1462000692578063e2bbb15814620006d7578063e5c9ad2e1462000705578063f2fde38b146200073557620001ee565b806383bb387714620005be5780638aa2855014620005ee5780638da5cb5b146200061e5780638dbb1e3a146200064e57620001ee565b80636450b8a911620000e55780636450b8a91462000502578063715018a614620005465780637a1ac61e14620005605780637cd07e47146200058e57620001ee565b80635ffe6146146200048c578063630b5ba114620004ba57806364482f7914620004d457620001ee565b8063441a3e7011620001875780634f1ef286116200015d5780634f1ef28614620003e057806351eb05a61462000400578063521eb273146200042e5780635312ea8e146200045e57620001ee565b8063441a3e701462000354578063454b0608146200038257806348cd4cb114620003b057620001ee565b80631eaaa04511620001c95780631eaaa045146200029a5780631fc7be8914620002c857806323cf311814620002f85780633659cfe6146200032657620001ee565b8063081e3eda14620001f35780631526fe27146200022357806317caf6f1146200026a575b600080fd5b3480156200020057600080fd5b506200020b62000763565b6040516200021a919062003d50565b60405180910390f35b3480156200023057600080fd5b506200024f6004803603810190620002499190620035b3565b62000770565b60405162000261949392919062003aeb565b60405180910390f35b3480156200027757600080fd5b5062000282620007d1565b60405162000291919062003d50565b60405180910390f35b348015620002a757600080fd5b50620002c66004803603810190620002c091906200364c565b620007d7565b005b348015620002d557600080fd5b50620002e062000972565b604051620002ef919062003d50565b60405180910390f35b3480156200030557600080fd5b506200032460048036038101906200031e919062003587565b62000978565b005b3480156200033357600080fd5b506200035260048036038101906200034c919062003453565b62000a3f565b005b3480156200036157600080fd5b506200038060048036038101906200037a9190620036a2565b62000a6a565b005b3480156200038f57600080fd5b50620003ae6004803603810190620003a89190620035b3565b62000cdc565b005b348015620003bd57600080fd5b50620003c86200109d565b604051620003d7919062003d50565b60405180910390f35b620003fe6004803603810190620003f891906200347f565b620010a3565b005b3480156200040d57600080fd5b506200042c6004803603810190620004269190620035b3565b620010c0565b005b3480156200043b57600080fd5b5062000446620013c5565b60405162000455919062003b55565b60405180910390f35b3480156200046b57600080fd5b506200048a6004803603810190620004849190620035b3565b620013eb565b005b3480156200049957600080fd5b50620004b86004803603810190620004b29190620035b3565b62001579565b005b348015620004c757600080fd5b50620004d262001606565b005b348015620004e157600080fd5b50620005006004803603810190620004fa9190620036e3565b6200163f565b005b3480156200050f57600080fd5b506200052e60048036038101906200052891906200360b565b620017b6565b6040516200053d919062003d50565b60405180910390f35b3480156200055357600080fd5b506200055e62001b27565b005b3480156200056d57600080fd5b506200058c600480360381019062000586919062003531565b62001bb8565b005b3480156200059b57600080fd5b50620005a662001e49565b604051620005b5919062003b38565b60405180910390f35b348015620005cb57600080fd5b50620005d662001e6f565b604051620005e5919062003d50565b60405180910390f35b348015620005fb57600080fd5b506200060662001e75565b60405162000615919062003d50565b60405180910390f35b3480156200062b57600080fd5b506200063662001e7b565b60405162000645919062003a1a565b60405180910390f35b3480156200065b57600080fd5b506200067a6004803603810190620006749190620036a2565b62001ea5565b60405162000689919062003d50565b60405180910390f35b3480156200069f57600080fd5b50620006be6004803603810190620006b891906200360b565b62001eda565b604051620006ce92919062003d6d565b60405180910390f35b348015620006e457600080fd5b50620007036004803603810190620006fd9190620036a2565b62001f0b565b005b3480156200071257600080fd5b506200071d620022c2565b6040516200072c919062003ace565b60405180910390f35b3480156200074257600080fd5b506200076160048036038101906200075b919062003453565b620022e8565b005b600060ce80549050905090565b60ce81815481106200078157600080fd5b90600052602060002090600402016000915090508060000160009054906101000a900473ffffffffffffffffffffffffffffffffffffffff16908060010154908060020154908060030154905084565b60d05481565b620007e1620023ec565b73ffffffffffffffffffffffffffffffffffffffff166200080162001e7b565b73ffffffffffffffffffffffffffffffffffffffff16146200085a576040517f08c379a0000000000000000000000000000000000000000000000000000000008152600401620008519062003c40565b60405180910390fd5b80156200086c576200086b62001606565b5b600060d1544311620008815760d15462000883565b435b90506200089c8460d054620023f490919063ffffffff16565b60d08190555060ce60405180608001604052808573ffffffffffffffffffffffffffffffffffffffff1681526020018681526020018381526020016000815250908060018154018082558091505060019003906000526020600020906004020160009091909190915060008201518160000160006101000a81548173ffffffffffffffffffffffffffffffffffffffff021916908373ffffffffffffffffffffffffffffffffffffffff160217905550602082015181600101556040820151816002015560608201518160030155505050505050565b60ca5481565b62000982620023ec565b73ffffffffffffffffffffffffffffffffffffffff16620009a262001e7b565b73ffffffffffffffffffffffffffffffffffffffff1614620009fb576040517f08c379a0000000000000000000000000000000000000000000000000000000008152600401620009f29062003c40565b60405180910390fd5b8060cc60006101000a81548173ffffffffffffffffffffffffffffffffffffffff021916908373ffffffffffffffffffffffffffffffffffffffff16021790555050565b62000a4a816200240c565b62000a678160405180602001604052806000815250600062002492565b50565b600060ce838154811062000aa7577f4e487b7100000000000000000000000000000000000000000000000000000000600052603260045260246000fd5b90600052602060002090600402019050600060cf600085815260200190815260200160002060003373ffffffffffffffffffffffffffffffffffffffff1673ffffffffffffffffffffffffffffffffffffffff1681526020019081526020016000209050828160000154101562000b55576040517f08c379a000000000000000000000000000000000000000000000000000000000815260040162000b4c9062003ca6565b60405180910390fd5b62000b6084620010c0565b600062000bb0826001015462000ba164e8d4a5100062000b92876003015487600001546200267990919063ffffffff16565b6200269190919063ffffffff16565b620026a990919063ffffffff16565b9050600081111562000bc95762000bc83382620026c1565b5b600084111562000c465762000bec848360000154620026a990919063ffffffff16565b826000018190555062000c4533858560000160009054906101000a900473ffffffffffffffffffffffffffffffffffffffff1673ffffffffffffffffffffffffffffffffffffffff16620027969092919063ffffffff16565b5b62000c7c64e8d4a5100062000c6d856003015485600001546200267990919063ffffffff16565b6200269190919063ffffffff16565b8260010181905550843373ffffffffffffffffffffffffffffffffffffffff167ff279e6a1f5e320cca91135676d9cb6e44ca8a08c0b88342bcdb1144f6511b5688660405162000ccd919062003d50565b60405180910390a35050505050565b600073ffffffffffffffffffffffffffffffffffffffff1660cc60009054906101000a900473ffffffffffffffffffffffffffffffffffffffff1673ffffffffffffffffffffffffffffffffffffffff16141562000d71576040517f08c379a000000000000000000000000000000000000000000000000000000000815260040162000d689062003d2e565b60405180910390fd5b600060ce828154811062000dae577f4e487b7100000000000000000000000000000000000000000000000000000000600052603260045260246000fd5b9060005260206000209060040201905060008160000160009054906101000a900473ffffffffffffffffffffffffffffffffffffffff16905060008173ffffffffffffffffffffffffffffffffffffffff166370a08231306040518263ffffffff1660e01b815260040162000e24919062003a1a565b60206040518083038186803b15801562000e3d57600080fd5b505afa15801562000e52573d6000803e3d6000fd5b505050506040513d601f19601f8201168201806040525081019062000e789190620035df565b905062000ec960cc60009054906101000a900473ffffffffffffffffffffffffffffffffffffffff16828473ffffffffffffffffffffffffffffffffffffffff16620028209092919063ffffffff16565b600060cc60009054906101000a900473ffffffffffffffffffffffffffffffffffffffff1673ffffffffffffffffffffffffffffffffffffffff1663ce5494bb846040518263ffffffff1660e01b815260040162000f28919062003ace565b602060405180830381600087803b15801562000f4357600080fd5b505af115801562000f58573d6000803e3d6000fd5b505050506040513d601f19601f8201168201806040525081019062000f7e919062003505565b90508073ffffffffffffffffffffffffffffffffffffffff166370a08231306040518263ffffffff1660e01b815260040162000fbb919062003a1a565b60206040518083038186803b15801562000fd457600080fd5b505afa15801562000fe9573d6000803e3d6000fd5b505050506040513d601f19601f820116820180604052508101906200100f9190620035df565b821462001053576040517f08c379a00000000000000000000000000000000000000000000000000000000081526004016200104a9062003cea565b60405180910390fd5b808460000160006101000a81548173ffffffffffffffffffffffffffffffffffffffff021916908373ffffffffffffffffffffffffffffffffffffffff1602179055505050505050565b60d15481565b620010ae826200240c565b620010bc8282600162002492565b5050565b600060ce8281548110620010fd577f4e487b7100000000000000000000000000000000000000000000000000000000600052603260045260246000fd5b9060005260206000209060040201905080600201544311620011205750620013c2565b60008160000160009054906101000a900473ffffffffffffffffffffffffffffffffffffffff1673ffffffffffffffffffffffffffffffffffffffff166370a08231306040518263ffffffff1660e01b815260040162001181919062003a1a565b60206040518083038186803b1580156200119a57600080fd5b505afa158015620011af573d6000803e3d6000fd5b505050506040513d601f19601f82011682018060405250810190620011d59190620035df565b90506000811415620011f2574382600201819055505050620013c2565b60006200120483600201544362001ea5565b905060006200124d60d0546200123e86600101546200122f60ca54876200267990919063ffffffff16565b6200267990919063ffffffff16565b6200269190919063ffffffff16565b905060006200133a60d25460c960009054906101000a900473ffffffffffffffffffffffffffffffffffffffff1673ffffffffffffffffffffffffffffffffffffffff166370a0823160cd60009054906101000a900473ffffffffffffffffffffffffffffffffffffffff166040518263ffffffff1660e01b8152600401620012d7919062003a1a565b60206040518083038186803b158015620012f057600080fd5b505afa15801562001305573d6000803e3d6000fd5b505050506040513d601f19601f820116820180604052508101906200132b9190620035df565b620026a990919063ffffffff16565b905080821062001348578091505b6200138e6200137a856200136b64e8d4a51000866200267990919063ffffffff16565b6200269190919063ffffffff16565b8660030154620023f490919063ffffffff16565b8560030181905550620013ad8260d254620023f490919063ffffffff16565b60d28190555043856002018190555050505050505b50565b60cd60009054906101000a900473ffffffffffffffffffffffffffffffffffffffff1681565b600060ce828154811062001428577f4e487b7100000000000000000000000000000000000000000000000000000000600052603260045260246000fd5b90600052602060002090600402019050600060cf600084815260200190815260200160002060003373ffffffffffffffffffffffffffffffffffffffff1673ffffffffffffffffffffffffffffffffffffffff1681526020019081526020016000209050600081600001549050600082600001819055506000826001018190555060d2548111620014d157620014ca8160d254620026a990919063ffffffff16565b60d2819055505b6200152233828560000160009054906101000a900473ffffffffffffffffffffffffffffffffffffffff1673ffffffffffffffffffffffffffffffffffffffff16620027969092919063ffffffff16565b833373ffffffffffffffffffffffffffffffffffffffff167fbb757047c2b5f3974fe26b7c10f732e7bce710b0952a71082702781e62ae0595836040516200156b919062003d50565b60405180910390a350505050565b62001583620023ec565b73ffffffffffffffffffffffffffffffffffffffff16620015a362001e7b565b73ffffffffffffffffffffffffffffffffffffffff1614620015fc576040517f08c379a0000000000000000000000000000000000000000000000000000000008152600401620015f39062003c40565b60405180910390fd5b8060cb8190555050565b600060ce80549050905060005b818110156200163b576200162781620010c0565b806200163390620040c1565b905062001613565b5050565b62001649620023ec565b73ffffffffffffffffffffffffffffffffffffffff166200166962001e7b565b73ffffffffffffffffffffffffffffffffffffffff1614620016c2576040517f08c379a0000000000000000000000000000000000000000000000000000000008152600401620016b99062003c40565b60405180910390fd5b8015620016d457620016d362001606565b5b600060ce848154811062001711577f4e487b7100000000000000000000000000000000000000000000000000000000600052603260045260246000fd5b90600052602060002090600402016001015490508260ce858154811062001761577f4e487b7100000000000000000000000000000000000000000000000000000000600052603260045260246000fd5b906000526020600020906004020160010181905550828114620017b057620017a9836200179a8360d054620026a990919063ffffffff16565b620023f490919063ffffffff16565b60d0819055505b50505050565b60008060ce8481548110620017f4577f4e487b7100000000000000000000000000000000000000000000000000000000600052603260045260246000fd5b90600052602060002090600402019050600060cf600086815260200190815260200160002060008573ffffffffffffffffffffffffffffffffffffffff1673ffffffffffffffffffffffffffffffffffffffff168152602001908152602001600020905060008260030154905060008360000160009054906101000a900473ffffffffffffffffffffffffffffffffffffffff1673ffffffffffffffffffffffffffffffffffffffff166370a08231306040518263ffffffff1660e01b8152600401620018c2919062003a1a565b60206040518083038186803b158015620018db57600080fd5b505afa158015620018f0573d6000803e3d6000fd5b505050506040513d601f19601f82011682018060405250810190620019169190620035df565b90508360020154431180156200192d575060008114155b1562001ad15760006200194585600201544362001ea5565b905060006200198e60d0546200197f88600101546200197060ca54876200267990919063ffffffff16565b6200267990919063ffffffff16565b6200269190919063ffffffff16565b9050600062001a7b60d25460c960009054906101000a900473ffffffffffffffffffffffffffffffffffffffff1673ffffffffffffffffffffffffffffffffffffffff166370a0823160cd60009054906101000a900473ffffffffffffffffffffffffffffffffffffffff166040518263ffffffff1660e01b815260040162001a18919062003a1a565b60206040518083038186803b15801562001a3157600080fd5b505afa15801562001a46573d6000803e3d6000fd5b505050506040513d601f19601f8201168201806040525081019062001a6c9190620035df565b620026a990919063ffffffff16565b905080821062001a89578091505b62001acb62001abb8562001aac64e8d4a51000866200267990919063ffffffff16565b6200269190919063ffffffff16565b86620023f490919063ffffffff16565b94505050505b62001b1b836001015462001b0c64e8d4a5100062001afd8688600001546200267990919063ffffffff16565b6200269190919063ffffffff16565b620026a990919063ffffffff16565b94505050505092915050565b62001b31620023ec565b73ffffffffffffffffffffffffffffffffffffffff1662001b5162001e7b565b73ffffffffffffffffffffffffffffffffffffffff161462001baa576040517f08c379a000000000000000000000000000000000000000000000000000000000815260040162001ba19062003c40565b60405180910390fd5b62001bb660006200298c565b565b600060019054906101000a900460ff168062001bdf575060008054906101000a900460ff16155b62001c21576040517f08c379a000000000000000000000000000000000000000000000000000000000815260040162001c189062003bfc565b60405180910390fd5b60008060019054906101000a900460ff16159050801562001c72576001600060016101000a81548160ff02191690831515021790555060016000806101000a81548160ff0219169083151502179055505b62001c7c62002a52565b8360c960006101000a81548173ffffffffffffffffffffffffffffffffffffffff021916908373ffffffffffffffffffffffffffffffffffffffff1602179055508260ca819055508160d1819055508360405162001cda906200331b565b62001ce6919062003ace565b604051809103906000f08015801562001d03573d6000803e3d6000fd5b5060cd60006101000a81548173ffffffffffffffffffffffffffffffffffffffff021916908373ffffffffffffffffffffffffffffffffffffffff16021790555060ce60405180608001604052808673ffffffffffffffffffffffffffffffffffffffff16815260200160c8815260200160d15481526020016000815250908060018154018082558091505060019003906000526020600020906004020160009091909190915060008201518160000160006101000a81548173ffffffffffffffffffffffffffffffffffffffff021916908373ffffffffffffffffffffffffffffffffffffffff1602179055506020820151816001015560408201518160020155606082015181600301555050600160cb8190555060c860d081905550801562001e435760008060016101000a81548160ff0219169083151502179055505b50505050565b60cc60009054906101000a900473ffffffffffffffffffffffffffffffffffffffff1681565b60d25481565b60cb5481565b6000609760009054906101000a900473ffffffffffffffffffffffffffffffffffffffff16905090565b600062001ed260cb5462001ec38585620026a990919063ffffffff16565b6200267990919063ffffffff16565b905092915050565b60cf602052816000526040600020602052806000526040600020600091509150508060000154908060010154905082565b600060ce838154811062001f48577f4e487b7100000000000000000000000000000000000000000000000000000000600052603260045260246000fd5b90600052602060002090600402019050600060cf600085815260200190815260200160002060003373ffffffffffffffffffffffffffffffffffffffff1673ffffffffffffffffffffffffffffffffffffffff168152602001908152602001600020905062001fb784620010c0565b600081600001541115620020305760006200201582600101546200200664e8d4a5100062001ff7876003015487600001546200267990919063ffffffff16565b6200269190919063ffffffff16565b620026a990919063ffffffff16565b905060008111156200202e576200202d3382620026c1565b5b505b60008311156200222d5760008260000160009054906101000a900473ffffffffffffffffffffffffffffffffffffffff1673ffffffffffffffffffffffffffffffffffffffff166370a08231306040518263ffffffff1660e01b81526004016200209b919062003a1a565b60206040518083038186803b158015620020b457600080fd5b505afa158015620020c9573d6000803e3d6000fd5b505050506040513d601f19601f82011682018060405250810190620020ef9190620035df565b9050620021443330868660000160009054906101000a900473ffffffffffffffffffffffffffffffffffffffff1673ffffffffffffffffffffffffffffffffffffffff1662002b45909392919063ffffffff16565b620022236200220f828560000160009054906101000a900473ffffffffffffffffffffffffffffffffffffffff1673ffffffffffffffffffffffffffffffffffffffff166370a08231306040518263ffffffff1660e01b8152600401620021ac919062003a1a565b60206040518083038186803b158015620021c557600080fd5b505afa158015620021da573d6000803e3d6000fd5b505050506040513d601f19601f82011682018060405250810190620022009190620035df565b620026a990919063ffffffff16565b8360000154620023f490919063ffffffff16565b8260000181905550505b6200226364e8d4a5100062002254846003015484600001546200267990919063ffffffff16565b6200269190919063ffffffff16565b8160010181905550833373ffffffffffffffffffffffffffffffffffffffff167f90890809c654f11d6e72a28fa60149770a0d11ec6c92319d6ceb2bb0a4ea1a1585604051620022b4919062003d50565b60405180910390a350505050565b60c960009054906101000a900473ffffffffffffffffffffffffffffffffffffffff1681565b620022f2620023ec565b73ffffffffffffffffffffffffffffffffffffffff166200231262001e7b565b73ffffffffffffffffffffffffffffffffffffffff16146200236b576040517f08c379a0000000000000000000000000000000000000000000000000000000008152600401620023629062003c40565b60405180910390fd5b600073ffffffffffffffffffffffffffffffffffffffff168173ffffffffffffffffffffffffffffffffffffffff161415620023de576040517f08c379a0000000000000000000000000000000000000000000000000000000008152600401620023d59062003bb8565b60405180910390fd5b620023e9816200298c565b50565b600033905090565b6000818362002404919062003e2b565b905092915050565b62002416620023ec565b73ffffffffffffffffffffffffffffffffffffffff166200243662001e7b565b73ffffffffffffffffffffffffffffffffffffffff16146200248f576040517f08c379a0000000000000000000000000000000000000000000000000000000008152600401620024869062003c40565b60405180910390fd5b50565b60006200249e62002bd2565b9050620024ab8462002c2b565b600083511180620024b95750815b15620024cd57620024cb848462002ceb565b505b6000620024fd7f4910fdfa16fed3260ed0e7147f7cc6da11a60208b5b9406d12a635614ffd914360001b62002ddb565b90508060000160009054906101000a900460ff16620026725760018160000160006101000a81548160ff021916908315150217905550620025ce85836040516024016200254b919062003a1a565b6040516020818303038152906040527f3659cfe6000000000000000000000000000000000000000000000000000000007bffffffffffffffffffffffffffffffffffffffffffffffffffffffff19166020820180517bffffffffffffffffffffffffffffffffffffffffffffffffffffffff838183161783525050505062002ceb565b5060008160000160006101000a81548160ff021916908315150217905550620025f662002bd2565b73ffffffffffffffffffffffffffffffffffffffff168273ffffffffffffffffffffffffffffffffffffffff161462002666576040517f08c379a00000000000000000000000000000000000000000000000000000000081526004016200265d9062003b96565b60405180910390fd5b620026718562002de5565b5b5050505050565b6000818362002689919062003ec0565b905092915050565b60008183620026a1919062003e88565b905092915050565b60008183620026b9919062003f21565b905092915050565b6200278c60cd60009054906101000a900473ffffffffffffffffffffffffffffffffffffffff1673ffffffffffffffffffffffffffffffffffffffff1663e6d41a8284846040518363ffffffff1660e01b81526004016200272492919062003aa1565b602060405180830381600087803b1580156200273f57600080fd5b505af115801562002754573d6000803e3d6000fd5b505050506040513d601f19601f820116820180604052508101906200277a9190620035df565b60d254620026a990919063ffffffff16565b60d2819055505050565b6200281b8363a9059cbb60e01b8484604051602401620027b892919062003aa1565b604051602081830303815290604052907bffffffffffffffffffffffffffffffffffffffffffffffffffffffff19166020820180517bffffffffffffffffffffffffffffffffffffffffffffffffffffffff838183161783525050505062002e36565b505050565b6000811480620028c0575060008373ffffffffffffffffffffffffffffffffffffffff1663dd62ed3e30856040518363ffffffff1660e01b81526004016200286a92919062003a37565b60206040518083038186803b1580156200288357600080fd5b505afa15801562002898573d6000803e3d6000fd5b505050506040513d601f19601f82011682018060405250810190620028be9190620035df565b145b62002902576040517f08c379a0000000000000000000000000000000000000000000000000000000008152600401620028f99062003d0c565b60405180910390fd5b620029878363095ea7b360e01b84846040516024016200292492919062003aa1565b604051602081830303815290604052907bffffffffffffffffffffffffffffffffffffffffffffffffffffffff19166020820180517bffffffffffffffffffffffffffffffffffffffffffffffffffffffff838183161783525050505062002e36565b505050565b6000609760009054906101000a900473ffffffffffffffffffffffffffffffffffffffff16905081609760006101000a81548173ffffffffffffffffffffffffffffffffffffffff021916908373ffffffffffffffffffffffffffffffffffffffff1602179055508173ffffffffffffffffffffffffffffffffffffffff168173ffffffffffffffffffffffffffffffffffffffff167f8be0079c531659141344cd1fd0a4f28419497f9722a3daafe3b4186f6b6457e060405160405180910390a35050565b600060019054906101000a900460ff168062002a79575060008054906101000a900460ff16155b62002abb576040517f08c379a000000000000000000000000000000000000000000000000000000000815260040162002ab29062003bfc565b60405180910390fd5b60008060019054906101000a900460ff16159050801562002b0c576001600060016101000a81548160ff02191690831515021790555060016000806101000a81548160ff0219169083151502179055505b62002b1662002f05565b62002b2062002fe4565b801562002b425760008060016101000a81548160ff0219169083151502179055505b50565b62002bcc846323b872dd60e01b85858560405160240162002b699392919062003a64565b604051602081830303815290604052907bffffffffffffffffffffffffffffffffffffffffffffffffffffffff19166020820180517bffffffffffffffffffffffffffffffffffffffffffffffffffffffff838183161783525050505062002e36565b50505050565b600062002c027f360894a13ba1a3210667c828492db98dca3e2076cc3735a920a3ca505d382bbc60001b620030d7565b60000160009054906101000a900473ffffffffffffffffffffffffffffffffffffffff16905090565b62002c3681620030e1565b62002c78576040517f08c379a000000000000000000000000000000000000000000000000000000000815260040162002c6f9062003c1e565b60405180910390fd5b8062002ca77f360894a13ba1a3210667c828492db98dca3e2076cc3735a920a3ca505d382bbc60001b620030d7565b60000160006101000a81548173ffffffffffffffffffffffffffffffffffffffff021916908373ffffffffffffffffffffffffffffffffffffffff16021790555050565b606062002cf883620030e1565b62002d3a576040517f08c379a000000000000000000000000000000000000000000000000000000000815260040162002d319062003c62565b60405180910390fd5b6000808473ffffffffffffffffffffffffffffffffffffffff168460405162002d64919062003a01565b600060405180830381855af49150503d806000811462002da1576040519150601f19603f3d011682016040523d82523d6000602084013e62002da6565b606091505b509150915062002dd182826040518060600160405280602781526020016200526260279139620030f4565b9250505092915050565b6000819050919050565b62002df08162002c2b565b8073ffffffffffffffffffffffffffffffffffffffff167fbc7cd75a20ee27fd9adebab32041f755214dbc6bffa90cc0225b39da2e5c2d3b60405160405180910390a250565b600062002e9a826040518060400160405280602081526020017f5361666545524332303a206c6f772d6c6576656c2063616c6c206661696c65648152508573ffffffffffffffffffffffffffffffffffffffff16620031609092919063ffffffff16565b905060008151111562002f00578080602001905181019062002ebd9190620034d9565b62002eff576040517f08c379a000000000000000000000000000000000000000000000000000000000815260040162002ef69062003cc8565b60405180910390fd5b5b505050565b600060019054906101000a900460ff168062002f2c575060008054906101000a900460ff16155b62002f6e576040517f08c379a000000000000000000000000000000000000000000000000000000000815260040162002f659062003bfc565b60405180910390fd5b60008060019054906101000a900460ff16159050801562002fbf576001600060016101000a81548160ff02191690831515021790555060016000806101000a81548160ff0219169083151502179055505b801562002fe15760008060016101000a81548160ff0219169083151502179055505b50565b600060019054906101000a900460ff16806200300b575060008054906101000a900460ff16155b6200304d576040517f08c379a0000000000000000000000000000000000000000000000000000000008152600401620030449062003bfc565b60405180910390fd5b60008060019054906101000a900460ff1615905080156200309e576001600060016101000a81548160ff02191690831515021790555060016000806101000a81548160ff0219169083151502179055505b620030b2620030ac620023ec565b6200298c565b8015620030d45760008060016101000a81548160ff0219169083151502179055505b50565b6000819050919050565b600080823b905060008111915050919050565b60608315620031065782905062003159565b6000835111156200311a5782518084602001fd5b816040517f08c379a000000000000000000000000000000000000000000000000000000000815260040162003150919062003b72565b60405180910390fd5b9392505050565b60606200317184846000856200317a565b90509392505050565b606082471015620031c2576040517f08c379a0000000000000000000000000000000000000000000000000000000008152600401620031b99062003bda565b60405180910390fd5b620031cd856200329c565b6200320f576040517f08c379a0000000000000000000000000000000000000000000000000000000008152600401620032069062003c84565b60405180910390fd5b6000808673ffffffffffffffffffffffffffffffffffffffff1685876040516200323a919062003a01565b60006040518083038185875af1925050503d806000811462003279576040519150601f19603f3d011682016040523d82523d6000602084013e6200327e565b606091505b509150915062003290828286620032af565b92505050949350505050565b600080823b905060008111915050919050565b60608315620032c15782905062003314565b600083511115620032d55782518084602001fd5b816040517f08c379a00000000000000000000000000000000000000000000000000000000081526004016200330b919062003b72565b60405180910390fd5b9392505050565b610ced806200457583390190565b6000620033406200333a8462003dc3565b62003d9a565b9050828152602081018484840111156200335957600080fd5b6200336684828562004046565b509392505050565b6000813590506200337f81620044f2565b92915050565b60008135905062003396816200450c565b92915050565b600081519050620033ad816200450c565b92915050565b600082601f830112620033c557600080fd5b8135620033d784826020860162003329565b91505092915050565b600081359050620033f18162004526565b92915050565b600081519050620034088162004526565b92915050565b6000813590506200341f8162004540565b92915050565b60008135905062003436816200455a565b92915050565b6000815190506200344d816200455a565b92915050565b6000602082840312156200346657600080fd5b600062003476848285016200336e565b91505092915050565b600080604083850312156200349357600080fd5b6000620034a3858286016200336e565b925050602083013567ffffffffffffffff811115620034c157600080fd5b620034cf85828601620033b3565b9150509250929050565b600060208284031215620034ec57600080fd5b6000620034fc848285016200339c565b91505092915050565b6000602082840312156200351857600080fd5b60006200352884828501620033f7565b91505092915050565b6000806000606084860312156200354757600080fd5b60006200355786828701620033e0565b93505060206200356a8682870162003425565b92505060406200357d8682870162003425565b9150509250925092565b6000602082840312156200359a57600080fd5b6000620035aa848285016200340e565b91505092915050565b600060208284031215620035c657600080fd5b6000620035d68482850162003425565b91505092915050565b600060208284031215620035f257600080fd5b600062003602848285016200343c565b91505092915050565b600080604083850312156200361f57600080fd5b60006200362f8582860162003425565b925050602062003642858286016200336e565b9150509250929050565b6000806000606084860312156200366257600080fd5b6000620036728682870162003425565b93505060206200368586828701620033e0565b9250506040620036988682870162003385565b9150509250925092565b60008060408385031215620036b657600080fd5b6000620036c68582860162003425565b9250506020620036d98582860162003425565b9150509250929050565b600080600060608486031215620036f957600080fd5b6000620037098682870162003425565b93505060206200371c8682870162003425565b92505060406200372f8682870162003385565b9150509250925092565b620037448162003f5c565b82525050565b6000620037578262003df9565b62003763818562003e0f565b93506200377581856020860162004055565b80840191505092915050565b6200378c8162003fce565b82525050565b6200379d8162003ff6565b82525050565b620037ae816200401e565b82525050565b6000620037c18262003e04565b620037cd818562003e1a565b9350620037df81856020860162004055565b620037ea816200419c565b840191505092915050565b600062003804602f8362003e1a565b91506200381182620041ad565b604082019050919050565b60006200382b60268362003e1a565b91506200383882620041fc565b604082019050919050565b60006200385260268362003e1a565b91506200385f826200424b565b604082019050919050565b600062003879602e8362003e1a565b915062003886826200429a565b604082019050919050565b6000620038a0602d8362003e1a565b9150620038ad82620042e9565b604082019050919050565b6000620038c760208362003e1a565b9150620038d48262004338565b602082019050919050565b6000620038ee60268362003e1a565b9150620038fb8262004361565b604082019050919050565b600062003915601d8362003e1a565b91506200392282620043b0565b602082019050919050565b60006200393c60128362003e1a565b91506200394982620043d9565b602082019050919050565b600062003963602a8362003e1a565b9150620039708262004402565b604082019050919050565b60006200398a600c8362003e1a565b9150620039978262004451565b602082019050919050565b6000620039b160368362003e1a565b9150620039be826200447a565b604082019050919050565b6000620039d860148362003e1a565b9150620039e582620044c9565b602082019050919050565b620039fb8162003fc4565b82525050565b600062003a0f82846200374a565b915081905092915050565b600060208201905062003a31600083018462003739565b92915050565b600060408201905062003a4e600083018562003739565b62003a5d602083018462003739565b9392505050565b600060608201905062003a7b600083018662003739565b62003a8a602083018562003739565b62003a996040830184620039f0565b949350505050565b600060408201905062003ab8600083018562003739565b62003ac76020830184620039f0565b9392505050565b600060208201905062003ae5600083018462003781565b92915050565b600060808201905062003b02600083018762003781565b62003b116020830186620039f0565b62003b206040830185620039f0565b62003b2f6060830184620039f0565b95945050505050565b600060208201905062003b4f600083018462003792565b92915050565b600060208201905062003b6c6000830184620037a3565b92915050565b6000602082019050818103600083015262003b8e8184620037b4565b905092915050565b6000602082019050818103600083015262003bb181620037f5565b9050919050565b6000602082019050818103600083015262003bd3816200381c565b9050919050565b6000602082019050818103600083015262003bf58162003843565b9050919050565b6000602082019050818103600083015262003c17816200386a565b9050919050565b6000602082019050818103600083015262003c398162003891565b9050919050565b6000602082019050818103600083015262003c5b81620038b8565b9050919050565b6000602082019050818103600083015262003c7d81620038df565b9050919050565b6000602082019050818103600083015262003c9f8162003906565b9050919050565b6000602082019050818103600083015262003cc1816200392d565b9050919050565b6000602082019050818103600083015262003ce38162003954565b9050919050565b6000602082019050818103600083015262003d05816200397b565b9050919050565b6000602082019050818103600083015262003d2781620039a2565b9050919050565b6000602082019050818103600083015262003d4981620039c9565b9050919050565b600060208201905062003d676000830184620039f0565b92915050565b600060408201905062003d846000830185620039f0565b62003d936020830184620039f0565b9392505050565b600062003da662003db9565b905062003db482826200408b565b919050565b6000604051905090565b600067ffffffffffffffff82111562003de15762003de06200416d565b5b62003dec826200419c565b9050602081019050919050565b600081519050919050565b600081519050919050565b600081905092915050565b600082825260208201905092915050565b600062003e388262003fc4565b915062003e458362003fc4565b9250827fffffffffffffffffffffffffffffffffffffffffffffffffffffffffffffffff0382111562003e7d5762003e7c6200410f565b5b828201905092915050565b600062003e958262003fc4565b915062003ea28362003fc4565b92508262003eb55762003eb46200413e565b5b828204905092915050565b600062003ecd8262003fc4565b915062003eda8362003fc4565b9250817fffffffffffffffffffffffffffffffffffffffffffffffffffffffffffffffff048311821515161562003f165762003f156200410f565b5b828202905092915050565b600062003f2e8262003fc4565b915062003f3b8362003fc4565b92508282101562003f515762003f506200410f565b5b828203905092915050565b600062003f698262003fa4565b9050919050565b60008115159050919050565b600062003f898262003f5c565b9050919050565b600062003f9d8262003f5c565b9050919050565b600073ffffffffffffffffffffffffffffffffffffffff82169050919050565b6000819050919050565b600062003fdb8262003fe2565b9050919050565b600062003fef8262003fa4565b9050919050565b600062004003826200400a565b9050919050565b6000620040178262003fa4565b9050919050565b60006200402b8262004032565b9050919050565b60006200403f8262003fa4565b9050919050565b82818337600083830152505050565b60005b838110156200407557808201518184015260208101905062004058565b8381111562004085576000848401525b50505050565b62004096826200419c565b810181811067ffffffffffffffff82111715620040b857620040b76200416d565b5b80604052505050565b6000620040ce8262003fc4565b91507fffffffffffffffffffffffffffffffffffffffffffffffffffffffffffffffff8214156200410457620041036200410f565b5b600182019050919050565b7f4e487b7100000000000000000000000000000000000000000000000000000000600052601160045260246000fd5b7f4e487b7100000000000000000000000000000000000000000000000000000000600052601260045260246000fd5b7f4e487b7100000000000000000000000000000000000000000000000000000000600052604160045260246000fd5b6000601f19601f8301169050919050565b7f45524331393637557067726164653a207570677261646520627265616b73206660008201527f7572746865722075706772616465730000000000000000000000000000000000602082015250565b7f4f776e61626c653a206e6577206f776e657220697320746865207a65726f206160008201527f6464726573730000000000000000000000000000000000000000000000000000602082015250565b7f416464726573733a20696e73756666696369656e742062616c616e636520666f60008201527f722063616c6c0000000000000000000000000000000000000000000000000000602082015250565b7f496e697469616c697a61626c653a20636f6e747261637420697320616c72656160008201527f647920696e697469616c697a6564000000000000000000000000000000000000602082015250565b7f455243313936373a206e657720696d706c656d656e746174696f6e206973206e60008201527f6f74206120636f6e747261637400000000000000000000000000000000000000602082015250565b7f4f776e61626c653a2063616c6c6572206973206e6f7420746865206f776e6572600082015250565b7f416464726573733a2064656c65676174652063616c6c20746f206e6f6e2d636f60008201527f6e74726163740000000000000000000000000000000000000000000000000000602082015250565b7f416464726573733a2063616c6c20746f206e6f6e2d636f6e7472616374000000600082015250565b7f77697468647261773a206e6f7420676f6f640000000000000000000000000000600082015250565b7f5361666545524332303a204552433230206f7065726174696f6e20646964206e60008201527f6f74207375636365656400000000000000000000000000000000000000000000602082015250565b7f6d6967726174653a206261640000000000000000000000000000000000000000600082015250565b7f5361666545524332303a20617070726f76652066726f6d206e6f6e2d7a65726f60008201527f20746f206e6f6e2d7a65726f20616c6c6f77616e636500000000000000000000602082015250565b7f6d6967726174653a206e6f206d69677261746f72000000000000000000000000600082015250565b620044fd8162003f5c565b81146200450957600080fd5b50565b620045178162003f70565b81146200452357600080fd5b50565b620045318162003f7c565b81146200453d57600080fd5b50565b6200454b8162003f90565b81146200455757600080fd5b50565b620045658162003fc4565b81146200457157600080fd5b5056fe608060405234801561001057600080fd5b50604051610ced380380610ced833981810160405281019061003291906100ce565b806000806101000a81548173ffffffffffffffffffffffffffffffffffffffff021916908373ffffffffffffffffffffffffffffffffffffffff16021790555033600160006101000a81548173ffffffffffffffffffffffffffffffffffffffff021916908373ffffffffffffffffffffffffffffffffffffffff16021790555050610152565b6000815190506100c88161013b565b92915050565b6000602082840312156100e057600080fd5b60006100ee848285016100b9565b91505092915050565b60006101028261011b565b9050919050565b6000610114826100f7565b9050919050565b600073ffffffffffffffffffffffffffffffffffffffff82169050919050565b61014481610109565b811461014f57600080fd5b50565b610b8c806101616000396000f3fe608060405234801561001057600080fd5b50600436106100415760003560e01c80638da5cb5b14610046578063e5c9ad2e14610064578063e6d41a8214610082575b600080fd5b61004e6100b2565b60405161005b91906107fd565b60405180910390f35b61006c6100d8565b6040516100799190610841565b60405180910390f35b61009c60048036038101906100979190610635565b6100fc565b6040516100a991906108fe565b60405180910390f35b600160009054906101000a900473ffffffffffffffffffffffffffffffffffffffff1681565b60008054906101000a900473ffffffffffffffffffffffffffffffffffffffff1681565b6000600160009054906101000a900473ffffffffffffffffffffffffffffffffffffffff1673ffffffffffffffffffffffffffffffffffffffff163373ffffffffffffffffffffffffffffffffffffffff161461018e576040517f08c379a00000000000000000000000000000000000000000000000000000000081526004016101859061089e565b60405180910390fd5b60008060009054906101000a900473ffffffffffffffffffffffffffffffffffffffff1673ffffffffffffffffffffffffffffffffffffffff166370a08231306040518263ffffffff1660e01b81526004016101ea91906107fd565b60206040518083038186803b15801561020257600080fd5b505afa158015610216573d6000803e3d6000fd5b505050506040513d601f19601f8201168201806040525081019061023a919061069a565b9050808311156102985761028f848260008054906101000a900473ffffffffffffffffffffffffffffffffffffffff1673ffffffffffffffffffffffffffffffffffffffff166102ee9092919063ffffffff16565b809150506102e8565b6102e3848460008054906101000a900473ffffffffffffffffffffffffffffffffffffffff1673ffffffffffffffffffffffffffffffffffffffff166102ee9092919063ffffffff16565b829150505b92915050565b61036f8363a9059cbb60e01b848460405160240161030d929190610818565b604051602081830303815290604052907bffffffffffffffffffffffffffffffffffffffffffffffffffffffff19166020820180517bffffffffffffffffffffffffffffffffffffffffffffffffffffffff8381831617835250505050610374565b505050565b60006103d6826040518060400160405280602081526020017f5361666545524332303a206c6f772d6c6576656c2063616c6c206661696c65648152508573ffffffffffffffffffffffffffffffffffffffff1661043b9092919063ffffffff16565b905060008151111561043657808060200190518101906103f69190610671565b610435576040517f08c379a000000000000000000000000000000000000000000000000000000000815260040161042c906108de565b60405180910390fd5b5b505050565b606061044a8484600085610453565b90509392505050565b606082471015610498576040517f08c379a000000000000000000000000000000000000000000000000000000000815260040161048f9061087e565b60405180910390fd5b6104a185610567565b6104e0576040517f08c379a00000000000000000000000000000000000000000000000000000000081526004016104d7906108be565b60405180910390fd5b6000808673ffffffffffffffffffffffffffffffffffffffff16858760405161050991906107e6565b60006040518083038185875af1925050503d8060008114610546576040519150601f19603f3d011682016040523d82523d6000602084013e61054b565b606091505b509150915061055b82828661057a565b92505050949350505050565b600080823b905060008111915050919050565b6060831561058a578290506105da565b60008351111561059d5782518084602001fd5b816040517f08c379a00000000000000000000000000000000000000000000000000000000081526004016105d1919061085c565b60405180910390fd5b9392505050565b6000813590506105f081610b11565b92915050565b60008151905061060581610b28565b92915050565b60008135905061061a81610b3f565b92915050565b60008151905061062f81610b3f565b92915050565b6000806040838503121561064857600080fd5b6000610656858286016105e1565b92505060206106678582860161060b565b9150509250929050565b60006020828403121561068357600080fd5b6000610691848285016105f6565b91505092915050565b6000602082840312156106ac57600080fd5b60006106ba84828501610620565b91505092915050565b6106cc8161094b565b82525050565b60006106dd82610919565b6106e7818561092f565b93506106f78185602086016109b7565b80840191505092915050565b61070c81610993565b82525050565b600061071d82610924565b610727818561093a565b93506107378185602086016109b7565b610740816109ea565b840191505092915050565b600061075860268361093a565b9150610763826109fb565b604082019050919050565b600061077b60248361093a565b915061078682610a4a565b604082019050919050565b600061079e601d8361093a565b91506107a982610a99565b602082019050919050565b60006107c1602a8361093a565b91506107cc82610ac2565b604082019050919050565b6107e081610989565b82525050565b60006107f282846106d2565b915081905092915050565b600060208201905061081260008301846106c3565b92915050565b600060408201905061082d60008301856106c3565b61083a60208301846107d7565b9392505050565b60006020820190506108566000830184610703565b92915050565b600060208201905081810360008301526108768184610712565b905092915050565b600060208201905081810360008301526108978161074b565b9050919050565b600060208201905081810360008301526108b78161076e565b9050919050565b600060208201905081810360008301526108d781610791565b9050919050565b600060208201905081810360008301526108f7816107b4565b9050919050565b600060208201905061091360008301846107d7565b92915050565b600081519050919050565b600081519050919050565b600081905092915050565b600082825260208201905092915050565b600061095682610969565b9050919050565b60008115159050919050565b600073ffffffffffffffffffffffffffffffffffffffff82169050919050565b6000819050919050565b600061099e826109a5565b9050919050565b60006109b082610969565b9050919050565b60005b838110156109d55780820151818401526020810190506109ba565b838111156109e4576000848401525b50505050565b6000601f19601f8301169050919050565b7f416464726573733a20696e73756666696369656e742062616c616e636520666f60008201527f722063616c6c0000000000000000000000000000000000000000000000000000602082015250565b7f57616c6c65743a204f6e6c79204d6173746572507265642063616e207472616e60008201527f7366657200000000000000000000000000000000000000000000000000000000602082015250565b7f416464726573733a2063616c6c20746f206e6f6e2d636f6e7472616374000000600082015250565b7f5361666545524332303a204552433230206f7065726174696f6e20646964206e60008201527f6f74207375636365656400000000000000000000000000000000000000000000602082015250565b610b1a8161094b565b8114610b2557600080fd5b50565b610b318161095d565b8114610b3c57600080fd5b50565b610b4881610989565b8114610b5357600080fd5b5056fea2646970667358221220396f74d03d1c75f8feb040e1f1afc01c0bad20363c28802ec4373bde0c09e8cf64736f6c63430008020033416464726573733a206c6f772d6c6576656c2064656c65676174652063616c6c206661696c6564a26469706673582212209fb0cbb8d17487c3b3fda69623ac94e73b04c59eab92d3e00c3082f774b9db5a64736f6c63430008020033",
  "linkReferences": {},
  "deployedLinkReferences": {}
}