{
	"data": {
		"bytecode": {
			"linkReferences": {},
			"object": "6080604052600160cb55600060d05534801561001a57600080fd5b506152b68061002a6000396000f3fe608060405260043610620001ee5760003560e01c80635ffe6146116200010f57806383bb387711620000a357806393f1a40b116200006d57806393f1a40b1462000692578063e2bbb15814620006d7578063e5c9ad2e1462000705578063f2fde38b146200073557620001ee565b806383bb387714620005be5780638aa2855014620005ee5780638da5cb5b146200061e5780638dbb1e3a146200064e57620001ee565b80636450b8a911620000e55780636450b8a91462000502578063715018a614620005465780637a1ac61e14620005605780637cd07e47146200058e57620001ee565b80635ffe6146146200048c578063630b5ba114620004ba57806364482f7914620004d457620001ee565b8063441a3e7011620001875780634f1ef286116200015d5780634f1ef28614620003e057806351eb05a61462000400578063521eb273146200042e5780635312ea8e146200045e57620001ee565b8063441a3e701462000354578063454b0608146200038257806348cd4cb114620003b057620001ee565b80631eaaa04511620001c95780631eaaa045146200029a5780631fc7be8914620002c857806323cf311814620002f85780633659cfe6146200032657620001ee565b8063081e3eda14620001f35780631526fe27146200022357806317caf6f1146200026a575b600080fd5b3480156200020057600080fd5b506200020b62000763565b6040516200021a919062003d48565b60405180910390f35b3480156200023057600080fd5b506200024f6004803603810190620002499190620035ab565b62000770565b60405162000261949392919062003ae3565b60405180910390f35b3480156200027757600080fd5b5062000282620007d1565b60405162000291919062003d48565b60405180910390f35b348015620002a757600080fd5b50620002c66004803603810190620002c0919062003644565b620007d7565b005b348015620002d557600080fd5b50620002e062000972565b604051620002ef919062003d48565b60405180910390f35b3480156200030557600080fd5b506200032460048036038101906200031e91906200357f565b62000978565b005b3480156200033357600080fd5b506200035260048036038101906200034c91906200344b565b62000a3f565b005b3480156200036157600080fd5b506200038060048036038101906200037a91906200369a565b62000a6a565b005b3480156200038f57600080fd5b50620003ae6004803603810190620003a89190620035ab565b62000cdc565b005b348015620003bd57600080fd5b50620003c86200109d565b604051620003d7919062003d48565b60405180910390f35b620003fe6004803603810190620003f8919062003477565b620010a3565b005b3480156200040d57600080fd5b506200042c6004803603810190620004269190620035ab565b620010c0565b005b3480156200043b57600080fd5b5062000446620013c5565b60405162000455919062003b4d565b60405180910390f35b3480156200046b57600080fd5b506200048a6004803603810190620004849190620035ab565b620013eb565b005b3480156200049957600080fd5b50620004b86004803603810190620004b29190620035ab565b62001579565b005b348015620004c757600080fd5b50620004d262001606565b005b348015620004e157600080fd5b50620005006004803603810190620004fa9190620036db565b6200163f565b005b3480156200050f57600080fd5b506200052e600480360381019062000528919062003603565b620017b6565b6040516200053d919062003d48565b60405180910390f35b3480156200055357600080fd5b506200055e62001b27565b005b3480156200056d57600080fd5b506200058c600480360381019062000586919062003529565b62001bb8565b005b3480156200059b57600080fd5b50620005a662001e41565b604051620005b5919062003b30565b60405180910390f35b348015620005cb57600080fd5b50620005d662001e67565b604051620005e5919062003d48565b60405180910390f35b348015620005fb57600080fd5b506200060662001e6d565b60405162000615919062003d48565b60405180910390f35b3480156200062b57600080fd5b506200063662001e73565b60405162000645919062003a12565b60405180910390f35b3480156200065b57600080fd5b506200067a60048036038101906200067491906200369a565b62001e9d565b60405162000689919062003d48565b60405180910390f35b3480156200069f57600080fd5b50620006be6004803603810190620006b8919062003603565b62001ed2565b604051620006ce92919062003d65565b60405180910390f35b348015620006e457600080fd5b50620007036004803603810190620006fd91906200369a565b62001f03565b005b3480156200071257600080fd5b506200071d620022ba565b6040516200072c919062003ac6565b60405180910390f35b3480156200074257600080fd5b506200076160048036038101906200075b91906200344b565b620022e0565b005b600060ce80549050905090565b60ce81815481106200078157600080fd5b90600052602060002090600402016000915090508060000160009054906101000a900473ffffffffffffffffffffffffffffffffffffffff16908060010154908060020154908060030154905084565b60d05481565b620007e1620023e4565b73ffffffffffffffffffffffffffffffffffffffff166200080162001e73565b73ffffffffffffffffffffffffffffffffffffffff16146200085a576040517f08c379a0000000000000000000000000000000000000000000000000000000008152600401620008519062003c38565b60405180910390fd5b80156200086c576200086b62001606565b5b600060d1544311620008815760d15462000883565b435b90506200089c8460d054620023ec90919063ffffffff16565b60d08190555060ce60405180608001604052808573ffffffffffffffffffffffffffffffffffffffff1681526020018681526020018381526020016000815250908060018154018082558091505060019003906000526020600020906004020160009091909190915060008201518160000160006101000a81548173ffffffffffffffffffffffffffffffffffffffff021916908373ffffffffffffffffffffffffffffffffffffffff160217905550602082015181600101556040820151816002015560608201518160030155505050505050565b60ca5481565b62000982620023e4565b73ffffffffffffffffffffffffffffffffffffffff16620009a262001e73565b73ffffffffffffffffffffffffffffffffffffffff1614620009fb576040517f08c379a0000000000000000000000000000000000000000000000000000000008152600401620009f29062003c38565b60405180910390fd5b8060cc60006101000a81548173ffffffffffffffffffffffffffffffffffffffff021916908373ffffffffffffffffffffffffffffffffffffffff16021790555050565b62000a4a8162002404565b62000a67816040518060200160405280600081525060006200248a565b50565b600060ce838154811062000aa7577f4e487b7100000000000000000000000000000000000000000000000000000000600052603260045260246000fd5b90600052602060002090600402019050600060cf600085815260200190815260200160002060003373ffffffffffffffffffffffffffffffffffffffff1673ffffffffffffffffffffffffffffffffffffffff1681526020019081526020016000209050828160000154101562000b55576040517f08c379a000000000000000000000000000000000000000000000000000000000815260040162000b4c9062003c9e565b60405180910390fd5b62000b6084620010c0565b600062000bb0826001015462000ba164e8d4a5100062000b92876003015487600001546200267190919063ffffffff16565b6200268990919063ffffffff16565b620026a190919063ffffffff16565b9050600081111562000bc95762000bc83382620026b9565b5b600084111562000c465762000bec848360000154620026a190919063ffffffff16565b826000018190555062000c4533858560000160009054906101000a900473ffffffffffffffffffffffffffffffffffffffff1673ffffffffffffffffffffffffffffffffffffffff166200278e9092919063ffffffff16565b5b62000c7c64e8d4a5100062000c6d856003015485600001546200267190919063ffffffff16565b6200268990919063ffffffff16565b8260010181905550843373ffffffffffffffffffffffffffffffffffffffff167ff279e6a1f5e320cca91135676d9cb6e44ca8a08c0b88342bcdb1144f6511b5688660405162000ccd919062003d48565b60405180910390a35050505050565b600073ffffffffffffffffffffffffffffffffffffffff1660cc60009054906101000a900473ffffffffffffffffffffffffffffffffffffffff1673ffffffffffffffffffffffffffffffffffffffff16141562000d71576040517f08c379a000000000000000000000000000000000000000000000000000000000815260040162000d689062003d26565b60405180910390fd5b600060ce828154811062000dae577f4e487b7100000000000000000000000000000000000000000000000000000000600052603260045260246000fd5b9060005260206000209060040201905060008160000160009054906101000a900473ffffffffffffffffffffffffffffffffffffffff16905060008173ffffffffffffffffffffffffffffffffffffffff166370a08231306040518263ffffffff1660e01b815260040162000e24919062003a12565b60206040518083038186803b15801562000e3d57600080fd5b505afa15801562000e52573d6000803e3d6000fd5b505050506040513d601f19601f8201168201806040525081019062000e789190620035d7565b905062000ec960cc60009054906101000a900473ffffffffffffffffffffffffffffffffffffffff16828473ffffffffffffffffffffffffffffffffffffffff16620028189092919063ffffffff16565b600060cc60009054906101000a900473ffffffffffffffffffffffffffffffffffffffff1673ffffffffffffffffffffffffffffffffffffffff1663ce5494bb846040518263ffffffff1660e01b815260040162000f28919062003ac6565b602060405180830381600087803b15801562000f4357600080fd5b505af115801562000f58573d6000803e3d6000fd5b505050506040513d601f19601f8201168201806040525081019062000f7e9190620034fd565b90508073ffffffffffffffffffffffffffffffffffffffff166370a08231306040518263ffffffff1660e01b815260040162000fbb919062003a12565b60206040518083038186803b15801562000fd457600080fd5b505afa15801562000fe9573d6000803e3d6000fd5b505050506040513d601f19601f820116820180604052508101906200100f9190620035d7565b821462001053576040517f08c379a00000000000000000000000000000000000000000000000000000000081526004016200104a9062003ce2565b60405180910390fd5b808460000160006101000a81548173ffffffffffffffffffffffffffffffffffffffff021916908373ffffffffffffffffffffffffffffffffffffffff1602179055505050505050565b60d15481565b620010ae8262002404565b620010bc828260016200248a565b5050565b600060ce8281548110620010fd577f4e487b7100000000000000000000000000000000000000000000000000000000600052603260045260246000fd5b9060005260206000209060040201905080600201544311620011205750620013c2565b60008160000160009054906101000a900473ffffffffffffffffffffffffffffffffffffffff1673ffffffffffffffffffffffffffffffffffffffff166370a08231306040518263ffffffff1660e01b815260040162001181919062003a12565b60206040518083038186803b1580156200119a57600080fd5b505afa158015620011af573d6000803e3d6000fd5b505050506040513d601f19601f82011682018060405250810190620011d59190620035d7565b90506000811415620011f2574382600201819055505050620013c2565b60006200120483600201544362001e9d565b905060006200124d60d0546200123e86600101546200122f60ca54876200267190919063ffffffff16565b6200267190919063ffffffff16565b6200268990919063ffffffff16565b905060006200133a60d25460c960009054906101000a900473ffffffffffffffffffffffffffffffffffffffff1673ffffffffffffffffffffffffffffffffffffffff166370a0823160cd60009054906101000a900473ffffffffffffffffffffffffffffffffffffffff166040518263ffffffff1660e01b8152600401620012d7919062003a12565b60206040518083038186803b158015620012f057600080fd5b505afa15801562001305573d6000803e3d6000fd5b505050506040513d601f19601f820116820180604052508101906200132b9190620035d7565b620026a190919063ffffffff16565b905080821062001348578091505b6200138e6200137a856200136b64e8d4a51000866200267190919063ffffffff16565b6200268990919063ffffffff16565b8660030154620023ec90919063ffffffff16565b8560030181905550620013ad8260d254620023ec90919063ffffffff16565b60d28190555043856002018190555050505050505b50565b60cd60009054906101000a900473ffffffffffffffffffffffffffffffffffffffff1681565b600060ce828154811062001428577f4e487b7100000000000000000000000000000000000000000000000000000000600052603260045260246000fd5b90600052602060002090600402019050600060cf600084815260200190815260200160002060003373ffffffffffffffffffffffffffffffffffffffff1673ffffffffffffffffffffffffffffffffffffffff1681526020019081526020016000209050600081600001549050600082600001819055506000826001018190555060d2548111620014d157620014ca8160d254620026a190919063ffffffff16565b60d2819055505b6200152233828560000160009054906101000a900473ffffffffffffffffffffffffffffffffffffffff1673ffffffffffffffffffffffffffffffffffffffff166200278e9092919063ffffffff16565b833373ffffffffffffffffffffffffffffffffffffffff167fbb757047c2b5f3974fe26b7c10f732e7bce710b0952a71082702781e62ae0595836040516200156b919062003d48565b60405180910390a350505050565b62001583620023e4565b73ffffffffffffffffffffffffffffffffffffffff16620015a362001e73565b73ffffffffffffffffffffffffffffffffffffffff1614620015fc576040517f08c379a0000000000000000000000000000000000000000000000000000000008152600401620015f39062003c38565b60405180910390fd5b8060cb8190555050565b600060ce80549050905060005b818110156200163b576200162781620010c0565b806200163390620040b9565b905062001613565b5050565b62001649620023e4565b73ffffffffffffffffffffffffffffffffffffffff166200166962001e73565b73ffffffffffffffffffffffffffffffffffffffff1614620016c2576040517f08c379a0000000000000000000000000000000000000000000000000000000008152600401620016b99062003c38565b60405180910390fd5b8015620016d457620016d362001606565b5b600060ce848154811062001711577f4e487b7100000000000000000000000000000000000000000000000000000000600052603260045260246000fd5b90600052602060002090600402016001015490508260ce858154811062001761577f4e487b7100000000000000000000000000000000000000000000000000000000600052603260045260246000fd5b906000526020600020906004020160010181905550828114620017b057620017a9836200179a8360d054620026a190919063ffffffff16565b620023ec90919063ffffffff16565b60d0819055505b50505050565b60008060ce8481548110620017f4577f4e487b7100000000000000000000000000000000000000000000000000000000600052603260045260246000fd5b90600052602060002090600402019050600060cf600086815260200190815260200160002060008573ffffffffffffffffffffffffffffffffffffffff1673ffffffffffffffffffffffffffffffffffffffff168152602001908152602001600020905060008260030154905060008360000160009054906101000a900473ffffffffffffffffffffffffffffffffffffffff1673ffffffffffffffffffffffffffffffffffffffff166370a08231306040518263ffffffff1660e01b8152600401620018c2919062003a12565b60206040518083038186803b158015620018db57600080fd5b505afa158015620018f0573d6000803e3d6000fd5b505050506040513d601f19601f82011682018060405250810190620019169190620035d7565b90508360020154431180156200192d575060008114155b1562001ad15760006200194585600201544362001e9d565b905060006200198e60d0546200197f88600101546200197060ca54876200267190919063ffffffff16565b6200267190919063ffffffff16565b6200268990919063ffffffff16565b9050600062001a7b60d25460c960009054906101000a900473ffffffffffffffffffffffffffffffffffffffff1673ffffffffffffffffffffffffffffffffffffffff166370a0823160cd60009054906101000a900473ffffffffffffffffffffffffffffffffffffffff166040518263ffffffff1660e01b815260040162001a18919062003a12565b60206040518083038186803b15801562001a3157600080fd5b505afa15801562001a46573d6000803e3d6000fd5b505050506040513d601f19601f8201168201806040525081019062001a6c9190620035d7565b620026a190919063ffffffff16565b905080821062001a89578091505b62001acb62001abb8562001aac64e8d4a51000866200267190919063ffffffff16565b6200268990919063ffffffff16565b86620023ec90919063ffffffff16565b94505050505b62001b1b836001015462001b0c64e8d4a5100062001afd8688600001546200267190919063ffffffff16565b6200268990919063ffffffff16565b620026a190919063ffffffff16565b94505050505092915050565b62001b31620023e4565b73ffffffffffffffffffffffffffffffffffffffff1662001b5162001e73565b73ffffffffffffffffffffffffffffffffffffffff161462001baa576040517f08c379a000000000000000000000000000000000000000000000000000000000815260040162001ba19062003c38565b60405180910390fd5b62001bb6600062002984565b565b600060019054906101000a900460ff168062001bdf575060008054906101000a900460ff16155b62001c21576040517f08c379a000000000000000000000000000000000000000000000000000000000815260040162001c189062003bf4565b60405180910390fd5b60008060019054906101000a900460ff16159050801562001c72576001600060016101000a81548160ff02191690831515021790555060016000806101000a81548160ff0219169083151502179055505b62001c7c62002a4a565b8360c960006101000a81548173ffffffffffffffffffffffffffffffffffffffff021916908373ffffffffffffffffffffffffffffffffffffffff1602179055508260ca819055508160d1819055508360405162001cda9062003313565b62001ce6919062003ac6565b604051809103906000f08015801562001d03573d6000803e3d6000fd5b5060cd60006101000a81548173ffffffffffffffffffffffffffffffffffffffff021916908373ffffffffffffffffffffffffffffffffffffffff16021790555060ce60405180608001604052808673ffffffffffffffffffffffffffffffffffffffff16815260200160c8815260200160d15481526020016000815250908060018154018082558091505060019003906000526020600020906004020160009091909190915060008201518160000160006101000a81548173ffffffffffffffffffffffffffffffffffffffff021916908373ffffffffffffffffffffffffffffffffffffffff160217905550602082015181600101556040820151816002015560608201518160030155505060c860d081905550801562001e3b5760008060016101000a81548160ff0219169083151502179055505b50505050565b60cc60009054906101000a900473ffffffffffffffffffffffffffffffffffffffff1681565b60d25481565b60cb5481565b6000609760009054906101000a900473ffffffffffffffffffffffffffffffffffffffff16905090565b600062001eca60cb5462001ebb8585620026a190919063ffffffff16565b6200267190919063ffffffff16565b905092915050565b60cf602052816000526040600020602052806000526040600020600091509150508060000154908060010154905082565b600060ce838154811062001f40577f4e487b7100000000000000000000000000000000000000000000000000000000600052603260045260246000fd5b90600052602060002090600402019050600060cf600085815260200190815260200160002060003373ffffffffffffffffffffffffffffffffffffffff1673ffffffffffffffffffffffffffffffffffffffff168152602001908152602001600020905062001faf84620010c0565b600081600001541115620020285760006200200d826001015462001ffe64e8d4a5100062001fef876003015487600001546200267190919063ffffffff16565b6200268990919063ffffffff16565b620026a190919063ffffffff16565b905060008111156200202657620020253382620026b9565b5b505b6000831115620022255760008260000160009054906101000a900473ffffffffffffffffffffffffffffffffffffffff1673ffffffffffffffffffffffffffffffffffffffff166370a08231306040518263ffffffff1660e01b815260040162002093919062003a12565b60206040518083038186803b158015620020ac57600080fd5b505afa158015620020c1573d6000803e3d6000fd5b505050506040513d601f19601f82011682018060405250810190620020e79190620035d7565b90506200213c3330868660000160009054906101000a900473ffffffffffffffffffffffffffffffffffffffff1673ffffffffffffffffffffffffffffffffffffffff1662002b3d909392919063ffffffff16565b6200221b62002207828560000160009054906101000a900473ffffffffffffffffffffffffffffffffffffffff1673ffffffffffffffffffffffffffffffffffffffff166370a08231306040518263ffffffff1660e01b8152600401620021a4919062003a12565b60206040518083038186803b158015620021bd57600080fd5b505afa158015620021d2573d6000803e3d6000fd5b505050506040513d601f19601f82011682018060405250810190620021f89190620035d7565b620026a190919063ffffffff16565b8360000154620023ec90919063ffffffff16565b8260000181905550505b6200225b64e8d4a510006200224c846003015484600001546200267190919063ffffffff16565b6200268990919063ffffffff16565b8160010181905550833373ffffffffffffffffffffffffffffffffffffffff167f90890809c654f11d6e72a28fa60149770a0d11ec6c92319d6ceb2bb0a4ea1a1585604051620022ac919062003d48565b60405180910390a350505050565b60c960009054906101000a900473ffffffffffffffffffffffffffffffffffffffff1681565b620022ea620023e4565b73ffffffffffffffffffffffffffffffffffffffff166200230a62001e73565b73ffffffffffffffffffffffffffffffffffffffff161462002363576040517f08c379a00000000000000000000000000000000000000000000000000000000081526004016200235a9062003c38565b60405180910390fd5b600073ffffffffffffffffffffffffffffffffffffffff168173ffffffffffffffffffffffffffffffffffffffff161415620023d6576040517f08c379a0000000000000000000000000000000000000000000000000000000008152600401620023cd9062003bb0565b60405180910390fd5b620023e18162002984565b50565b600033905090565b60008183620023fc919062003e23565b905092915050565b6200240e620023e4565b73ffffffffffffffffffffffffffffffffffffffff166200242e62001e73565b73ffffffffffffffffffffffffffffffffffffffff161462002487576040517f08c379a00000000000000000000000000000000000000000000000000000000081526004016200247e9062003c38565b60405180910390fd5b50565b60006200249662002bca565b9050620024a38462002c23565b600083511180620024b15750815b15620024c557620024c3848462002ce3565b505b6000620024f57f4910fdfa16fed3260ed0e7147f7cc6da11a60208b5b9406d12a635614ffd914360001b62002dd3565b90508060000160009054906101000a900460ff166200266a5760018160000160006101000a81548160ff021916908315150217905550620025c6858360405160240162002543919062003a12565b6040516020818303038152906040527f3659cfe6000000000000000000000000000000000000000000000000000000007bffffffffffffffffffffffffffffffffffffffffffffffffffffffff19166020820180517bffffffffffffffffffffffffffffffffffffffffffffffffffffffff838183161783525050505062002ce3565b5060008160000160006101000a81548160ff021916908315150217905550620025ee62002bca565b73ffffffffffffffffffffffffffffffffffffffff168273ffffffffffffffffffffffffffffffffffffffff16146200265e576040517f08c379a0000000000000000000000000000000000000000000000000000000008152600401620026559062003b8e565b60405180910390fd5b620026698562002ddd565b5b5050505050565b6000818362002681919062003eb8565b905092915050565b6000818362002699919062003e80565b905092915050565b60008183620026b1919062003f19565b905092915050565b6200278460cd60009054906101000a900473ffffffffffffffffffffffffffffffffffffffff1673ffffffffffffffffffffffffffffffffffffffff1663e6d41a8284846040518363ffffffff1660e01b81526004016200271c92919062003a99565b602060405180830381600087803b1580156200273757600080fd5b505af11580156200274c573d6000803e3d6000fd5b505050506040513d601f19601f82011682018060405250810190620027729190620035d7565b60d254620026a190919063ffffffff16565b60d2819055505050565b620028138363a9059cbb60e01b8484604051602401620027b092919062003a99565b604051602081830303815290604052907bffffffffffffffffffffffffffffffffffffffffffffffffffffffff19166020820180517bffffffffffffffffffffffffffffffffffffffffffffffffffffffff838183161783525050505062002e2e565b505050565b6000811480620028b8575060008373ffffffffffffffffffffffffffffffffffffffff1663dd62ed3e30856040518363ffffffff1660e01b81526004016200286292919062003a2f565b60206040518083038186803b1580156200287b57600080fd5b505afa15801562002890573d6000803e3d6000fd5b505050506040513d601f19601f82011682018060405250810190620028b69190620035d7565b145b620028fa576040517f08c379a0000000000000000000000000000000000000000000000000000000008152600401620028f19062003d04565b60405180910390fd5b6200297f8363095ea7b360e01b84846040516024016200291c92919062003a99565b604051602081830303815290604052907bffffffffffffffffffffffffffffffffffffffffffffffffffffffff19166020820180517bffffffffffffffffffffffffffffffffffffffffffffffffffffffff838183161783525050505062002e2e565b505050565b6000609760009054906101000a900473ffffffffffffffffffffffffffffffffffffffff16905081609760006101000a81548173ffffffffffffffffffffffffffffffffffffffff021916908373ffffffffffffffffffffffffffffffffffffffff1602179055508173ffffffffffffffffffffffffffffffffffffffff168173ffffffffffffffffffffffffffffffffffffffff167f8be0079c531659141344cd1fd0a4f28419497f9722a3daafe3b4186f6b6457e060405160405180910390a35050565b600060019054906101000a900460ff168062002a71575060008054906101000a900460ff16155b62002ab3576040517f08c379a000000000000000000000000000000000000000000000000000000000815260040162002aaa9062003bf4565b60405180910390fd5b60008060019054906101000a900460ff16159050801562002b04576001600060016101000a81548160ff02191690831515021790555060016000806101000a81548160ff0219169083151502179055505b62002b0e62002efd565b62002b1862002fdc565b801562002b3a5760008060016101000a81548160ff0219169083151502179055505b50565b62002bc4846323b872dd60e01b85858560405160240162002b619392919062003a5c565b604051602081830303815290604052907bffffffffffffffffffffffffffffffffffffffffffffffffffffffff19166020820180517bffffffffffffffffffffffffffffffffffffffffffffffffffffffff838183161783525050505062002e2e565b50505050565b600062002bfa7f360894a13ba1a3210667c828492db98dca3e2076cc3735a920a3ca505d382bbc60001b620030cf565b60000160009054906101000a900473ffffffffffffffffffffffffffffffffffffffff16905090565b62002c2e81620030d9565b62002c70576040517f08c379a000000000000000000000000000000000000000000000000000000000815260040162002c679062003c16565b60405180910390fd5b8062002c9f7f360894a13ba1a3210667c828492db98dca3e2076cc3735a920a3ca505d382bbc60001b620030cf565b60000160006101000a81548173ffffffffffffffffffffffffffffffffffffffff021916908373ffffffffffffffffffffffffffffffffffffffff16021790555050565b606062002cf083620030d9565b62002d32576040517f08c379a000000000000000000000000000000000000000000000000000000000815260040162002d299062003c5a565b60405180910390fd5b6000808473ffffffffffffffffffffffffffffffffffffffff168460405162002d5c9190620039f9565b600060405180830381855af49150503d806000811462002d99576040519150601f19603f3d011682016040523d82523d6000602084013e62002d9e565b606091505b509150915062002dc982826040518060600160405280602781526020016200525a60279139620030ec565b9250505092915050565b6000819050919050565b62002de88162002c23565b8073ffffffffffffffffffffffffffffffffffffffff167fbc7cd75a20ee27fd9adebab32041f755214dbc6bffa90cc0225b39da2e5c2d3b60405160405180910390a250565b600062002e92826040518060400160405280602081526020017f5361666545524332303a206c6f772d6c6576656c2063616c6c206661696c65648152508573ffffffffffffffffffffffffffffffffffffffff16620031589092919063ffffffff16565b905060008151111562002ef8578080602001905181019062002eb59190620034d1565b62002ef7576040517f08c379a000000000000000000000000000000000000000000000000000000000815260040162002eee9062003cc0565b60405180910390fd5b5b505050565b600060019054906101000a900460ff168062002f24575060008054906101000a900460ff16155b62002f66576040517f08c379a000000000000000000000000000000000000000000000000000000000815260040162002f5d9062003bf4565b60405180910390fd5b60008060019054906101000a900460ff16159050801562002fb7576001600060016101000a81548160ff02191690831515021790555060016000806101000a81548160ff0219169083151502179055505b801562002fd95760008060016101000a81548160ff0219169083151502179055505b50565b600060019054906101000a900460ff168062003003575060008054906101000a900460ff16155b62003045576040517f08c379a00000000000000000000000000000000000000000000000000000000081526004016200303c9062003bf4565b60405180910390fd5b60008060019054906101000a900460ff16159050801562003096576001600060016101000a81548160ff02191690831515021790555060016000806101000a81548160ff0219169083151502179055505b620030aa620030a4620023e4565b62002984565b8015620030cc5760008060016101000a81548160ff0219169083151502179055505b50565b6000819050919050565b600080823b905060008111915050919050565b60608315620030fe5782905062003151565b600083511115620031125782518084602001fd5b816040517f08c379a000000000000000000000000000000000000000000000000000000000815260040162003148919062003b6a565b60405180910390fd5b9392505050565b606062003169848460008562003172565b90509392505050565b606082471015620031ba576040517f08c379a0000000000000000000000000000000000000000000000000000000008152600401620031b19062003bd2565b60405180910390fd5b620031c58562003294565b62003207576040517f08c379a0000000000000000000000000000000000000000000000000000000008152600401620031fe9062003c7c565b60405180910390fd5b6000808673ffffffffffffffffffffffffffffffffffffffff168587604051620032329190620039f9565b60006040518083038185875af1925050503d806000811462003271576040519150601f19603f3d011682016040523d82523d6000602084013e62003276565b606091505b509150915062003288828286620032a7565b92505050949350505050565b600080823b905060008111915050919050565b60608315620032b9578290506200330c565b600083511115620032cd5782518084602001fd5b816040517f08c379a000000000000000000000000000000000000000000000000000000000815260040162003303919062003b6a565b60405180910390fd5b9392505050565b610ced806200456d83390190565b600062003338620033328462003dbb565b62003d92565b9050828152602081018484840111156200335157600080fd5b6200335e8482856200403e565b509392505050565b6000813590506200337781620044ea565b92915050565b6000813590506200338e8162004504565b92915050565b600081519050620033a58162004504565b92915050565b600082601f830112620033bd57600080fd5b8135620033cf84826020860162003321565b91505092915050565b600081359050620033e9816200451e565b92915050565b60008151905062003400816200451e565b92915050565b600081359050620034178162004538565b92915050565b6000813590506200342e8162004552565b92915050565b600081519050620034458162004552565b92915050565b6000602082840312156200345e57600080fd5b60006200346e8482850162003366565b91505092915050565b600080604083850312156200348b57600080fd5b60006200349b8582860162003366565b925050602083013567ffffffffffffffff811115620034b957600080fd5b620034c785828601620033ab565b9150509250929050565b600060208284031215620034e457600080fd5b6000620034f48482850162003394565b91505092915050565b6000602082840312156200351057600080fd5b60006200352084828501620033ef565b91505092915050565b6000806000606084860312156200353f57600080fd5b60006200354f86828701620033d8565b935050602062003562868287016200341d565b925050604062003575868287016200341d565b9150509250925092565b6000602082840312156200359257600080fd5b6000620035a28482850162003406565b91505092915050565b600060208284031215620035be57600080fd5b6000620035ce848285016200341d565b91505092915050565b600060208284031215620035ea57600080fd5b6000620035fa8482850162003434565b91505092915050565b600080604083850312156200361757600080fd5b600062003627858286016200341d565b92505060206200363a8582860162003366565b9150509250929050565b6000806000606084860312156200365a57600080fd5b60006200366a868287016200341d565b93505060206200367d86828701620033d8565b925050604062003690868287016200337d565b9150509250925092565b60008060408385031215620036ae57600080fd5b6000620036be858286016200341d565b9250506020620036d1858286016200341d565b9150509250929050565b600080600060608486031215620036f157600080fd5b600062003701868287016200341d565b935050602062003714868287016200341d565b925050604062003727868287016200337d565b9150509250925092565b6200373c8162003f54565b82525050565b60006200374f8262003df1565b6200375b818562003e07565b93506200376d8185602086016200404d565b80840191505092915050565b620037848162003fc6565b82525050565b620037958162003fee565b82525050565b620037a68162004016565b82525050565b6000620037b98262003dfc565b620037c5818562003e12565b9350620037d78185602086016200404d565b620037e28162004194565b840191505092915050565b6000620037fc602f8362003e12565b91506200380982620041a5565b604082019050919050565b60006200382360268362003e12565b91506200383082620041f4565b604082019050919050565b60006200384a60268362003e12565b9150620038578262004243565b604082019050919050565b600062003871602e8362003e12565b91506200387e8262004292565b604082019050919050565b600062003898602d8362003e12565b9150620038a582620042e1565b604082019050919050565b6000620038bf60208362003e12565b9150620038cc8262004330565b602082019050919050565b6000620038e660268362003e12565b9150620038f38262004359565b604082019050919050565b60006200390d601d8362003e12565b91506200391a82620043a8565b602082019050919050565b60006200393460128362003e12565b91506200394182620043d1565b602082019050919050565b60006200395b602a8362003e12565b91506200396882620043fa565b604082019050919050565b600062003982600c8362003e12565b91506200398f8262004449565b602082019050919050565b6000620039a960368362003e12565b9150620039b68262004472565b604082019050919050565b6000620039d060148362003e12565b9150620039dd82620044c1565b602082019050919050565b620039f38162003fbc565b82525050565b600062003a07828462003742565b915081905092915050565b600060208201905062003a29600083018462003731565b92915050565b600060408201905062003a46600083018562003731565b62003a55602083018462003731565b9392505050565b600060608201905062003a73600083018662003731565b62003a82602083018562003731565b62003a916040830184620039e8565b949350505050565b600060408201905062003ab0600083018562003731565b62003abf6020830184620039e8565b9392505050565b600060208201905062003add600083018462003779565b92915050565b600060808201905062003afa600083018762003779565b62003b096020830186620039e8565b62003b186040830185620039e8565b62003b276060830184620039e8565b95945050505050565b600060208201905062003b4760008301846200378a565b92915050565b600060208201905062003b6460008301846200379b565b92915050565b6000602082019050818103600083015262003b868184620037ac565b905092915050565b6000602082019050818103600083015262003ba981620037ed565b9050919050565b6000602082019050818103600083015262003bcb8162003814565b9050919050565b6000602082019050818103600083015262003bed816200383b565b9050919050565b6000602082019050818103600083015262003c0f8162003862565b9050919050565b6000602082019050818103600083015262003c318162003889565b9050919050565b6000602082019050818103600083015262003c5381620038b0565b9050919050565b6000602082019050818103600083015262003c7581620038d7565b9050919050565b6000602082019050818103600083015262003c9781620038fe565b9050919050565b6000602082019050818103600083015262003cb98162003925565b9050919050565b6000602082019050818103600083015262003cdb816200394c565b9050919050565b6000602082019050818103600083015262003cfd8162003973565b9050919050565b6000602082019050818103600083015262003d1f816200399a565b9050919050565b6000602082019050818103600083015262003d4181620039c1565b9050919050565b600060208201905062003d5f6000830184620039e8565b92915050565b600060408201905062003d7c6000830185620039e8565b62003d8b6020830184620039e8565b9392505050565b600062003d9e62003db1565b905062003dac828262004083565b919050565b6000604051905090565b600067ffffffffffffffff82111562003dd95762003dd862004165565b5b62003de48262004194565b9050602081019050919050565b600081519050919050565b600081519050919050565b600081905092915050565b600082825260208201905092915050565b600062003e308262003fbc565b915062003e3d8362003fbc565b9250827fffffffffffffffffffffffffffffffffffffffffffffffffffffffffffffffff0382111562003e755762003e7462004107565b5b828201905092915050565b600062003e8d8262003fbc565b915062003e9a8362003fbc565b92508262003ead5762003eac62004136565b5b828204905092915050565b600062003ec58262003fbc565b915062003ed28362003fbc565b9250817fffffffffffffffffffffffffffffffffffffffffffffffffffffffffffffffff048311821515161562003f0e5762003f0d62004107565b5b828202905092915050565b600062003f268262003fbc565b915062003f338362003fbc565b92508282101562003f495762003f4862004107565b5b828203905092915050565b600062003f618262003f9c565b9050919050565b60008115159050919050565b600062003f818262003f54565b9050919050565b600062003f958262003f54565b9050919050565b600073ffffffffffffffffffffffffffffffffffffffff82169050919050565b6000819050919050565b600062003fd38262003fda565b9050919050565b600062003fe78262003f9c565b9050919050565b600062003ffb8262004002565b9050919050565b60006200400f8262003f9c565b9050919050565b600062004023826200402a565b9050919050565b6000620040378262003f9c565b9050919050565b82818337600083830152505050565b60005b838110156200406d57808201518184015260208101905062004050565b838111156200407d576000848401525b50505050565b6200408e8262004194565b810181811067ffffffffffffffff82111715620040b057620040af62004165565b5b80604052505050565b6000620040c68262003fbc565b91507fffffffffffffffffffffffffffffffffffffffffffffffffffffffffffffffff821415620040fc57620040fb62004107565b5b600182019050919050565b7f4e487b7100000000000000000000000000000000000000000000000000000000600052601160045260246000fd5b7f4e487b7100000000000000000000000000000000000000000000000000000000600052601260045260246000fd5b7f4e487b7100000000000000000000000000000000000000000000000000000000600052604160045260246000fd5b6000601f19601f8301169050919050565b7f45524331393637557067726164653a207570677261646520627265616b73206660008201527f7572746865722075706772616465730000000000000000000000000000000000602082015250565b7f4f776e61626c653a206e6577206f776e657220697320746865207a65726f206160008201527f6464726573730000000000000000000000000000000000000000000000000000602082015250565b7f416464726573733a20696e73756666696369656e742062616c616e636520666f60008201527f722063616c6c0000000000000000000000000000000000000000000000000000602082015250565b7f496e697469616c697a61626c653a20636f6e747261637420697320616c72656160008201527f647920696e697469616c697a6564000000000000000000000000000000000000602082015250565b7f455243313936373a206e657720696d706c656d656e746174696f6e206973206e60008201527f6f74206120636f6e747261637400000000000000000000000000000000000000602082015250565b7f4f776e61626c653a2063616c6c6572206973206e6f7420746865206f776e6572600082015250565b7f416464726573733a2064656c65676174652063616c6c20746f206e6f6e2d636f60008201527f6e74726163740000000000000000000000000000000000000000000000000000602082015250565b7f416464726573733a2063616c6c20746f206e6f6e2d636f6e7472616374000000600082015250565b7f77697468647261773a206e6f7420676f6f640000000000000000000000000000600082015250565b7f5361666545524332303a204552433230206f7065726174696f6e20646964206e60008201527f6f74207375636365656400000000000000000000000000000000000000000000602082015250565b7f6d6967726174653a206261640000000000000000000000000000000000000000600082015250565b7f5361666545524332303a20617070726f76652066726f6d206e6f6e2d7a65726f60008201527f20746f206e6f6e2d7a65726f20616c6c6f77616e636500000000000000000000602082015250565b7f6d6967726174653a206e6f206d69677261746f72000000000000000000000000600082015250565b620044f58162003f54565b81146200450157600080fd5b50565b6200450f8162003f68565b81146200451b57600080fd5b50565b620045298162003f74565b81146200453557600080fd5b50565b620045438162003f88565b81146200454f57600080fd5b50565b6200455d8162003fbc565b81146200456957600080fd5b5056fe608060405234801561001057600080fd5b50604051610ced380380610ced833981810160405281019061003291906100ce565b806000806101000a81548173ffffffffffffffffffffffffffffffffffffffff021916908373ffffffffffffffffffffffffffffffffffffffff16021790555033600160006101000a81548173ffffffffffffffffffffffffffffffffffffffff021916908373ffffffffffffffffffffffffffffffffffffffff16021790555050610152565b6000815190506100c88161013b565b92915050565b6000602082840312156100e057600080fd5b60006100ee848285016100b9565b91505092915050565b60006101028261011b565b9050919050565b6000610114826100f7565b9050919050565b600073ffffffffffffffffffffffffffffffffffffffff82169050919050565b61014481610109565b811461014f57600080fd5b50565b610b8c806101616000396000f3fe608060405234801561001057600080fd5b50600436106100415760003560e01c80638da5cb5b14610046578063e5c9ad2e14610064578063e6d41a8214610082575b600080fd5b61004e6100b2565b60405161005b91906107fd565b60405180910390f35b61006c6100d8565b6040516100799190610841565b60405180910390f35b61009c60048036038101906100979190610635565b6100fc565b6040516100a991906108fe565b60405180910390f35b600160009054906101000a900473ffffffffffffffffffffffffffffffffffffffff1681565b60008054906101000a900473ffffffffffffffffffffffffffffffffffffffff1681565b6000600160009054906101000a900473ffffffffffffffffffffffffffffffffffffffff1673ffffffffffffffffffffffffffffffffffffffff163373ffffffffffffffffffffffffffffffffffffffff161461018e576040517f08c379a00000000000000000000000000000000000000000000000000000000081526004016101859061089e565b60405180910390fd5b60008060009054906101000a900473ffffffffffffffffffffffffffffffffffffffff1673ffffffffffffffffffffffffffffffffffffffff166370a08231306040518263ffffffff1660e01b81526004016101ea91906107fd565b60206040518083038186803b15801561020257600080fd5b505afa158015610216573d6000803e3d6000fd5b505050506040513d601f19601f8201168201806040525081019061023a919061069a565b9050808311156102985761028f848260008054906101000a900473ffffffffffffffffffffffffffffffffffffffff1673ffffffffffffffffffffffffffffffffffffffff166102ee9092919063ffffffff16565b809150506102e8565b6102e3848460008054906101000a900473ffffffffffffffffffffffffffffffffffffffff1673ffffffffffffffffffffffffffffffffffffffff166102ee9092919063ffffffff16565b829150505b92915050565b61036f8363a9059cbb60e01b848460405160240161030d929190610818565b604051602081830303815290604052907bffffffffffffffffffffffffffffffffffffffffffffffffffffffff19166020820180517bffffffffffffffffffffffffffffffffffffffffffffffffffffffff8381831617835250505050610374565b505050565b60006103d6826040518060400160405280602081526020017f5361666545524332303a206c6f772d6c6576656c2063616c6c206661696c65648152508573ffffffffffffffffffffffffffffffffffffffff1661043b9092919063ffffffff16565b905060008151111561043657808060200190518101906103f69190610671565b610435576040517f08c379a000000000000000000000000000000000000000000000000000000000815260040161042c906108de565b60405180910390fd5b5b505050565b606061044a8484600085610453565b90509392505050565b606082471015610498576040517f08c379a000000000000000000000000000000000000000000000000000000000815260040161048f9061087e565b60405180910390fd5b6104a185610567565b6104e0576040517f08c379a00000000000000000000000000000000000000000000000000000000081526004016104d7906108be565b60405180910390fd5b6000808673ffffffffffffffffffffffffffffffffffffffff16858760405161050991906107e6565b60006040518083038185875af1925050503d8060008114610546576040519150601f19603f3d011682016040523d82523d6000602084013e61054b565b606091505b509150915061055b82828661057a565b92505050949350505050565b600080823b905060008111915050919050565b6060831561058a578290506105da565b60008351111561059d5782518084602001fd5b816040517f08c379a00000000000000000000000000000000000000000000000000000000081526004016105d1919061085c565b60405180910390fd5b9392505050565b6000813590506105f081610b11565b92915050565b60008151905061060581610b28565b92915050565b60008135905061061a81610b3f565b92915050565b60008151905061062f81610b3f565b92915050565b6000806040838503121561064857600080fd5b6000610656858286016105e1565b92505060206106678582860161060b565b9150509250929050565b60006020828403121561068357600080fd5b6000610691848285016105f6565b91505092915050565b6000602082840312156106ac57600080fd5b60006106ba84828501610620565b91505092915050565b6106cc8161094b565b82525050565b60006106dd82610919565b6106e7818561092f565b93506106f78185602086016109b7565b80840191505092915050565b61070c81610993565b82525050565b600061071d82610924565b610727818561093a565b93506107378185602086016109b7565b610740816109ea565b840191505092915050565b600061075860268361093a565b9150610763826109fb565b604082019050919050565b600061077b60248361093a565b915061078682610a4a565b604082019050919050565b600061079e601d8361093a565b91506107a982610a99565b602082019050919050565b60006107c1602a8361093a565b91506107cc82610ac2565b604082019050919050565b6107e081610989565b82525050565b60006107f282846106d2565b915081905092915050565b600060208201905061081260008301846106c3565b92915050565b600060408201905061082d60008301856106c3565b61083a60208301846107d7565b9392505050565b60006020820190506108566000830184610703565b92915050565b600060208201905081810360008301526108768184610712565b905092915050565b600060208201905081810360008301526108978161074b565b9050919050565b600060208201905081810360008301526108b78161076e565b9050919050565b600060208201905081810360008301526108d781610791565b9050919050565b600060208201905081810360008301526108f7816107b4565b9050919050565b600060208201905061091360008301846107d7565b92915050565b600081519050919050565b600081519050919050565b600081905092915050565b600082825260208201905092915050565b600061095682610969565b9050919050565b60008115159050919050565b600073ffffffffffffffffffffffffffffffffffffffff82169050919050565b6000819050919050565b600061099e826109a5565b9050919050565b60006109b082610969565b9050919050565b60005b838110156109d55780820151818401526020810190506109ba565b838111156109e4576000848401525b50505050565b6000601f19601f8301169050919050565b7f416464726573733a20696e73756666696369656e742062616c616e636520666f60008201527f722063616c6c0000000000000000000000000000000000000000000000000000602082015250565b7f57616c6c65743a204f6e6c79204d6173746572507265642063616e207472616e60008201527f7366657200000000000000000000000000000000000000000000000000000000602082015250565b7f416464726573733a2063616c6c20746f206e6f6e2d636f6e7472616374000000600082015250565b7f5361666545524332303a204552433230206f7065726174696f6e20646964206e60008201527f6f74207375636365656400000000000000000000000000000000000000000000602082015250565b610b1a8161094b565b8114610b2557600080fd5b50565b610b318161095d565b8114610b3c57600080fd5b50565b610b4881610989565b8114610b5357600080fd5b5056fea2646970667358221220396f74d03d1c75f8feb040e1f1afc01c0bad20363c28802ec4373bde0c09e8cf64736f6c63430008020033416464726573733a206c6f772d6c6576656c2064656c65676174652063616c6c206661696c6564a2646970667358221220ab55830ea74f5d0dcdd64d42fccff845088aaad70cbc2089fb781c6d61ee85ab64736f6c63430008020033",
			"opcodes": "PUSH1 0x80 PUSH1 0x40 MSTORE PUSH1 0x1 PUSH1 0xCB SSTORE PUSH1 0x0 PUSH1 0xD0 SSTORE CALLVALUE DUP1 ISZERO PUSH2 0x1A JUMPI PUSH1 0x0 DUP1 REVERT JUMPDEST POP PUSH2 0x52B6 DUP1 PUSH2 0x2A PUSH1 0x0 CODECOPY PUSH1 0x0 RETURN INVALID PUSH1 0x80 PUSH1 0x40 MSTORE PUSH1 0x4 CALLDATASIZE LT PUSH3 0x1EE JUMPI PUSH1 0x0 CALLDATALOAD PUSH1 0xE0 SHR DUP1 PUSH4 0x5FFE6146 GT PUSH3 0x10F JUMPI DUP1 PUSH4 0x83BB3877 GT PUSH3 0xA3 JUMPI DUP1 PUSH4 0x93F1A40B GT PUSH3 0x6D JUMPI DUP1 PUSH4 0x93F1A40B EQ PUSH3 0x692 JUMPI DUP1 PUSH4 0xE2BBB158 EQ PUSH3 0x6D7 JUMPI DUP1 PUSH4 0xE5C9AD2E EQ PUSH3 0x705 JUMPI DUP1 PUSH4 0xF2FDE38B EQ PUSH3 0x735 JUMPI PUSH3 0x1EE JUMP JUMPDEST DUP1 PUSH4 0x83BB3877 EQ PUSH3 0x5BE JUMPI DUP1 PUSH4 0x8AA28550 EQ PUSH3 0x5EE JUMPI DUP1 PUSH4 0x8DA5CB5B EQ PUSH3 0x61E JUMPI DUP1 PUSH4 0x8DBB1E3A EQ PUSH3 0x64E JUMPI PUSH3 0x1EE JUMP JUMPDEST DUP1 PUSH4 0x6450B8A9 GT PUSH3 0xE5 JUMPI DUP1 PUSH4 0x6450B8A9 EQ PUSH3 0x502 JUMPI DUP1 PUSH4 0x715018A6 EQ PUSH3 0x546 JUMPI DUP1 PUSH4 0x7A1AC61E EQ PUSH3 0x560 JUMPI DUP1 PUSH4 0x7CD07E47 EQ PUSH3 0x58E JUMPI PUSH3 0x1EE JUMP JUMPDEST DUP1 PUSH4 0x5FFE6146 EQ PUSH3 0x48C JUMPI DUP1 PUSH4 0x630B5BA1 EQ PUSH3 0x4BA JUMPI DUP1 PUSH4 0x64482F79 EQ PUSH3 0x4D4 JUMPI PUSH3 0x1EE JUMP JUMPDEST DUP1 PUSH4 0x441A3E70 GT PUSH3 0x187 JUMPI DUP1 PUSH4 0x4F1EF286 GT PUSH3 0x15D JUMPI DUP1 PUSH4 0x4F1EF286 EQ PUSH3 0x3E0 JUMPI DUP1 PUSH4 0x51EB05A6 EQ PUSH3 0x400 JUMPI DUP1 PUSH4 0x521EB273 EQ PUSH3 0x42E JUMPI DUP1 PUSH4 0x5312EA8E EQ PUSH3 0x45E JUMPI PUSH3 0x1EE JUMP JUMPDEST DUP1 PUSH4 0x441A3E70 EQ PUSH3 0x354 JUMPI DUP1 PUSH4 0x454B0608 EQ PUSH3 0x382 JUMPI DUP1 PUSH4 0x48CD4CB1 EQ PUSH3 0x3B0 JUMPI PUSH3 0x1EE JUMP JUMPDEST DUP1 PUSH4 0x1EAAA045 GT PUSH3 0x1C9 JUMPI DUP1 PUSH4 0x1EAAA045 EQ PUSH3 0x29A JUMPI DUP1 PUSH4 0x1FC7BE89 EQ PUSH3 0x2C8 JUMPI DUP1 PUSH4 0x23CF3118 EQ PUSH3 0x2F8 JUMPI DUP1 PUSH4 0x3659CFE6 EQ PUSH3 0x326 JUMPI PUSH3 0x1EE JUMP JUMPDEST DUP1 PUSH4 0x81E3EDA EQ PUSH3 0x1F3 JUMPI DUP1 PUSH4 0x1526FE27 EQ PUSH3 0x223 JUMPI DUP1 PUSH4 0x17CAF6F1 EQ PUSH3 0x26A JUMPI JUMPDEST PUSH1 0x0 DUP1 REVERT JUMPDEST CALLVALUE DUP1 ISZERO PUSH3 0x200 JUMPI PUSH1 0x0 DUP1 REVERT JUMPDEST POP PUSH3 0x20B PUSH3 0x763 JUMP JUMPDEST PUSH1 0x40 MLOAD PUSH3 0x21A SWAP2 SWAP1 PUSH3 0x3D48 JUMP JUMPDEST PUSH1 0x40 MLOAD DUP1 SWAP2 SUB SWAP1 RETURN JUMPDEST CALLVALUE DUP1 ISZERO PUSH3 0x230 JUMPI PUSH1 0x0 DUP1 REVERT JUMPDEST POP PUSH3 0x24F PUSH1 0x4 DUP1 CALLDATASIZE SUB DUP2 ADD SWAP1 PUSH3 0x249 SWAP2 SWAP1 PUSH3 0x35AB JUMP JUMPDEST PUSH3 0x770 JUMP JUMPDEST PUSH1 0x40 MLOAD PUSH3 0x261 SWAP5 SWAP4 SWAP3 SWAP2 SWAP1 PUSH3 0x3AE3 JUMP JUMPDEST PUSH1 0x40 MLOAD DUP1 SWAP2 SUB SWAP1 RETURN JUMPDEST CALLVALUE DUP1 ISZERO PUSH3 0x277 JUMPI PUSH1 0x0 DUP1 REVERT JUMPDEST POP PUSH3 0x282 PUSH3 0x7D1 JUMP JUMPDEST PUSH1 0x40 MLOAD PUSH3 0x291 SWAP2 SWAP1 PUSH3 0x3D48 JUMP JUMPDEST PUSH1 0x40 MLOAD DUP1 SWAP2 SUB SWAP1 RETURN JUMPDEST CALLVALUE DUP1 ISZERO PUSH3 0x2A7 JUMPI PUSH1 0x0 DUP1 REVERT JUMPDEST POP PUSH3 0x2C6 PUSH1 0x4 DUP1 CALLDATASIZE SUB DUP2 ADD SWAP1 PUSH3 0x2C0 SWAP2 SWAP1 PUSH3 0x3644 JUMP JUMPDEST PUSH3 0x7D7 JUMP JUMPDEST STOP JUMPDEST CALLVALUE DUP1 ISZERO PUSH3 0x2D5 JUMPI PUSH1 0x0 DUP1 REVERT JUMPDEST POP PUSH3 0x2E0 PUSH3 0x972 JUMP JUMPDEST PUSH1 0x40 MLOAD PUSH3 0x2EF SWAP2 SWAP1 PUSH3 0x3D48 JUMP JUMPDEST PUSH1 0x40 MLOAD DUP1 SWAP2 SUB SWAP1 RETURN JUMPDEST CALLVALUE DUP1 ISZERO PUSH3 0x305 JUMPI PUSH1 0x0 DUP1 REVERT JUMPDEST POP PUSH3 0x324 PUSH1 0x4 DUP1 CALLDATASIZE SUB DUP2 ADD SWAP1 PUSH3 0x31E SWAP2 SWAP1 PUSH3 0x357F JUMP JUMPDEST PUSH3 0x978 JUMP JUMPDEST STOP JUMPDEST CALLVALUE DUP1 ISZERO PUSH3 0x333 JUMPI PUSH1 0x0 DUP1 REVERT JUMPDEST POP PUSH3 0x352 PUSH1 0x4 DUP1 CALLDATASIZE SUB DUP2 ADD SWAP1 PUSH3 0x34C SWAP2 SWAP1 PUSH3 0x344B JUMP JUMPDEST PUSH3 0xA3F JUMP JUMPDEST STOP JUMPDEST CALLVALUE DUP1 ISZERO PUSH3 0x361 JUMPI PUSH1 0x0 DUP1 REVERT JUMPDEST POP PUSH3 0x380 PUSH1 0x4 DUP1 CALLDATASIZE SUB DUP2 ADD SWAP1 PUSH3 0x37A SWAP2 SWAP1 PUSH3 0x369A JUMP JUMPDEST PUSH3 0xA6A JUMP JUMPDEST STOP JUMPDEST CALLVALUE DUP1 ISZERO PUSH3 0x38F JUMPI PUSH1 0x0 DUP1 REVERT JUMPDEST POP PUSH3 0x3AE PUSH1 0x4 DUP1 CALLDATASIZE SUB DUP2 ADD SWAP1 PUSH3 0x3A8 SWAP2 SWAP1 PUSH3 0x35AB JUMP JUMPDEST PUSH3 0xCDC JUMP JUMPDEST STOP JUMPDEST CALLVALUE DUP1 ISZERO PUSH3 0x3BD JUMPI PUSH1 0x0 DUP1 REVERT JUMPDEST POP PUSH3 0x3C8 PUSH3 0x109D JUMP JUMPDEST PUSH1 0x40 MLOAD PUSH3 0x3D7 SWAP2 SWAP1 PUSH3 0x3D48 JUMP JUMPDEST PUSH1 0x40 MLOAD DUP1 SWAP2 SUB SWAP1 RETURN JUMPDEST PUSH3 0x3FE PUSH1 0x4 DUP1 CALLDATASIZE SUB DUP2 ADD SWAP1 PUSH3 0x3F8 SWAP2 SWAP1 PUSH3 0x3477 JUMP JUMPDEST PUSH3 0x10A3 JUMP JUMPDEST STOP JUMPDEST CALLVALUE DUP1 ISZERO PUSH3 0x40D JUMPI PUSH1 0x0 DUP1 REVERT JUMPDEST POP PUSH3 0x42C PUSH1 0x4 DUP1 CALLDATASIZE SUB DUP2 ADD SWAP1 PUSH3 0x426 SWAP2 SWAP1 PUSH3 0x35AB JUMP JUMPDEST PUSH3 0x10C0 JUMP JUMPDEST STOP JUMPDEST CALLVALUE DUP1 ISZERO PUSH3 0x43B JUMPI PUSH1 0x0 DUP1 REVERT JUMPDEST POP PUSH3 0x446 PUSH3 0x13C5 JUMP JUMPDEST PUSH1 0x40 MLOAD PUSH3 0x455 SWAP2 SWAP1 PUSH3 0x3B4D JUMP JUMPDEST PUSH1 0x40 MLOAD DUP1 SWAP2 SUB SWAP1 RETURN JUMPDEST CALLVALUE DUP1 ISZERO PUSH3 0x46B JUMPI PUSH1 0x0 DUP1 REVERT JUMPDEST POP PUSH3 0x48A PUSH1 0x4 DUP1 CALLDATASIZE SUB DUP2 ADD SWAP1 PUSH3 0x484 SWAP2 SWAP1 PUSH3 0x35AB JUMP JUMPDEST PUSH3 0x13EB JUMP JUMPDEST STOP JUMPDEST CALLVALUE DUP1 ISZERO PUSH3 0x499 JUMPI PUSH1 0x0 DUP1 REVERT JUMPDEST POP PUSH3 0x4B8 PUSH1 0x4 DUP1 CALLDATASIZE SUB DUP2 ADD SWAP1 PUSH3 0x4B2 SWAP2 SWAP1 PUSH3 0x35AB JUMP JUMPDEST PUSH3 0x1579 JUMP JUMPDEST STOP JUMPDEST CALLVALUE DUP1 ISZERO PUSH3 0x4C7 JUMPI PUSH1 0x0 DUP1 REVERT JUMPDEST POP PUSH3 0x4D2 PUSH3 0x1606 JUMP JUMPDEST STOP JUMPDEST CALLVALUE DUP1 ISZERO PUSH3 0x4E1 JUMPI PUSH1 0x0 DUP1 REVERT JUMPDEST POP PUSH3 0x500 PUSH1 0x4 DUP1 CALLDATASIZE SUB DUP2 ADD SWAP1 PUSH3 0x4FA SWAP2 SWAP1 PUSH3 0x36DB JUMP JUMPDEST PUSH3 0x163F JUMP JUMPDEST STOP JUMPDEST CALLVALUE DUP1 ISZERO PUSH3 0x50F JUMPI PUSH1 0x0 DUP1 REVERT JUMPDEST POP PUSH3 0x52E PUSH1 0x4 DUP1 CALLDATASIZE SUB DUP2 ADD SWAP1 PUSH3 0x528 SWAP2 SWAP1 PUSH3 0x3603 JUMP JUMPDEST PUSH3 0x17B6 JUMP JUMPDEST PUSH1 0x40 MLOAD PUSH3 0x53D SWAP2 SWAP1 PUSH3 0x3D48 JUMP JUMPDEST PUSH1 0x40 MLOAD DUP1 SWAP2 SUB SWAP1 RETURN JUMPDEST CALLVALUE DUP1 ISZERO PUSH3 0x553 JUMPI PUSH1 0x0 DUP1 REVERT JUMPDEST POP PUSH3 0x55E PUSH3 0x1B27 JUMP JUMPDEST STOP JUMPDEST CALLVALUE DUP1 ISZERO PUSH3 0x56D JUMPI PUSH1 0x0 DUP1 REVERT JUMPDEST POP PUSH3 0x58C PUSH1 0x4 DUP1 CALLDATASIZE SUB DUP2 ADD SWAP1 PUSH3 0x586 SWAP2 SWAP1 PUSH3 0x3529 JUMP JUMPDEST PUSH3 0x1BB8 JUMP JUMPDEST STOP JUMPDEST CALLVALUE DUP1 ISZERO PUSH3 0x59B JUMPI PUSH1 0x0 DUP1 REVERT JUMPDEST POP PUSH3 0x5A6 PUSH3 0x1E41 JUMP JUMPDEST PUSH1 0x40 MLOAD PUSH3 0x5B5 SWAP2 SWAP1 PUSH3 0x3B30 JUMP JUMPDEST PUSH1 0x40 MLOAD DUP1 SWAP2 SUB SWAP1 RETURN JUMPDEST CALLVALUE DUP1 ISZERO PUSH3 0x5CB JUMPI PUSH1 0x0 DUP1 REVERT JUMPDEST POP PUSH3 0x5D6 PUSH3 0x1E67 JUMP JUMPDEST PUSH1 0x40 MLOAD PUSH3 0x5E5 SWAP2 SWAP1 PUSH3 0x3D48 JUMP JUMPDEST PUSH1 0x40 MLOAD DUP1 SWAP2 SUB SWAP1 RETURN JUMPDEST CALLVALUE DUP1 ISZERO PUSH3 0x5FB JUMPI PUSH1 0x0 DUP1 REVERT JUMPDEST POP PUSH3 0x606 PUSH3 0x1E6D JUMP JUMPDEST PUSH1 0x40 MLOAD PUSH3 0x615 SWAP2 SWAP1 PUSH3 0x3D48 JUMP JUMPDEST PUSH1 0x40 MLOAD DUP1 SWAP2 SUB SWAP1 RETURN JUMPDEST CALLVALUE DUP1 ISZERO PUSH3 0x62B JUMPI PUSH1 0x0 DUP1 REVERT JUMPDEST POP PUSH3 0x636 PUSH3 0x1E73 JUMP JUMPDEST PUSH1 0x40 MLOAD PUSH3 0x645 SWAP2 SWAP1 PUSH3 0x3A12 JUMP JUMPDEST PUSH1 0x40 MLOAD DUP1 SWAP2 SUB SWAP1 RETURN JUMPDEST CALLVALUE DUP1 ISZERO PUSH3 0x65B JUMPI PUSH1 0x0 DUP1 REVERT JUMPDEST POP PUSH3 0x67A PUSH1 0x4 DUP1 CALLDATASIZE SUB DUP2 ADD SWAP1 PUSH3 0x674 SWAP2 SWAP1 PUSH3 0x369A JUMP JUMPDEST PUSH3 0x1E9D JUMP JUMPDEST PUSH1 0x40 MLOAD PUSH3 0x689 SWAP2 SWAP1 PUSH3 0x3D48 JUMP JUMPDEST PUSH1 0x40 MLOAD DUP1 SWAP2 SUB SWAP1 RETURN JUMPDEST CALLVALUE DUP1 ISZERO PUSH3 0x69F JUMPI PUSH1 0x0 DUP1 REVERT JUMPDEST POP PUSH3 0x6BE PUSH1 0x4 DUP1 CALLDATASIZE SUB DUP2 ADD SWAP1 PUSH3 0x6B8 SWAP2 SWAP1 PUSH3 0x3603 JUMP JUMPDEST PUSH3 0x1ED2 JUMP JUMPDEST PUSH1 0x40 MLOAD PUSH3 0x6CE SWAP3 SWAP2 SWAP1 PUSH3 0x3D65 JUMP JUMPDEST PUSH1 0x40 MLOAD DUP1 SWAP2 SUB SWAP1 RETURN JUMPDEST CALLVALUE DUP1 ISZERO PUSH3 0x6E4 JUMPI PUSH1 0x0 DUP1 REVERT JUMPDEST POP PUSH3 0x703 PUSH1 0x4 DUP1 CALLDATASIZE SUB DUP2 ADD SWAP1 PUSH3 0x6FD SWAP2 SWAP1 PUSH3 0x369A JUMP JUMPDEST PUSH3 0x1F03 JUMP JUMPDEST STOP JUMPDEST CALLVALUE DUP1 ISZERO PUSH3 0x712 JUMPI PUSH1 0x0 DUP1 REVERT JUMPDEST POP PUSH3 0x71D PUSH3 0x22BA JUMP JUMPDEST PUSH1 0x40 MLOAD PUSH3 0x72C SWAP2 SWAP1 PUSH3 0x3AC6 JUMP JUMPDEST PUSH1 0x40 MLOAD DUP1 SWAP2 SUB SWAP1 RETURN JUMPDEST CALLVALUE DUP1 ISZERO PUSH3 0x742 JUMPI PUSH1 0x0 DUP1 REVERT JUMPDEST POP PUSH3 0x761 PUSH1 0x4 DUP1 CALLDATASIZE SUB DUP2 ADD SWAP1 PUSH3 0x75B SWAP2 SWAP1 PUSH3 0x344B JUMP JUMPDEST PUSH3 0x22E0 JUMP JUMPDEST STOP JUMPDEST PUSH1 0x0 PUSH1 0xCE DUP1 SLOAD SWAP1 POP SWAP1 POP SWAP1 JUMP JUMPDEST PUSH1 0xCE DUP2 DUP2 SLOAD DUP2 LT PUSH3 0x781 JUMPI PUSH1 0x0 DUP1 REVERT JUMPDEST SWAP1 PUSH1 0x0 MSTORE PUSH1 0x20 PUSH1 0x0 KECCAK256 SWAP1 PUSH1 0x4 MUL ADD PUSH1 0x0 SWAP2 POP SWAP1 POP DUP1 PUSH1 0x0 ADD PUSH1 0x0 SWAP1 SLOAD SWAP1 PUSH2 0x100 EXP SWAP1 DIV PUSH20 0xFFFFFFFFFFFFFFFFFFFFFFFFFFFFFFFFFFFFFFFF AND SWAP1 DUP1 PUSH1 0x1 ADD SLOAD SWAP1 DUP1 PUSH1 0x2 ADD SLOAD SWAP1 DUP1 PUSH1 0x3 ADD SLOAD SWAP1 POP DUP5 JUMP JUMPDEST PUSH1 0xD0 SLOAD DUP2 JUMP JUMPDEST PUSH3 0x7E1 PUSH3 0x23E4 JUMP JUMPDEST PUSH20 0xFFFFFFFFFFFFFFFFFFFFFFFFFFFFFFFFFFFFFFFF AND PUSH3 0x801 PUSH3 0x1E73 JUMP JUMPDEST PUSH20 0xFFFFFFFFFFFFFFFFFFFFFFFFFFFFFFFFFFFFFFFF AND EQ PUSH3 0x85A JUMPI PUSH1 0x40 MLOAD PUSH32 0x8C379A000000000000000000000000000000000000000000000000000000000 DUP2 MSTORE PUSH1 0x4 ADD PUSH3 0x851 SWAP1 PUSH3 0x3C38 JUMP JUMPDEST PUSH1 0x40 MLOAD DUP1 SWAP2 SUB SWAP1 REVERT JUMPDEST DUP1 ISZERO PUSH3 0x86C JUMPI PUSH3 0x86B PUSH3 0x1606 JUMP JUMPDEST JUMPDEST PUSH1 0x0 PUSH1 0xD1 SLOAD NUMBER GT PUSH3 0x881 JUMPI PUSH1 0xD1 SLOAD PUSH3 0x883 JUMP JUMPDEST NUMBER JUMPDEST SWAP1 POP PUSH3 0x89C DUP5 PUSH1 0xD0 SLOAD PUSH3 0x23EC SWAP1 SWAP2 SWAP1 PUSH4 0xFFFFFFFF AND JUMP JUMPDEST PUSH1 0xD0 DUP2 SWAP1 SSTORE POP PUSH1 0xCE PUSH1 0x40 MLOAD DUP1 PUSH1 0x80 ADD PUSH1 0x40 MSTORE DUP1 DUP6 PUSH20 0xFFFFFFFFFFFFFFFFFFFFFFFFFFFFFFFFFFFFFFFF AND DUP2 MSTORE PUSH1 0x20 ADD DUP7 DUP2 MSTORE PUSH1 0x20 ADD DUP4 DUP2 MSTORE PUSH1 0x20 ADD PUSH1 0x0 DUP2 MSTORE POP SWAP1 DUP1 PUSH1 0x1 DUP2 SLOAD ADD DUP1 DUP3 SSTORE DUP1 SWAP2 POP POP PUSH1 0x1 SWAP1 SUB SWAP1 PUSH1 0x0 MSTORE PUSH1 0x20 PUSH1 0x0 KECCAK256 SWAP1 PUSH1 0x4 MUL ADD PUSH1 0x0 SWAP1 SWAP2 SWAP1 SWAP2 SWAP1 SWAP2 POP PUSH1 0x0 DUP3 ADD MLOAD DUP2 PUSH1 0x0 ADD PUSH1 0x0 PUSH2 0x100 EXP DUP2 SLOAD DUP2 PUSH20 0xFFFFFFFFFFFFFFFFFFFFFFFFFFFFFFFFFFFFFFFF MUL NOT AND SWAP1 DUP4 PUSH20 0xFFFFFFFFFFFFFFFFFFFFFFFFFFFFFFFFFFFFFFFF AND MUL OR SWAP1 SSTORE POP PUSH1 0x20 DUP3 ADD MLOAD DUP2 PUSH1 0x1 ADD SSTORE PUSH1 0x40 DUP3 ADD MLOAD DUP2 PUSH1 0x2 ADD SSTORE PUSH1 0x60 DUP3 ADD MLOAD DUP2 PUSH1 0x3 ADD SSTORE POP POP POP POP POP POP JUMP JUMPDEST PUSH1 0xCA SLOAD DUP2 JUMP JUMPDEST PUSH3 0x982 PUSH3 0x23E4 JUMP JUMPDEST PUSH20 0xFFFFFFFFFFFFFFFFFFFFFFFFFFFFFFFFFFFFFFFF AND PUSH3 0x9A2 PUSH3 0x1E73 JUMP JUMPDEST PUSH20 0xFFFFFFFFFFFFFFFFFFFFFFFFFFFFFFFFFFFFFFFF AND EQ PUSH3 0x9FB JUMPI PUSH1 0x40 MLOAD PUSH32 0x8C379A000000000000000000000000000000000000000000000000000000000 DUP2 MSTORE PUSH1 0x4 ADD PUSH3 0x9F2 SWAP1 PUSH3 0x3C38 JUMP JUMPDEST PUSH1 0x40 MLOAD DUP1 SWAP2 SUB SWAP1 REVERT JUMPDEST DUP1 PUSH1 0xCC PUSH1 0x0 PUSH2 0x100 EXP DUP2 SLOAD DUP2 PUSH20 0xFFFFFFFFFFFFFFFFFFFFFFFFFFFFFFFFFFFFFFFF MUL NOT AND SWAP1 DUP4 PUSH20 0xFFFFFFFFFFFFFFFFFFFFFFFFFFFFFFFFFFFFFFFF AND MUL OR SWAP1 SSTORE POP POP JUMP JUMPDEST PUSH3 0xA4A DUP2 PUSH3 0x2404 JUMP JUMPDEST PUSH3 0xA67 DUP2 PUSH1 0x40 MLOAD DUP1 PUSH1 0x20 ADD PUSH1 0x40 MSTORE DUP1 PUSH1 0x0 DUP2 MSTORE POP PUSH1 0x0 PUSH3 0x248A JUMP JUMPDEST POP JUMP JUMPDEST PUSH1 0x0 PUSH1 0xCE DUP4 DUP2 SLOAD DUP2 LT PUSH3 0xAA7 JUMPI PUSH32 0x4E487B7100000000000000000000000000000000000000000000000000000000 PUSH1 0x0 MSTORE PUSH1 0x32 PUSH1 0x4 MSTORE PUSH1 0x24 PUSH1 0x0 REVERT JUMPDEST SWAP1 PUSH1 0x0 MSTORE PUSH1 0x20 PUSH1 0x0 KECCAK256 SWAP1 PUSH1 0x4 MUL ADD SWAP1 POP PUSH1 0x0 PUSH1 0xCF PUSH1 0x0 DUP6 DUP2 MSTORE PUSH1 0x20 ADD SWAP1 DUP2 MSTORE PUSH1 0x20 ADD PUSH1 0x0 KECCAK256 PUSH1 0x0 CALLER PUSH20 0xFFFFFFFFFFFFFFFFFFFFFFFFFFFFFFFFFFFFFFFF AND PUSH20 0xFFFFFFFFFFFFFFFFFFFFFFFFFFFFFFFFFFFFFFFF AND DUP2 MSTORE PUSH1 0x20 ADD SWAP1 DUP2 MSTORE PUSH1 0x20 ADD PUSH1 0x0 KECCAK256 SWAP1 POP DUP3 DUP2 PUSH1 0x0 ADD SLOAD LT ISZERO PUSH3 0xB55 JUMPI PUSH1 0x40 MLOAD PUSH32 0x8C379A000000000000000000000000000000000000000000000000000000000 DUP2 MSTORE PUSH1 0x4 ADD PUSH3 0xB4C SWAP1 PUSH3 0x3C9E JUMP JUMPDEST PUSH1 0x40 MLOAD DUP1 SWAP2 SUB SWAP1 REVERT JUMPDEST PUSH3 0xB60 DUP5 PUSH3 0x10C0 JUMP JUMPDEST PUSH1 0x0 PUSH3 0xBB0 DUP3 PUSH1 0x1 ADD SLOAD PUSH3 0xBA1 PUSH5 0xE8D4A51000 PUSH3 0xB92 DUP8 PUSH1 0x3 ADD SLOAD DUP8 PUSH1 0x0 ADD SLOAD PUSH3 0x2671 SWAP1 SWAP2 SWAP1 PUSH4 0xFFFFFFFF AND JUMP JUMPDEST PUSH3 0x2689 SWAP1 SWAP2 SWAP1 PUSH4 0xFFFFFFFF AND JUMP JUMPDEST PUSH3 0x26A1 SWAP1 SWAP2 SWAP1 PUSH4 0xFFFFFFFF AND JUMP JUMPDEST SWAP1 POP PUSH1 0x0 DUP2 GT ISZERO PUSH3 0xBC9 JUMPI PUSH3 0xBC8 CALLER DUP3 PUSH3 0x26B9 JUMP JUMPDEST JUMPDEST PUSH1 0x0 DUP5 GT ISZERO PUSH3 0xC46 JUMPI PUSH3 0xBEC DUP5 DUP4 PUSH1 0x0 ADD SLOAD PUSH3 0x26A1 SWAP1 SWAP2 SWAP1 PUSH4 0xFFFFFFFF AND JUMP JUMPDEST DUP3 PUSH1 0x0 ADD DUP2 SWAP1 SSTORE POP PUSH3 0xC45 CALLER DUP6 DUP6 PUSH1 0x0 ADD PUSH1 0x0 SWAP1 SLOAD SWAP1 PUSH2 0x100 EXP SWAP1 DIV PUSH20 0xFFFFFFFFFFFFFFFFFFFFFFFFFFFFFFFFFFFFFFFF AND PUSH20 0xFFFFFFFFFFFFFFFFFFFFFFFFFFFFFFFFFFFFFFFF AND PUSH3 0x278E SWAP1 SWAP3 SWAP2 SWAP1 PUSH4 0xFFFFFFFF AND JUMP JUMPDEST JUMPDEST PUSH3 0xC7C PUSH5 0xE8D4A51000 PUSH3 0xC6D DUP6 PUSH1 0x3 ADD SLOAD DUP6 PUSH1 0x0 ADD SLOAD PUSH3 0x2671 SWAP1 SWAP2 SWAP1 PUSH4 0xFFFFFFFF AND JUMP JUMPDEST PUSH3 0x2689 SWAP1 SWAP2 SWAP1 PUSH4 0xFFFFFFFF AND JUMP JUMPDEST DUP3 PUSH1 0x1 ADD DUP2 SWAP1 SSTORE POP DUP5 CALLER PUSH20 0xFFFFFFFFFFFFFFFFFFFFFFFFFFFFFFFFFFFFFFFF AND PUSH32 0xF279E6A1F5E320CCA91135676D9CB6E44CA8A08C0B88342BCDB1144F6511B568 DUP7 PUSH1 0x40 MLOAD PUSH3 0xCCD SWAP2 SWAP1 PUSH3 0x3D48 JUMP JUMPDEST PUSH1 0x40 MLOAD DUP1 SWAP2 SUB SWAP1 LOG3 POP POP POP POP POP JUMP JUMPDEST PUSH1 0x0 PUSH20 0xFFFFFFFFFFFFFFFFFFFFFFFFFFFFFFFFFFFFFFFF AND PUSH1 0xCC PUSH1 0x0 SWAP1 SLOAD SWAP1 PUSH2 0x100 EXP SWAP1 DIV PUSH20 0xFFFFFFFFFFFFFFFFFFFFFFFFFFFFFFFFFFFFFFFF AND PUSH20 0xFFFFFFFFFFFFFFFFFFFFFFFFFFFFFFFFFFFFFFFF AND EQ ISZERO PUSH3 0xD71 JUMPI PUSH1 0x40 MLOAD PUSH32 0x8C379A000000000000000000000000000000000000000000000000000000000 DUP2 MSTORE PUSH1 0x4 ADD PUSH3 0xD68 SWAP1 PUSH3 0x3D26 JUMP JUMPDEST PUSH1 0x40 MLOAD DUP1 SWAP2 SUB SWAP1 REVERT JUMPDEST PUSH1 0x0 PUSH1 0xCE DUP3 DUP2 SLOAD DUP2 LT PUSH3 0xDAE JUMPI PUSH32 0x4E487B7100000000000000000000000000000000000000000000000000000000 PUSH1 0x0 MSTORE PUSH1 0x32 PUSH1 0x4 MSTORE PUSH1 0x24 PUSH1 0x0 REVERT JUMPDEST SWAP1 PUSH1 0x0 MSTORE PUSH1 0x20 PUSH1 0x0 KECCAK256 SWAP1 PUSH1 0x4 MUL ADD SWAP1 POP PUSH1 0x0 DUP2 PUSH1 0x0 ADD PUSH1 0x0 SWAP1 SLOAD SWAP1 PUSH2 0x100 EXP SWAP1 DIV PUSH20 0xFFFFFFFFFFFFFFFFFFFFFFFFFFFFFFFFFFFFFFFF AND SWAP1 POP PUSH1 0x0 DUP2 PUSH20 0xFFFFFFFFFFFFFFFFFFFFFFFFFFFFFFFFFFFFFFFF AND PUSH4 0x70A08231 ADDRESS PUSH1 0x40 MLOAD DUP3 PUSH4 0xFFFFFFFF AND PUSH1 0xE0 SHL DUP2 MSTORE PUSH1 0x4 ADD PUSH3 0xE24 SWAP2 SWAP1 PUSH3 0x3A12 JUMP JUMPDEST PUSH1 0x20 PUSH1 0x40 MLOAD DUP1 DUP4 SUB DUP2 DUP7 DUP1 EXTCODESIZE ISZERO DUP1 ISZERO PUSH3 0xE3D JUMPI PUSH1 0x0 DUP1 REVERT JUMPDEST POP GAS STATICCALL ISZERO DUP1 ISZERO PUSH3 0xE52 JUMPI RETURNDATASIZE PUSH1 0x0 DUP1 RETURNDATACOPY RETURNDATASIZE PUSH1 0x0 REVERT JUMPDEST POP POP POP POP PUSH1 0x40 MLOAD RETURNDATASIZE PUSH1 0x1F NOT PUSH1 0x1F DUP3 ADD AND DUP3 ADD DUP1 PUSH1 0x40 MSTORE POP DUP2 ADD SWAP1 PUSH3 0xE78 SWAP2 SWAP1 PUSH3 0x35D7 JUMP JUMPDEST SWAP1 POP PUSH3 0xEC9 PUSH1 0xCC PUSH1 0x0 SWAP1 SLOAD SWAP1 PUSH2 0x100 EXP SWAP1 DIV PUSH20 0xFFFFFFFFFFFFFFFFFFFFFFFFFFFFFFFFFFFFFFFF AND DUP3 DUP5 PUSH20 0xFFFFFFFFFFFFFFFFFFFFFFFFFFFFFFFFFFFFFFFF AND PUSH3 0x2818 SWAP1 SWAP3 SWAP2 SWAP1 PUSH4 0xFFFFFFFF AND JUMP JUMPDEST PUSH1 0x0 PUSH1 0xCC PUSH1 0x0 SWAP1 SLOAD SWAP1 PUSH2 0x100 EXP SWAP1 DIV PUSH20 0xFFFFFFFFFFFFFFFFFFFFFFFFFFFFFFFFFFFFFFFF AND PUSH20 0xFFFFFFFFFFFFFFFFFFFFFFFFFFFFFFFFFFFFFFFF AND PUSH4 0xCE5494BB DUP5 PUSH1 0x40 MLOAD DUP3 PUSH4 0xFFFFFFFF AND PUSH1 0xE0 SHL DUP2 MSTORE PUSH1 0x4 ADD PUSH3 0xF28 SWAP2 SWAP1 PUSH3 0x3AC6 JUMP JUMPDEST PUSH1 0x20 PUSH1 0x40 MLOAD DUP1 DUP4 SUB DUP2 PUSH1 0x0 DUP8 DUP1 EXTCODESIZE ISZERO DUP1 ISZERO PUSH3 0xF43 JUMPI PUSH1 0x0 DUP1 REVERT JUMPDEST POP GAS CALL ISZERO DUP1 ISZERO PUSH3 0xF58 JUMPI RETURNDATASIZE PUSH1 0x0 DUP1 RETURNDATACOPY RETURNDATASIZE PUSH1 0x0 REVERT JUMPDEST POP POP POP POP PUSH1 0x40 MLOAD RETURNDATASIZE PUSH1 0x1F NOT PUSH1 0x1F DUP3 ADD AND DUP3 ADD DUP1 PUSH1 0x40 MSTORE POP DUP2 ADD SWAP1 PUSH3 0xF7E SWAP2 SWAP1 PUSH3 0x34FD JUMP JUMPDEST SWAP1 POP DUP1 PUSH20 0xFFFFFFFFFFFFFFFFFFFFFFFFFFFFFFFFFFFFFFFF AND PUSH4 0x70A08231 ADDRESS PUSH1 0x40 MLOAD DUP3 PUSH4 0xFFFFFFFF AND PUSH1 0xE0 SHL DUP2 MSTORE PUSH1 0x4 ADD PUSH3 0xFBB SWAP2 SWAP1 PUSH3 0x3A12 JUMP JUMPDEST PUSH1 0x20 PUSH1 0x40 MLOAD DUP1 DUP4 SUB DUP2 DUP7 DUP1 EXTCODESIZE ISZERO DUP1 ISZERO PUSH3 0xFD4 JUMPI PUSH1 0x0 DUP1 REVERT JUMPDEST POP GAS STATICCALL ISZERO DUP1 ISZERO PUSH3 0xFE9 JUMPI RETURNDATASIZE PUSH1 0x0 DUP1 RETURNDATACOPY RETURNDATASIZE PUSH1 0x0 REVERT JUMPDEST POP POP POP POP PUSH1 0x40 MLOAD RETURNDATASIZE PUSH1 0x1F NOT PUSH1 0x1F DUP3 ADD AND DUP3 ADD DUP1 PUSH1 0x40 MSTORE POP DUP2 ADD SWAP1 PUSH3 0x100F SWAP2 SWAP1 PUSH3 0x35D7 JUMP JUMPDEST DUP3 EQ PUSH3 0x1053 JUMPI PUSH1 0x40 MLOAD PUSH32 0x8C379A000000000000000000000000000000000000000000000000000000000 DUP2 MSTORE PUSH1 0x4 ADD PUSH3 0x104A SWAP1 PUSH3 0x3CE2 JUMP JUMPDEST PUSH1 0x40 MLOAD DUP1 SWAP2 SUB SWAP1 REVERT JUMPDEST DUP1 DUP5 PUSH1 0x0 ADD PUSH1 0x0 PUSH2 0x100 EXP DUP2 SLOAD DUP2 PUSH20 0xFFFFFFFFFFFFFFFFFFFFFFFFFFFFFFFFFFFFFFFF MUL NOT AND SWAP1 DUP4 PUSH20 0xFFFFFFFFFFFFFFFFFFFFFFFFFFFFFFFFFFFFFFFF AND MUL OR SWAP1 SSTORE POP POP POP POP POP POP JUMP JUMPDEST PUSH1 0xD1 SLOAD DUP2 JUMP JUMPDEST PUSH3 0x10AE DUP3 PUSH3 0x2404 JUMP JUMPDEST PUSH3 0x10BC DUP3 DUP3 PUSH1 0x1 PUSH3 0x248A JUMP JUMPDEST POP POP JUMP JUMPDEST PUSH1 0x0 PUSH1 0xCE DUP3 DUP2 SLOAD DUP2 LT PUSH3 0x10FD JUMPI PUSH32 0x4E487B7100000000000000000000000000000000000000000000000000000000 PUSH1 0x0 MSTORE PUSH1 0x32 PUSH1 0x4 MSTORE PUSH1 0x24 PUSH1 0x0 REVERT JUMPDEST SWAP1 PUSH1 0x0 MSTORE PUSH1 0x20 PUSH1 0x0 KECCAK256 SWAP1 PUSH1 0x4 MUL ADD SWAP1 POP DUP1 PUSH1 0x2 ADD SLOAD NUMBER GT PUSH3 0x1120 JUMPI POP PUSH3 0x13C2 JUMP JUMPDEST PUSH1 0x0 DUP2 PUSH1 0x0 ADD PUSH1 0x0 SWAP1 SLOAD SWAP1 PUSH2 0x100 EXP SWAP1 DIV PUSH20 0xFFFFFFFFFFFFFFFFFFFFFFFFFFFFFFFFFFFFFFFF AND PUSH20 0xFFFFFFFFFFFFFFFFFFFFFFFFFFFFFFFFFFFFFFFF AND PUSH4 0x70A08231 ADDRESS PUSH1 0x40 MLOAD DUP3 PUSH4 0xFFFFFFFF AND PUSH1 0xE0 SHL DUP2 MSTORE PUSH1 0x4 ADD PUSH3 0x1181 SWAP2 SWAP1 PUSH3 0x3A12 JUMP JUMPDEST PUSH1 0x20 PUSH1 0x40 MLOAD DUP1 DUP4 SUB DUP2 DUP7 DUP1 EXTCODESIZE ISZERO DUP1 ISZERO PUSH3 0x119A JUMPI PUSH1 0x0 DUP1 REVERT JUMPDEST POP GAS STATICCALL ISZERO DUP1 ISZERO PUSH3 0x11AF JUMPI RETURNDATASIZE PUSH1 0x0 DUP1 RETURNDATACOPY RETURNDATASIZE PUSH1 0x0 REVERT JUMPDEST POP POP POP POP PUSH1 0x40 MLOAD RETURNDATASIZE PUSH1 0x1F NOT PUSH1 0x1F DUP3 ADD AND DUP3 ADD DUP1 PUSH1 0x40 MSTORE POP DUP2 ADD SWAP1 PUSH3 0x11D5 SWAP2 SWAP1 PUSH3 0x35D7 JUMP JUMPDEST SWAP1 POP PUSH1 0x0 DUP2 EQ ISZERO PUSH3 0x11F2 JUMPI NUMBER DUP3 PUSH1 0x2 ADD DUP2 SWAP1 SSTORE POP POP POP PUSH3 0x13C2 JUMP JUMPDEST PUSH1 0x0 PUSH3 0x1204 DUP4 PUSH1 0x2 ADD SLOAD NUMBER PUSH3 0x1E9D JUMP JUMPDEST SWAP1 POP PUSH1 0x0 PUSH3 0x124D PUSH1 0xD0 SLOAD PUSH3 0x123E DUP7 PUSH1 0x1 ADD SLOAD PUSH3 0x122F PUSH1 0xCA SLOAD DUP8 PUSH3 0x2671 SWAP1 SWAP2 SWAP1 PUSH4 0xFFFFFFFF AND JUMP JUMPDEST PUSH3 0x2671 SWAP1 SWAP2 SWAP1 PUSH4 0xFFFFFFFF AND JUMP JUMPDEST PUSH3 0x2689 SWAP1 SWAP2 SWAP1 PUSH4 0xFFFFFFFF AND JUMP JUMPDEST SWAP1 POP PUSH1 0x0 PUSH3 0x133A PUSH1 0xD2 SLOAD PUSH1 0xC9 PUSH1 0x0 SWAP1 SLOAD SWAP1 PUSH2 0x100 EXP SWAP1 DIV PUSH20 0xFFFFFFFFFFFFFFFFFFFFFFFFFFFFFFFFFFFFFFFF AND PUSH20 0xFFFFFFFFFFFFFFFFFFFFFFFFFFFFFFFFFFFFFFFF AND PUSH4 0x70A08231 PUSH1 0xCD PUSH1 0x0 SWAP1 SLOAD SWAP1 PUSH2 0x100 EXP SWAP1 DIV PUSH20 0xFFFFFFFFFFFFFFFFFFFFFFFFFFFFFFFFFFFFFFFF AND PUSH1 0x40 MLOAD DUP3 PUSH4 0xFFFFFFFF AND PUSH1 0xE0 SHL DUP2 MSTORE PUSH1 0x4 ADD PUSH3 0x12D7 SWAP2 SWAP1 PUSH3 0x3A12 JUMP JUMPDEST PUSH1 0x20 PUSH1 0x40 MLOAD DUP1 DUP4 SUB DUP2 DUP7 DUP1 EXTCODESIZE ISZERO DUP1 ISZERO PUSH3 0x12F0 JUMPI PUSH1 0x0 DUP1 REVERT JUMPDEST POP GAS STATICCALL ISZERO DUP1 ISZERO PUSH3 0x1305 JUMPI RETURNDATASIZE PUSH1 0x0 DUP1 RETURNDATACOPY RETURNDATASIZE PUSH1 0x0 REVERT JUMPDEST POP POP POP POP PUSH1 0x40 MLOAD RETURNDATASIZE PUSH1 0x1F NOT PUSH1 0x1F DUP3 ADD AND DUP3 ADD DUP1 PUSH1 0x40 MSTORE POP DUP2 ADD SWAP1 PUSH3 0x132B SWAP2 SWAP1 PUSH3 0x35D7 JUMP JUMPDEST PUSH3 0x26A1 SWAP1 SWAP2 SWAP1 PUSH4 0xFFFFFFFF AND JUMP JUMPDEST SWAP1 POP DUP1 DUP3 LT PUSH3 0x1348 JUMPI DUP1 SWAP2 POP JUMPDEST PUSH3 0x138E PUSH3 0x137A DUP6 PUSH3 0x136B PUSH5 0xE8D4A51000 DUP7 PUSH3 0x2671 SWAP1 SWAP2 SWAP1 PUSH4 0xFFFFFFFF AND JUMP JUMPDEST PUSH3 0x2689 SWAP1 SWAP2 SWAP1 PUSH4 0xFFFFFFFF AND JUMP JUMPDEST DUP7 PUSH1 0x3 ADD SLOAD PUSH3 0x23EC SWAP1 SWAP2 SWAP1 PUSH4 0xFFFFFFFF AND JUMP JUMPDEST DUP6 PUSH1 0x3 ADD DUP2 SWAP1 SSTORE POP PUSH3 0x13AD DUP3 PUSH1 0xD2 SLOAD PUSH3 0x23EC SWAP1 SWAP2 SWAP1 PUSH4 0xFFFFFFFF AND JUMP JUMPDEST PUSH1 0xD2 DUP2 SWAP1 SSTORE POP NUMBER DUP6 PUSH1 0x2 ADD DUP2 SWAP1 SSTORE POP POP POP POP POP POP JUMPDEST POP JUMP JUMPDEST PUSH1 0xCD PUSH1 0x0 SWAP1 SLOAD SWAP1 PUSH2 0x100 EXP SWAP1 DIV PUSH20 0xFFFFFFFFFFFFFFFFFFFFFFFFFFFFFFFFFFFFFFFF AND DUP2 JUMP JUMPDEST PUSH1 0x0 PUSH1 0xCE DUP3 DUP2 SLOAD DUP2 LT PUSH3 0x1428 JUMPI PUSH32 0x4E487B7100000000000000000000000000000000000000000000000000000000 PUSH1 0x0 MSTORE PUSH1 0x32 PUSH1 0x4 MSTORE PUSH1 0x24 PUSH1 0x0 REVERT JUMPDEST SWAP1 PUSH1 0x0 MSTORE PUSH1 0x20 PUSH1 0x0 KECCAK256 SWAP1 PUSH1 0x4 MUL ADD SWAP1 POP PUSH1 0x0 PUSH1 0xCF PUSH1 0x0 DUP5 DUP2 MSTORE PUSH1 0x20 ADD SWAP1 DUP2 MSTORE PUSH1 0x20 ADD PUSH1 0x0 KECCAK256 PUSH1 0x0 CALLER PUSH20 0xFFFFFFFFFFFFFFFFFFFFFFFFFFFFFFFFFFFFFFFF AND PUSH20 0xFFFFFFFFFFFFFFFFFFFFFFFFFFFFFFFFFFFFFFFF AND DUP2 MSTORE PUSH1 0x20 ADD SWAP1 DUP2 MSTORE PUSH1 0x20 ADD PUSH1 0x0 KECCAK256 SWAP1 POP PUSH1 0x0 DUP2 PUSH1 0x0 ADD SLOAD SWAP1 POP PUSH1 0x0 DUP3 PUSH1 0x0 ADD DUP2 SWAP1 SSTORE POP PUSH1 0x0 DUP3 PUSH1 0x1 ADD DUP2 SWAP1 SSTORE POP PUSH1 0xD2 SLOAD DUP2 GT PUSH3 0x14D1 JUMPI PUSH3 0x14CA DUP2 PUSH1 0xD2 SLOAD PUSH3 0x26A1 SWAP1 SWAP2 SWAP1 PUSH4 0xFFFFFFFF AND JUMP JUMPDEST PUSH1 0xD2 DUP2 SWAP1 SSTORE POP JUMPDEST PUSH3 0x1522 CALLER DUP3 DUP6 PUSH1 0x0 ADD PUSH1 0x0 SWAP1 SLOAD SWAP1 PUSH2 0x100 EXP SWAP1 DIV PUSH20 0xFFFFFFFFFFFFFFFFFFFFFFFFFFFFFFFFFFFFFFFF AND PUSH20 0xFFFFFFFFFFFFFFFFFFFFFFFFFFFFFFFFFFFFFFFF AND PUSH3 0x278E SWAP1 SWAP3 SWAP2 SWAP1 PUSH4 0xFFFFFFFF AND JUMP JUMPDEST DUP4 CALLER PUSH20 0xFFFFFFFFFFFFFFFFFFFFFFFFFFFFFFFFFFFFFFFF AND PUSH32 0xBB757047C2B5F3974FE26B7C10F732E7BCE710B0952A71082702781E62AE0595 DUP4 PUSH1 0x40 MLOAD PUSH3 0x156B SWAP2 SWAP1 PUSH3 0x3D48 JUMP JUMPDEST PUSH1 0x40 MLOAD DUP1 SWAP2 SUB SWAP1 LOG3 POP POP POP POP JUMP JUMPDEST PUSH3 0x1583 PUSH3 0x23E4 JUMP JUMPDEST PUSH20 0xFFFFFFFFFFFFFFFFFFFFFFFFFFFFFFFFFFFFFFFF AND PUSH3 0x15A3 PUSH3 0x1E73 JUMP JUMPDEST PUSH20 0xFFFFFFFFFFFFFFFFFFFFFFFFFFFFFFFFFFFFFFFF AND EQ PUSH3 0x15FC JUMPI PUSH1 0x40 MLOAD PUSH32 0x8C379A000000000000000000000000000000000000000000000000000000000 DUP2 MSTORE PUSH1 0x4 ADD PUSH3 0x15F3 SWAP1 PUSH3 0x3C38 JUMP JUMPDEST PUSH1 0x40 MLOAD DUP1 SWAP2 SUB SWAP1 REVERT JUMPDEST DUP1 PUSH1 0xCB DUP2 SWAP1 SSTORE POP POP JUMP JUMPDEST PUSH1 0x0 PUSH1 0xCE DUP1 SLOAD SWAP1 POP SWAP1 POP PUSH1 0x0 JUMPDEST DUP2 DUP2 LT ISZERO PUSH3 0x163B JUMPI PUSH3 0x1627 DUP2 PUSH3 0x10C0 JUMP JUMPDEST DUP1 PUSH3 0x1633 SWAP1 PUSH3 0x40B9 JUMP JUMPDEST SWAP1 POP PUSH3 0x1613 JUMP JUMPDEST POP POP JUMP JUMPDEST PUSH3 0x1649 PUSH3 0x23E4 JUMP JUMPDEST PUSH20 0xFFFFFFFFFFFFFFFFFFFFFFFFFFFFFFFFFFFFFFFF AND PUSH3 0x1669 PUSH3 0x1E73 JUMP JUMPDEST PUSH20 0xFFFFFFFFFFFFFFFFFFFFFFFFFFFFFFFFFFFFFFFF AND EQ PUSH3 0x16C2 JUMPI PUSH1 0x40 MLOAD PUSH32 0x8C379A000000000000000000000000000000000000000000000000000000000 DUP2 MSTORE PUSH1 0x4 ADD PUSH3 0x16B9 SWAP1 PUSH3 0x3C38 JUMP JUMPDEST PUSH1 0x40 MLOAD DUP1 SWAP2 SUB SWAP1 REVERT JUMPDEST DUP1 ISZERO PUSH3 0x16D4 JUMPI PUSH3 0x16D3 PUSH3 0x1606 JUMP JUMPDEST JUMPDEST PUSH1 0x0 PUSH1 0xCE DUP5 DUP2 SLOAD DUP2 LT PUSH3 0x1711 JUMPI PUSH32 0x4E487B7100000000000000000000000000000000000000000000000000000000 PUSH1 0x0 MSTORE PUSH1 0x32 PUSH1 0x4 MSTORE PUSH1 0x24 PUSH1 0x0 REVERT JUMPDEST SWAP1 PUSH1 0x0 MSTORE PUSH1 0x20 PUSH1 0x0 KECCAK256 SWAP1 PUSH1 0x4 MUL ADD PUSH1 0x1 ADD SLOAD SWAP1 POP DUP3 PUSH1 0xCE DUP6 DUP2 SLOAD DUP2 LT PUSH3 0x1761 JUMPI PUSH32 0x4E487B7100000000000000000000000000000000000000000000000000000000 PUSH1 0x0 MSTORE PUSH1 0x32 PUSH1 0x4 MSTORE PUSH1 0x24 PUSH1 0x0 REVERT JUMPDEST SWAP1 PUSH1 0x0 MSTORE PUSH1 0x20 PUSH1 0x0 KECCAK256 SWAP1 PUSH1 0x4 MUL ADD PUSH1 0x1 ADD DUP2 SWAP1 SSTORE POP DUP3 DUP2 EQ PUSH3 0x17B0 JUMPI PUSH3 0x17A9 DUP4 PUSH3 0x179A DUP4 PUSH1 0xD0 SLOAD PUSH3 0x26A1 SWAP1 SWAP2 SWAP1 PUSH4 0xFFFFFFFF AND JUMP JUMPDEST PUSH3 0x23EC SWAP1 SWAP2 SWAP1 PUSH4 0xFFFFFFFF AND JUMP JUMPDEST PUSH1 0xD0 DUP2 SWAP1 SSTORE POP JUMPDEST POP POP POP POP JUMP JUMPDEST PUSH1 0x0 DUP1 PUSH1 0xCE DUP5 DUP2 SLOAD DUP2 LT PUSH3 0x17F4 JUMPI PUSH32 0x4E487B7100000000000000000000000000000000000000000000000000000000 PUSH1 0x0 MSTORE PUSH1 0x32 PUSH1 0x4 MSTORE PUSH1 0x24 PUSH1 0x0 REVERT JUMPDEST SWAP1 PUSH1 0x0 MSTORE PUSH1 0x20 PUSH1 0x0 KECCAK256 SWAP1 PUSH1 0x4 MUL ADD SWAP1 POP PUSH1 0x0 PUSH1 0xCF PUSH1 0x0 DUP7 DUP2 MSTORE PUSH1 0x20 ADD SWAP1 DUP2 MSTORE PUSH1 0x20 ADD PUSH1 0x0 KECCAK256 PUSH1 0x0 DUP6 PUSH20 0xFFFFFFFFFFFFFFFFFFFFFFFFFFFFFFFFFFFFFFFF AND PUSH20 0xFFFFFFFFFFFFFFFFFFFFFFFFFFFFFFFFFFFFFFFF AND DUP2 MSTORE PUSH1 0x20 ADD SWAP1 DUP2 MSTORE PUSH1 0x20 ADD PUSH1 0x0 KECCAK256 SWAP1 POP PUSH1 0x0 DUP3 PUSH1 0x3 ADD SLOAD SWAP1 POP PUSH1 0x0 DUP4 PUSH1 0x0 ADD PUSH1 0x0 SWAP1 SLOAD SWAP1 PUSH2 0x100 EXP SWAP1 DIV PUSH20 0xFFFFFFFFFFFFFFFFFFFFFFFFFFFFFFFFFFFFFFFF AND PUSH20 0xFFFFFFFFFFFFFFFFFFFFFFFFFFFFFFFFFFFFFFFF AND PUSH4 0x70A08231 ADDRESS PUSH1 0x40 MLOAD DUP3 PUSH4 0xFFFFFFFF AND PUSH1 0xE0 SHL DUP2 MSTORE PUSH1 0x4 ADD PUSH3 0x18C2 SWAP2 SWAP1 PUSH3 0x3A12 JUMP JUMPDEST PUSH1 0x20 PUSH1 0x40 MLOAD DUP1 DUP4 SUB DUP2 DUP7 DUP1 EXTCODESIZE ISZERO DUP1 ISZERO PUSH3 0x18DB JUMPI PUSH1 0x0 DUP1 REVERT JUMPDEST POP GAS STATICCALL ISZERO DUP1 ISZERO PUSH3 0x18F0 JUMPI RETURNDATASIZE PUSH1 0x0 DUP1 RETURNDATACOPY RETURNDATASIZE PUSH1 0x0 REVERT JUMPDEST POP POP POP POP PUSH1 0x40 MLOAD RETURNDATASIZE PUSH1 0x1F NOT PUSH1 0x1F DUP3 ADD AND DUP3 ADD DUP1 PUSH1 0x40 MSTORE POP DUP2 ADD SWAP1 PUSH3 0x1916 SWAP2 SWAP1 PUSH3 0x35D7 JUMP JUMPDEST SWAP1 POP DUP4 PUSH1 0x2 ADD SLOAD NUMBER GT DUP1 ISZERO PUSH3 0x192D JUMPI POP PUSH1 0x0 DUP2 EQ ISZERO JUMPDEST ISZERO PUSH3 0x1AD1 JUMPI PUSH1 0x0 PUSH3 0x1945 DUP6 PUSH1 0x2 ADD SLOAD NUMBER PUSH3 0x1E9D JUMP JUMPDEST SWAP1 POP PUSH1 0x0 PUSH3 0x198E PUSH1 0xD0 SLOAD PUSH3 0x197F DUP9 PUSH1 0x1 ADD SLOAD PUSH3 0x1970 PUSH1 0xCA SLOAD DUP8 PUSH3 0x2671 SWAP1 SWAP2 SWAP1 PUSH4 0xFFFFFFFF AND JUMP JUMPDEST PUSH3 0x2671 SWAP1 SWAP2 SWAP1 PUSH4 0xFFFFFFFF AND JUMP JUMPDEST PUSH3 0x2689 SWAP1 SWAP2 SWAP1 PUSH4 0xFFFFFFFF AND JUMP JUMPDEST SWAP1 POP PUSH1 0x0 PUSH3 0x1A7B PUSH1 0xD2 SLOAD PUSH1 0xC9 PUSH1 0x0 SWAP1 SLOAD SWAP1 PUSH2 0x100 EXP SWAP1 DIV PUSH20 0xFFFFFFFFFFFFFFFFFFFFFFFFFFFFFFFFFFFFFFFF AND PUSH20 0xFFFFFFFFFFFFFFFFFFFFFFFFFFFFFFFFFFFFFFFF AND PUSH4 0x70A08231 PUSH1 0xCD PUSH1 0x0 SWAP1 SLOAD SWAP1 PUSH2 0x100 EXP SWAP1 DIV PUSH20 0xFFFFFFFFFFFFFFFFFFFFFFFFFFFFFFFFFFFFFFFF AND PUSH1 0x40 MLOAD DUP3 PUSH4 0xFFFFFFFF AND PUSH1 0xE0 SHL DUP2 MSTORE PUSH1 0x4 ADD PUSH3 0x1A18 SWAP2 SWAP1 PUSH3 0x3A12 JUMP JUMPDEST PUSH1 0x20 PUSH1 0x40 MLOAD DUP1 DUP4 SUB DUP2 DUP7 DUP1 EXTCODESIZE ISZERO DUP1 ISZERO PUSH3 0x1A31 JUMPI PUSH1 0x0 DUP1 REVERT JUMPDEST POP GAS STATICCALL ISZERO DUP1 ISZERO PUSH3 0x1A46 JUMPI RETURNDATASIZE PUSH1 0x0 DUP1 RETURNDATACOPY RETURNDATASIZE PUSH1 0x0 REVERT JUMPDEST POP POP POP POP PUSH1 0x40 MLOAD RETURNDATASIZE PUSH1 0x1F NOT PUSH1 0x1F DUP3 ADD AND DUP3 ADD DUP1 PUSH1 0x40 MSTORE POP DUP2 ADD SWAP1 PUSH3 0x1A6C SWAP2 SWAP1 PUSH3 0x35D7 JUMP JUMPDEST PUSH3 0x26A1 SWAP1 SWAP2 SWAP1 PUSH4 0xFFFFFFFF AND JUMP JUMPDEST SWAP1 POP DUP1 DUP3 LT PUSH3 0x1A89 JUMPI DUP1 SWAP2 POP JUMPDEST PUSH3 0x1ACB PUSH3 0x1ABB DUP6 PUSH3 0x1AAC PUSH5 0xE8D4A51000 DUP7 PUSH3 0x2671 SWAP1 SWAP2 SWAP1 PUSH4 0xFFFFFFFF AND JUMP JUMPDEST PUSH3 0x2689 SWAP1 SWAP2 SWAP1 PUSH4 0xFFFFFFFF AND JUMP JUMPDEST DUP7 PUSH3 0x23EC SWAP1 SWAP2 SWAP1 PUSH4 0xFFFFFFFF AND JUMP JUMPDEST SWAP5 POP POP POP POP JUMPDEST PUSH3 0x1B1B DUP4 PUSH1 0x1 ADD SLOAD PUSH3 0x1B0C PUSH5 0xE8D4A51000 PUSH3 0x1AFD DUP7 DUP9 PUSH1 0x0 ADD SLOAD PUSH3 0x2671 SWAP1 SWAP2 SWAP1 PUSH4 0xFFFFFFFF AND JUMP JUMPDEST PUSH3 0x2689 SWAP1 SWAP2 SWAP1 PUSH4 0xFFFFFFFF AND JUMP JUMPDEST PUSH3 0x26A1 SWAP1 SWAP2 SWAP1 PUSH4 0xFFFFFFFF AND JUMP JUMPDEST SWAP5 POP POP POP POP POP SWAP3 SWAP2 POP POP JUMP JUMPDEST PUSH3 0x1B31 PUSH3 0x23E4 JUMP JUMPDEST PUSH20 0xFFFFFFFFFFFFFFFFFFFFFFFFFFFFFFFFFFFFFFFF AND PUSH3 0x1B51 PUSH3 0x1E73 JUMP JUMPDEST PUSH20 0xFFFFFFFFFFFFFFFFFFFFFFFFFFFFFFFFFFFFFFFF AND EQ PUSH3 0x1BAA JUMPI PUSH1 0x40 MLOAD PUSH32 0x8C379A000000000000000000000000000000000000000000000000000000000 DUP2 MSTORE PUSH1 0x4 ADD PUSH3 0x1BA1 SWAP1 PUSH3 0x3C38 JUMP JUMPDEST PUSH1 0x40 MLOAD DUP1 SWAP2 SUB SWAP1 REVERT JUMPDEST PUSH3 0x1BB6 PUSH1 0x0 PUSH3 0x2984 JUMP JUMPDEST JUMP JUMPDEST PUSH1 0x0 PUSH1 0x1 SWAP1 SLOAD SWAP1 PUSH2 0x100 EXP SWAP1 DIV PUSH1 0xFF AND DUP1 PUSH3 0x1BDF JUMPI POP PUSH1 0x0 DUP1 SLOAD SWAP1 PUSH2 0x100 EXP SWAP1 DIV PUSH1 0xFF AND ISZERO JUMPDEST PUSH3 0x1C21 JUMPI PUSH1 0x40 MLOAD PUSH32 0x8C379A000000000000000000000000000000000000000000000000000000000 DUP2 MSTORE PUSH1 0x4 ADD PUSH3 0x1C18 SWAP1 PUSH3 0x3BF4 JUMP JUMPDEST PUSH1 0x40 MLOAD DUP1 SWAP2 SUB SWAP1 REVERT JUMPDEST PUSH1 0x0 DUP1 PUSH1 0x1 SWAP1 SLOAD SWAP1 PUSH2 0x100 EXP SWAP1 DIV PUSH1 0xFF AND ISZERO SWAP1 POP DUP1 ISZERO PUSH3 0x1C72 JUMPI PUSH1 0x1 PUSH1 0x0 PUSH1 0x1 PUSH2 0x100 EXP DUP2 SLOAD DUP2 PUSH1 0xFF MUL NOT AND SWAP1 DUP4 ISZERO ISZERO MUL OR SWAP1 SSTORE POP PUSH1 0x1 PUSH1 0x0 DUP1 PUSH2 0x100 EXP DUP2 SLOAD DUP2 PUSH1 0xFF MUL NOT AND SWAP1 DUP4 ISZERO ISZERO MUL OR SWAP1 SSTORE POP JUMPDEST PUSH3 0x1C7C PUSH3 0x2A4A JUMP JUMPDEST DUP4 PUSH1 0xC9 PUSH1 0x0 PUSH2 0x100 EXP DUP2 SLOAD DUP2 PUSH20 0xFFFFFFFFFFFFFFFFFFFFFFFFFFFFFFFFFFFFFFFF MUL NOT AND SWAP1 DUP4 PUSH20 0xFFFFFFFFFFFFFFFFFFFFFFFFFFFFFFFFFFFFFFFF AND MUL OR SWAP1 SSTORE POP DUP3 PUSH1 0xCA DUP2 SWAP1 SSTORE POP DUP2 PUSH1 0xD1 DUP2 SWAP1 SSTORE POP DUP4 PUSH1 0x40 MLOAD PUSH3 0x1CDA SWAP1 PUSH3 0x3313 JUMP JUMPDEST PUSH3 0x1CE6 SWAP2 SWAP1 PUSH3 0x3AC6 JUMP JUMPDEST PUSH1 0x40 MLOAD DUP1 SWAP2 SUB SWAP1 PUSH1 0x0 CREATE DUP1 ISZERO DUP1 ISZERO PUSH3 0x1D03 JUMPI RETURNDATASIZE PUSH1 0x0 DUP1 RETURNDATACOPY RETURNDATASIZE PUSH1 0x0 REVERT JUMPDEST POP PUSH1 0xCD PUSH1 0x0 PUSH2 0x100 EXP DUP2 SLOAD DUP2 PUSH20 0xFFFFFFFFFFFFFFFFFFFFFFFFFFFFFFFFFFFFFFFF MUL NOT AND SWAP1 DUP4 PUSH20 0xFFFFFFFFFFFFFFFFFFFFFFFFFFFFFFFFFFFFFFFF AND MUL OR SWAP1 SSTORE POP PUSH1 0xCE PUSH1 0x40 MLOAD DUP1 PUSH1 0x80 ADD PUSH1 0x40 MSTORE DUP1 DUP7 PUSH20 0xFFFFFFFFFFFFFFFFFFFFFFFFFFFFFFFFFFFFFFFF AND DUP2 MSTORE PUSH1 0x20 ADD PUSH1 0xC8 DUP2 MSTORE PUSH1 0x20 ADD PUSH1 0xD1 SLOAD DUP2 MSTORE PUSH1 0x20 ADD PUSH1 0x0 DUP2 MSTORE POP SWAP1 DUP1 PUSH1 0x1 DUP2 SLOAD ADD DUP1 DUP3 SSTORE DUP1 SWAP2 POP POP PUSH1 0x1 SWAP1 SUB SWAP1 PUSH1 0x0 MSTORE PUSH1 0x20 PUSH1 0x0 KECCAK256 SWAP1 PUSH1 0x4 MUL ADD PUSH1 0x0 SWAP1 SWAP2 SWAP1 SWAP2 SWAP1 SWAP2 POP PUSH1 0x0 DUP3 ADD MLOAD DUP2 PUSH1 0x0 ADD PUSH1 0x0 PUSH2 0x100 EXP DUP2 SLOAD DUP2 PUSH20 0xFFFFFFFFFFFFFFFFFFFFFFFFFFFFFFFFFFFFFFFF MUL NOT AND SWAP1 DUP4 PUSH20 0xFFFFFFFFFFFFFFFFFFFFFFFFFFFFFFFFFFFFFFFF AND MUL OR SWAP1 SSTORE POP PUSH1 0x20 DUP3 ADD MLOAD DUP2 PUSH1 0x1 ADD SSTORE PUSH1 0x40 DUP3 ADD MLOAD DUP2 PUSH1 0x2 ADD SSTORE PUSH1 0x60 DUP3 ADD MLOAD DUP2 PUSH1 0x3 ADD SSTORE POP POP PUSH1 0xC8 PUSH1 0xD0 DUP2 SWAP1 SSTORE POP DUP1 ISZERO PUSH3 0x1E3B JUMPI PUSH1 0x0 DUP1 PUSH1 0x1 PUSH2 0x100 EXP DUP2 SLOAD DUP2 PUSH1 0xFF MUL NOT AND SWAP1 DUP4 ISZERO ISZERO MUL OR SWAP1 SSTORE POP JUMPDEST POP POP POP POP JUMP JUMPDEST PUSH1 0xCC PUSH1 0x0 SWAP1 SLOAD SWAP1 PUSH2 0x100 EXP SWAP1 DIV PUSH20 0xFFFFFFFFFFFFFFFFFFFFFFFFFFFFFFFFFFFFFFFF AND DUP2 JUMP JUMPDEST PUSH1 0xD2 SLOAD DUP2 JUMP JUMPDEST PUSH1 0xCB SLOAD DUP2 JUMP JUMPDEST PUSH1 0x0 PUSH1 0x97 PUSH1 0x0 SWAP1 SLOAD SWAP1 PUSH2 0x100 EXP SWAP1 DIV PUSH20 0xFFFFFFFFFFFFFFFFFFFFFFFFFFFFFFFFFFFFFFFF AND SWAP1 POP SWAP1 JUMP JUMPDEST PUSH1 0x0 PUSH3 0x1ECA PUSH1 0xCB SLOAD PUSH3 0x1EBB DUP6 DUP6 PUSH3 0x26A1 SWAP1 SWAP2 SWAP1 PUSH4 0xFFFFFFFF AND JUMP JUMPDEST PUSH3 0x2671 SWAP1 SWAP2 SWAP1 PUSH4 0xFFFFFFFF AND JUMP JUMPDEST SWAP1 POP SWAP3 SWAP2 POP POP JUMP JUMPDEST PUSH1 0xCF PUSH1 0x20 MSTORE DUP2 PUSH1 0x0 MSTORE PUSH1 0x40 PUSH1 0x0 KECCAK256 PUSH1 0x20 MSTORE DUP1 PUSH1 0x0 MSTORE PUSH1 0x40 PUSH1 0x0 KECCAK256 PUSH1 0x0 SWAP2 POP SWAP2 POP POP DUP1 PUSH1 0x0 ADD SLOAD SWAP1 DUP1 PUSH1 0x1 ADD SLOAD SWAP1 POP DUP3 JUMP JUMPDEST PUSH1 0x0 PUSH1 0xCE DUP4 DUP2 SLOAD DUP2 LT PUSH3 0x1F40 JUMPI PUSH32 0x4E487B7100000000000000000000000000000000000000000000000000000000 PUSH1 0x0 MSTORE PUSH1 0x32 PUSH1 0x4 MSTORE PUSH1 0x24 PUSH1 0x0 REVERT JUMPDEST SWAP1 PUSH1 0x0 MSTORE PUSH1 0x20 PUSH1 0x0 KECCAK256 SWAP1 PUSH1 0x4 MUL ADD SWAP1 POP PUSH1 0x0 PUSH1 0xCF PUSH1 0x0 DUP6 DUP2 MSTORE PUSH1 0x20 ADD SWAP1 DUP2 MSTORE PUSH1 0x20 ADD PUSH1 0x0 KECCAK256 PUSH1 0x0 CALLER PUSH20 0xFFFFFFFFFFFFFFFFFFFFFFFFFFFFFFFFFFFFFFFF AND PUSH20 0xFFFFFFFFFFFFFFFFFFFFFFFFFFFFFFFFFFFFFFFF AND DUP2 MSTORE PUSH1 0x20 ADD SWAP1 DUP2 MSTORE PUSH1 0x20 ADD PUSH1 0x0 KECCAK256 SWAP1 POP PUSH3 0x1FAF DUP5 PUSH3 0x10C0 JUMP JUMPDEST PUSH1 0x0 DUP2 PUSH1 0x0 ADD SLOAD GT ISZERO PUSH3 0x2028 JUMPI PUSH1 0x0 PUSH3 0x200D DUP3 PUSH1 0x1 ADD SLOAD PUSH3 0x1FFE PUSH5 0xE8D4A51000 PUSH3 0x1FEF DUP8 PUSH1 0x3 ADD SLOAD DUP8 PUSH1 0x0 ADD SLOAD PUSH3 0x2671 SWAP1 SWAP2 SWAP1 PUSH4 0xFFFFFFFF AND JUMP JUMPDEST PUSH3 0x2689 SWAP1 SWAP2 SWAP1 PUSH4 0xFFFFFFFF AND JUMP JUMPDEST PUSH3 0x26A1 SWAP1 SWAP2 SWAP1 PUSH4 0xFFFFFFFF AND JUMP JUMPDEST SWAP1 POP PUSH1 0x0 DUP2 GT ISZERO PUSH3 0x2026 JUMPI PUSH3 0x2025 CALLER DUP3 PUSH3 0x26B9 JUMP JUMPDEST JUMPDEST POP JUMPDEST PUSH1 0x0 DUP4 GT ISZERO PUSH3 0x2225 JUMPI PUSH1 0x0 DUP3 PUSH1 0x0 ADD PUSH1 0x0 SWAP1 SLOAD SWAP1 PUSH2 0x100 EXP SWAP1 DIV PUSH20 0xFFFFFFFFFFFFFFFFFFFFFFFFFFFFFFFFFFFFFFFF AND PUSH20 0xFFFFFFFFFFFFFFFFFFFFFFFFFFFFFFFFFFFFFFFF AND PUSH4 0x70A08231 ADDRESS PUSH1 0x40 MLOAD DUP3 PUSH4 0xFFFFFFFF AND PUSH1 0xE0 SHL DUP2 MSTORE PUSH1 0x4 ADD PUSH3 0x2093 SWAP2 SWAP1 PUSH3 0x3A12 JUMP JUMPDEST PUSH1 0x20 PUSH1 0x40 MLOAD DUP1 DUP4 SUB DUP2 DUP7 DUP1 EXTCODESIZE ISZERO DUP1 ISZERO PUSH3 0x20AC JUMPI PUSH1 0x0 DUP1 REVERT JUMPDEST POP GAS STATICCALL ISZERO DUP1 ISZERO PUSH3 0x20C1 JUMPI RETURNDATASIZE PUSH1 0x0 DUP1 RETURNDATACOPY RETURNDATASIZE PUSH1 0x0 REVERT JUMPDEST POP POP POP POP PUSH1 0x40 MLOAD RETURNDATASIZE PUSH1 0x1F NOT PUSH1 0x1F DUP3 ADD AND DUP3 ADD DUP1 PUSH1 0x40 MSTORE POP DUP2 ADD SWAP1 PUSH3 0x20E7 SWAP2 SWAP1 PUSH3 0x35D7 JUMP JUMPDEST SWAP1 POP PUSH3 0x213C CALLER ADDRESS DUP7 DUP7 PUSH1 0x0 ADD PUSH1 0x0 SWAP1 SLOAD SWAP1 PUSH2 0x100 EXP SWAP1 DIV PUSH20 0xFFFFFFFFFFFFFFFFFFFFFFFFFFFFFFFFFFFFFFFF AND PUSH20 0xFFFFFFFFFFFFFFFFFFFFFFFFFFFFFFFFFFFFFFFF AND PUSH3 0x2B3D SWAP1 SWAP4 SWAP3 SWAP2 SWAP1 PUSH4 0xFFFFFFFF AND JUMP JUMPDEST PUSH3 0x221B PUSH3 0x2207 DUP3 DUP6 PUSH1 0x0 ADD PUSH1 0x0 SWAP1 SLOAD SWAP1 PUSH2 0x100 EXP SWAP1 DIV PUSH20 0xFFFFFFFFFFFFFFFFFFFFFFFFFFFFFFFFFFFFFFFF AND PUSH20 0xFFFFFFFFFFFFFFFFFFFFFFFFFFFFFFFFFFFFFFFF AND PUSH4 0x70A08231 ADDRESS PUSH1 0x40 MLOAD DUP3 PUSH4 0xFFFFFFFF AND PUSH1 0xE0 SHL DUP2 MSTORE PUSH1 0x4 ADD PUSH3 0x21A4 SWAP2 SWAP1 PUSH3 0x3A12 JUMP JUMPDEST PUSH1 0x20 PUSH1 0x40 MLOAD DUP1 DUP4 SUB DUP2 DUP7 DUP1 EXTCODESIZE ISZERO DUP1 ISZERO PUSH3 0x21BD JUMPI PUSH1 0x0 DUP1 REVERT JUMPDEST POP GAS STATICCALL ISZERO DUP1 ISZERO PUSH3 0x21D2 JUMPI RETURNDATASIZE PUSH1 0x0 DUP1 RETURNDATACOPY RETURNDATASIZE PUSH1 0x0 REVERT JUMPDEST POP POP POP POP PUSH1 0x40 MLOAD RETURNDATASIZE PUSH1 0x1F NOT PUSH1 0x1F DUP3 ADD AND DUP3 ADD DUP1 PUSH1 0x40 MSTORE POP DUP2 ADD SWAP1 PUSH3 0x21F8 SWAP2 SWAP1 PUSH3 0x35D7 JUMP JUMPDEST PUSH3 0x26A1 SWAP1 SWAP2 SWAP1 PUSH4 0xFFFFFFFF AND JUMP JUMPDEST DUP4 PUSH1 0x0 ADD SLOAD PUSH3 0x23EC SWAP1 SWAP2 SWAP1 PUSH4 0xFFFFFFFF AND JUMP JUMPDEST DUP3 PUSH1 0x0 ADD DUP2 SWAP1 SSTORE POP POP JUMPDEST PUSH3 0x225B PUSH5 0xE8D4A51000 PUSH3 0x224C DUP5 PUSH1 0x3 ADD SLOAD DUP5 PUSH1 0x0 ADD SLOAD PUSH3 0x2671 SWAP1 SWAP2 SWAP1 PUSH4 0xFFFFFFFF AND JUMP JUMPDEST PUSH3 0x2689 SWAP1 SWAP2 SWAP1 PUSH4 0xFFFFFFFF AND JUMP JUMPDEST DUP2 PUSH1 0x1 ADD DUP2 SWAP1 SSTORE POP DUP4 CALLER PUSH20 0xFFFFFFFFFFFFFFFFFFFFFFFFFFFFFFFFFFFFFFFF AND PUSH32 0x90890809C654F11D6E72A28FA60149770A0D11EC6C92319D6CEB2BB0A4EA1A15 DUP6 PUSH1 0x40 MLOAD PUSH3 0x22AC SWAP2 SWAP1 PUSH3 0x3D48 JUMP JUMPDEST PUSH1 0x40 MLOAD DUP1 SWAP2 SUB SWAP1 LOG3 POP POP POP POP JUMP JUMPDEST PUSH1 0xC9 PUSH1 0x0 SWAP1 SLOAD SWAP1 PUSH2 0x100 EXP SWAP1 DIV PUSH20 0xFFFFFFFFFFFFFFFFFFFFFFFFFFFFFFFFFFFFFFFF AND DUP2 JUMP JUMPDEST PUSH3 0x22EA PUSH3 0x23E4 JUMP JUMPDEST PUSH20 0xFFFFFFFFFFFFFFFFFFFFFFFFFFFFFFFFFFFFFFFF AND PUSH3 0x230A PUSH3 0x1E73 JUMP JUMPDEST PUSH20 0xFFFFFFFFFFFFFFFFFFFFFFFFFFFFFFFFFFFFFFFF AND EQ PUSH3 0x2363 JUMPI PUSH1 0x40 MLOAD PUSH32 0x8C379A000000000000000000000000000000000000000000000000000000000 DUP2 MSTORE PUSH1 0x4 ADD PUSH3 0x235A SWAP1 PUSH3 0x3C38 JUMP JUMPDEST PUSH1 0x40 MLOAD DUP1 SWAP2 SUB SWAP1 REVERT JUMPDEST PUSH1 0x0 PUSH20 0xFFFFFFFFFFFFFFFFFFFFFFFFFFFFFFFFFFFFFFFF AND DUP2 PUSH20 0xFFFFFFFFFFFFFFFFFFFFFFFFFFFFFFFFFFFFFFFF AND EQ ISZERO PUSH3 0x23D6 JUMPI PUSH1 0x40 MLOAD PUSH32 0x8C379A000000000000000000000000000000000000000000000000000000000 DUP2 MSTORE PUSH1 0x4 ADD PUSH3 0x23CD SWAP1 PUSH3 0x3BB0 JUMP JUMPDEST PUSH1 0x40 MLOAD DUP1 SWAP2 SUB SWAP1 REVERT JUMPDEST PUSH3 0x23E1 DUP2 PUSH3 0x2984 JUMP JUMPDEST POP JUMP JUMPDEST PUSH1 0x0 CALLER SWAP1 POP SWAP1 JUMP JUMPDEST PUSH1 0x0 DUP2 DUP4 PUSH3 0x23FC SWAP2 SWAP1 PUSH3 0x3E23 JUMP JUMPDEST SWAP1 POP SWAP3 SWAP2 POP POP JUMP JUMPDEST PUSH3 0x240E PUSH3 0x23E4 JUMP JUMPDEST PUSH20 0xFFFFFFFFFFFFFFFFFFFFFFFFFFFFFFFFFFFFFFFF AND PUSH3 0x242E PUSH3 0x1E73 JUMP JUMPDEST PUSH20 0xFFFFFFFFFFFFFFFFFFFFFFFFFFFFFFFFFFFFFFFF AND EQ PUSH3 0x2487 JUMPI PUSH1 0x40 MLOAD PUSH32 0x8C379A000000000000000000000000000000000000000000000000000000000 DUP2 MSTORE PUSH1 0x4 ADD PUSH3 0x247E SWAP1 PUSH3 0x3C38 JUMP JUMPDEST PUSH1 0x40 MLOAD DUP1 SWAP2 SUB SWAP1 REVERT JUMPDEST POP JUMP JUMPDEST PUSH1 0x0 PUSH3 0x2496 PUSH3 0x2BCA JUMP JUMPDEST SWAP1 POP PUSH3 0x24A3 DUP5 PUSH3 0x2C23 JUMP JUMPDEST PUSH1 0x0 DUP4 MLOAD GT DUP1 PUSH3 0x24B1 JUMPI POP DUP2 JUMPDEST ISZERO PUSH3 0x24C5 JUMPI PUSH3 0x24C3 DUP5 DUP5 PUSH3 0x2CE3 JUMP JUMPDEST POP JUMPDEST PUSH1 0x0 PUSH3 0x24F5 PUSH32 0x4910FDFA16FED3260ED0E7147F7CC6DA11A60208B5B9406D12A635614FFD9143 PUSH1 0x0 SHL PUSH3 0x2DD3 JUMP JUMPDEST SWAP1 POP DUP1 PUSH1 0x0 ADD PUSH1 0x0 SWAP1 SLOAD SWAP1 PUSH2 0x100 EXP SWAP1 DIV PUSH1 0xFF AND PUSH3 0x266A JUMPI PUSH1 0x1 DUP2 PUSH1 0x0 ADD PUSH1 0x0 PUSH2 0x100 EXP DUP2 SLOAD DUP2 PUSH1 0xFF MUL NOT AND SWAP1 DUP4 ISZERO ISZERO MUL OR SWAP1 SSTORE POP PUSH3 0x25C6 DUP6 DUP4 PUSH1 0x40 MLOAD PUSH1 0x24 ADD PUSH3 0x2543 SWAP2 SWAP1 PUSH3 0x3A12 JUMP JUMPDEST PUSH1 0x40 MLOAD PUSH1 0x20 DUP2 DUP4 SUB SUB DUP2 MSTORE SWAP1 PUSH1 0x40 MSTORE PUSH32 0x3659CFE600000000000000000000000000000000000000000000000000000000 PUSH28 0xFFFFFFFFFFFFFFFFFFFFFFFFFFFFFFFFFFFFFFFFFFFFFFFFFFFFFFFF NOT AND PUSH1 0x20 DUP3 ADD DUP1 MLOAD PUSH28 0xFFFFFFFFFFFFFFFFFFFFFFFFFFFFFFFFFFFFFFFFFFFFFFFFFFFFFFFF DUP4 DUP2 DUP4 AND OR DUP4 MSTORE POP POP POP POP PUSH3 0x2CE3 JUMP JUMPDEST POP PUSH1 0x0 DUP2 PUSH1 0x0 ADD PUSH1 0x0 PUSH2 0x100 EXP DUP2 SLOAD DUP2 PUSH1 0xFF MUL NOT AND SWAP1 DUP4 ISZERO ISZERO MUL OR SWAP1 SSTORE POP PUSH3 0x25EE PUSH3 0x2BCA JUMP JUMPDEST PUSH20 0xFFFFFFFFFFFFFFFFFFFFFFFFFFFFFFFFFFFFFFFF AND DUP3 PUSH20 0xFFFFFFFFFFFFFFFFFFFFFFFFFFFFFFFFFFFFFFFF AND EQ PUSH3 0x265E JUMPI PUSH1 0x40 MLOAD PUSH32 0x8C379A000000000000000000000000000000000000000000000000000000000 DUP2 MSTORE PUSH1 0x4 ADD PUSH3 0x2655 SWAP1 PUSH3 0x3B8E JUMP JUMPDEST PUSH1 0x40 MLOAD DUP1 SWAP2 SUB SWAP1 REVERT JUMPDEST PUSH3 0x2669 DUP6 PUSH3 0x2DDD JUMP JUMPDEST JUMPDEST POP POP POP POP POP JUMP JUMPDEST PUSH1 0x0 DUP2 DUP4 PUSH3 0x2681 SWAP2 SWAP1 PUSH3 0x3EB8 JUMP JUMPDEST SWAP1 POP SWAP3 SWAP2 POP POP JUMP JUMPDEST PUSH1 0x0 DUP2 DUP4 PUSH3 0x2699 SWAP2 SWAP1 PUSH3 0x3E80 JUMP JUMPDEST SWAP1 POP SWAP3 SWAP2 POP POP JUMP JUMPDEST PUSH1 0x0 DUP2 DUP4 PUSH3 0x26B1 SWAP2 SWAP1 PUSH3 0x3F19 JUMP JUMPDEST SWAP1 POP SWAP3 SWAP2 POP POP JUMP JUMPDEST PUSH3 0x2784 PUSH1 0xCD PUSH1 0x0 SWAP1 SLOAD SWAP1 PUSH2 0x100 EXP SWAP1 DIV PUSH20 0xFFFFFFFFFFFFFFFFFFFFFFFFFFFFFFFFFFFFFFFF AND PUSH20 0xFFFFFFFFFFFFFFFFFFFFFFFFFFFFFFFFFFFFFFFF AND PUSH4 0xE6D41A82 DUP5 DUP5 PUSH1 0x40 MLOAD DUP4 PUSH4 0xFFFFFFFF AND PUSH1 0xE0 SHL DUP2 MSTORE PUSH1 0x4 ADD PUSH3 0x271C SWAP3 SWAP2 SWAP1 PUSH3 0x3A99 JUMP JUMPDEST PUSH1 0x20 PUSH1 0x40 MLOAD DUP1 DUP4 SUB DUP2 PUSH1 0x0 DUP8 DUP1 EXTCODESIZE ISZERO DUP1 ISZERO PUSH3 0x2737 JUMPI PUSH1 0x0 DUP1 REVERT JUMPDEST POP GAS CALL ISZERO DUP1 ISZERO PUSH3 0x274C JUMPI RETURNDATASIZE PUSH1 0x0 DUP1 RETURNDATACOPY RETURNDATASIZE PUSH1 0x0 REVERT JUMPDEST POP POP POP POP PUSH1 0x40 MLOAD RETURNDATASIZE PUSH1 0x1F NOT PUSH1 0x1F DUP3 ADD AND DUP3 ADD DUP1 PUSH1 0x40 MSTORE POP DUP2 ADD SWAP1 PUSH3 0x2772 SWAP2 SWAP1 PUSH3 0x35D7 JUMP JUMPDEST PUSH1 0xD2 SLOAD PUSH3 0x26A1 SWAP1 SWAP2 SWAP1 PUSH4 0xFFFFFFFF AND JUMP JUMPDEST PUSH1 0xD2 DUP2 SWAP1 SSTORE POP POP POP JUMP JUMPDEST PUSH3 0x2813 DUP4 PUSH4 0xA9059CBB PUSH1 0xE0 SHL DUP5 DUP5 PUSH1 0x40 MLOAD PUSH1 0x24 ADD PUSH3 0x27B0 SWAP3 SWAP2 SWAP1 PUSH3 0x3A99 JUMP JUMPDEST PUSH1 0x40 MLOAD PUSH1 0x20 DUP2 DUP4 SUB SUB DUP2 MSTORE SWAP1 PUSH1 0x40 MSTORE SWAP1 PUSH28 0xFFFFFFFFFFFFFFFFFFFFFFFFFFFFFFFFFFFFFFFFFFFFFFFFFFFFFFFF NOT AND PUSH1 0x20 DUP3 ADD DUP1 MLOAD PUSH28 0xFFFFFFFFFFFFFFFFFFFFFFFFFFFFFFFFFFFFFFFFFFFFFFFFFFFFFFFF DUP4 DUP2 DUP4 AND OR DUP4 MSTORE POP POP POP POP PUSH3 0x2E2E JUMP JUMPDEST POP POP POP JUMP JUMPDEST PUSH1 0x0 DUP2 EQ DUP1 PUSH3 0x28B8 JUMPI POP PUSH1 0x0 DUP4 PUSH20 0xFFFFFFFFFFFFFFFFFFFFFFFFFFFFFFFFFFFFFFFF AND PUSH4 0xDD62ED3E ADDRESS DUP6 PUSH1 0x40 MLOAD DUP4 PUSH4 0xFFFFFFFF AND PUSH1 0xE0 SHL DUP2 MSTORE PUSH1 0x4 ADD PUSH3 0x2862 SWAP3 SWAP2 SWAP1 PUSH3 0x3A2F JUMP JUMPDEST PUSH1 0x20 PUSH1 0x40 MLOAD DUP1 DUP4 SUB DUP2 DUP7 DUP1 EXTCODESIZE ISZERO DUP1 ISZERO PUSH3 0x287B JUMPI PUSH1 0x0 DUP1 REVERT JUMPDEST POP GAS STATICCALL ISZERO DUP1 ISZERO PUSH3 0x2890 JUMPI RETURNDATASIZE PUSH1 0x0 DUP1 RETURNDATACOPY RETURNDATASIZE PUSH1 0x0 REVERT JUMPDEST POP POP POP POP PUSH1 0x40 MLOAD RETURNDATASIZE PUSH1 0x1F NOT PUSH1 0x1F DUP3 ADD AND DUP3 ADD DUP1 PUSH1 0x40 MSTORE POP DUP2 ADD SWAP1 PUSH3 0x28B6 SWAP2 SWAP1 PUSH3 0x35D7 JUMP JUMPDEST EQ JUMPDEST PUSH3 0x28FA JUMPI PUSH1 0x40 MLOAD PUSH32 0x8C379A000000000000000000000000000000000000000000000000000000000 DUP2 MSTORE PUSH1 0x4 ADD PUSH3 0x28F1 SWAP1 PUSH3 0x3D04 JUMP JUMPDEST PUSH1 0x40 MLOAD DUP1 SWAP2 SUB SWAP1 REVERT JUMPDEST PUSH3 0x297F DUP4 PUSH4 0x95EA7B3 PUSH1 0xE0 SHL DUP5 DUP5 PUSH1 0x40 MLOAD PUSH1 0x24 ADD PUSH3 0x291C SWAP3 SWAP2 SWAP1 PUSH3 0x3A99 JUMP JUMPDEST PUSH1 0x40 MLOAD PUSH1 0x20 DUP2 DUP4 SUB SUB DUP2 MSTORE SWAP1 PUSH1 0x40 MSTORE SWAP1 PUSH28 0xFFFFFFFFFFFFFFFFFFFFFFFFFFFFFFFFFFFFFFFFFFFFFFFFFFFFFFFF NOT AND PUSH1 0x20 DUP3 ADD DUP1 MLOAD PUSH28 0xFFFFFFFFFFFFFFFFFFFFFFFFFFFFFFFFFFFFFFFFFFFFFFFFFFFFFFFF DUP4 DUP2 DUP4 AND OR DUP4 MSTORE POP POP POP POP PUSH3 0x2E2E JUMP JUMPDEST POP POP POP JUMP JUMPDEST PUSH1 0x0 PUSH1 0x97 PUSH1 0x0 SWAP1 SLOAD SWAP1 PUSH2 0x100 EXP SWAP1 DIV PUSH20 0xFFFFFFFFFFFFFFFFFFFFFFFFFFFFFFFFFFFFFFFF AND SWAP1 POP DUP2 PUSH1 0x97 PUSH1 0x0 PUSH2 0x100 EXP DUP2 SLOAD DUP2 PUSH20 0xFFFFFFFFFFFFFFFFFFFFFFFFFFFFFFFFFFFFFFFF MUL NOT AND SWAP1 DUP4 PUSH20 0xFFFFFFFFFFFFFFFFFFFFFFFFFFFFFFFFFFFFFFFF AND MUL OR SWAP1 SSTORE POP DUP2 PUSH20 0xFFFFFFFFFFFFFFFFFFFFFFFFFFFFFFFFFFFFFFFF AND DUP2 PUSH20 0xFFFFFFFFFFFFFFFFFFFFFFFFFFFFFFFFFFFFFFFF AND PUSH32 0x8BE0079C531659141344CD1FD0A4F28419497F9722A3DAAFE3B4186F6B6457E0 PUSH1 0x40 MLOAD PUSH1 0x40 MLOAD DUP1 SWAP2 SUB SWAP1 LOG3 POP POP JUMP JUMPDEST PUSH1 0x0 PUSH1 0x1 SWAP1 SLOAD SWAP1 PUSH2 0x100 EXP SWAP1 DIV PUSH1 0xFF AND DUP1 PUSH3 0x2A71 JUMPI POP PUSH1 0x0 DUP1 SLOAD SWAP1 PUSH2 0x100 EXP SWAP1 DIV PUSH1 0xFF AND ISZERO JUMPDEST PUSH3 0x2AB3 JUMPI PUSH1 0x40 MLOAD PUSH32 0x8C379A000000000000000000000000000000000000000000000000000000000 DUP2 MSTORE PUSH1 0x4 ADD PUSH3 0x2AAA SWAP1 PUSH3 0x3BF4 JUMP JUMPDEST PUSH1 0x40 MLOAD DUP1 SWAP2 SUB SWAP1 REVERT JUMPDEST PUSH1 0x0 DUP1 PUSH1 0x1 SWAP1 SLOAD SWAP1 PUSH2 0x100 EXP SWAP1 DIV PUSH1 0xFF AND ISZERO SWAP1 POP DUP1 ISZERO PUSH3 0x2B04 JUMPI PUSH1 0x1 PUSH1 0x0 PUSH1 0x1 PUSH2 0x100 EXP DUP2 SLOAD DUP2 PUSH1 0xFF MUL NOT AND SWAP1 DUP4 ISZERO ISZERO MUL OR SWAP1 SSTORE POP PUSH1 0x1 PUSH1 0x0 DUP1 PUSH2 0x100 EXP DUP2 SLOAD DUP2 PUSH1 0xFF MUL NOT AND SWAP1 DUP4 ISZERO ISZERO MUL OR SWAP1 SSTORE POP JUMPDEST PUSH3 0x2B0E PUSH3 0x2EFD JUMP JUMPDEST PUSH3 0x2B18 PUSH3 0x2FDC JUMP JUMPDEST DUP1 ISZERO PUSH3 0x2B3A JUMPI PUSH1 0x0 DUP1 PUSH1 0x1 PUSH2 0x100 EXP DUP2 SLOAD DUP2 PUSH1 0xFF MUL NOT AND SWAP1 DUP4 ISZERO ISZERO MUL OR SWAP1 SSTORE POP JUMPDEST POP JUMP JUMPDEST PUSH3 0x2BC4 DUP5 PUSH4 0x23B872DD PUSH1 0xE0 SHL DUP6 DUP6 DUP6 PUSH1 0x40 MLOAD PUSH1 0x24 ADD PUSH3 0x2B61 SWAP4 SWAP3 SWAP2 SWAP1 PUSH3 0x3A5C JUMP JUMPDEST PUSH1 0x40 MLOAD PUSH1 0x20 DUP2 DUP4 SUB SUB DUP2 MSTORE SWAP1 PUSH1 0x40 MSTORE SWAP1 PUSH28 0xFFFFFFFFFFFFFFFFFFFFFFFFFFFFFFFFFFFFFFFFFFFFFFFFFFFFFFFF NOT AND PUSH1 0x20 DUP3 ADD DUP1 MLOAD PUSH28 0xFFFFFFFFFFFFFFFFFFFFFFFFFFFFFFFFFFFFFFFFFFFFFFFFFFFFFFFF DUP4 DUP2 DUP4 AND OR DUP4 MSTORE POP POP POP POP PUSH3 0x2E2E JUMP JUMPDEST POP POP POP POP JUMP JUMPDEST PUSH1 0x0 PUSH3 0x2BFA PUSH32 0x360894A13BA1A3210667C828492DB98DCA3E2076CC3735A920A3CA505D382BBC PUSH1 0x0 SHL PUSH3 0x30CF JUMP JUMPDEST PUSH1 0x0 ADD PUSH1 0x0 SWAP1 SLOAD SWAP1 PUSH2 0x100 EXP SWAP1 DIV PUSH20 0xFFFFFFFFFFFFFFFFFFFFFFFFFFFFFFFFFFFFFFFF AND SWAP1 POP SWAP1 JUMP JUMPDEST PUSH3 0x2C2E DUP2 PUSH3 0x30D9 JUMP JUMPDEST PUSH3 0x2C70 JUMPI PUSH1 0x40 MLOAD PUSH32 0x8C379A000000000000000000000000000000000000000000000000000000000 DUP2 MSTORE PUSH1 0x4 ADD PUSH3 0x2C67 SWAP1 PUSH3 0x3C16 JUMP JUMPDEST PUSH1 0x40 MLOAD DUP1 SWAP2 SUB SWAP1 REVERT JUMPDEST DUP1 PUSH3 0x2C9F PUSH32 0x360894A13BA1A3210667C828492DB98DCA3E2076CC3735A920A3CA505D382BBC PUSH1 0x0 SHL PUSH3 0x30CF JUMP JUMPDEST PUSH1 0x0 ADD PUSH1 0x0 PUSH2 0x100 EXP DUP2 SLOAD DUP2 PUSH20 0xFFFFFFFFFFFFFFFFFFFFFFFFFFFFFFFFFFFFFFFF MUL NOT AND SWAP1 DUP4 PUSH20 0xFFFFFFFFFFFFFFFFFFFFFFFFFFFFFFFFFFFFFFFF AND MUL OR SWAP1 SSTORE POP POP JUMP JUMPDEST PUSH1 0x60 PUSH3 0x2CF0 DUP4 PUSH3 0x30D9 JUMP JUMPDEST PUSH3 0x2D32 JUMPI PUSH1 0x40 MLOAD PUSH32 0x8C379A000000000000000000000000000000000000000000000000000000000 DUP2 MSTORE PUSH1 0x4 ADD PUSH3 0x2D29 SWAP1 PUSH3 0x3C5A JUMP JUMPDEST PUSH1 0x40 MLOAD DUP1 SWAP2 SUB SWAP1 REVERT JUMPDEST PUSH1 0x0 DUP1 DUP5 PUSH20 0xFFFFFFFFFFFFFFFFFFFFFFFFFFFFFFFFFFFFFFFF AND DUP5 PUSH1 0x40 MLOAD PUSH3 0x2D5C SWAP2 SWAP1 PUSH3 0x39F9 JUMP JUMPDEST PUSH1 0x0 PUSH1 0x40 MLOAD DUP1 DUP4 SUB DUP2 DUP6 GAS DELEGATECALL SWAP2 POP POP RETURNDATASIZE DUP1 PUSH1 0x0 DUP2 EQ PUSH3 0x2D99 JUMPI PUSH1 0x40 MLOAD SWAP2 POP PUSH1 0x1F NOT PUSH1 0x3F RETURNDATASIZE ADD AND DUP3 ADD PUSH1 0x40 MSTORE RETURNDATASIZE DUP3 MSTORE RETURNDATASIZE PUSH1 0x0 PUSH1 0x20 DUP5 ADD RETURNDATACOPY PUSH3 0x2D9E JUMP JUMPDEST PUSH1 0x60 SWAP2 POP JUMPDEST POP SWAP2 POP SWAP2 POP PUSH3 0x2DC9 DUP3 DUP3 PUSH1 0x40 MLOAD DUP1 PUSH1 0x60 ADD PUSH1 0x40 MSTORE DUP1 PUSH1 0x27 DUP2 MSTORE PUSH1 0x20 ADD PUSH3 0x525A PUSH1 0x27 SWAP2 CODECOPY PUSH3 0x30EC JUMP JUMPDEST SWAP3 POP POP POP SWAP3 SWAP2 POP POP JUMP JUMPDEST PUSH1 0x0 DUP2 SWAP1 POP SWAP2 SWAP1 POP JUMP JUMPDEST PUSH3 0x2DE8 DUP2 PUSH3 0x2C23 JUMP JUMPDEST DUP1 PUSH20 0xFFFFFFFFFFFFFFFFFFFFFFFFFFFFFFFFFFFFFFFF AND PUSH32 0xBC7CD75A20EE27FD9ADEBAB32041F755214DBC6BFFA90CC0225B39DA2E5C2D3B PUSH1 0x40 MLOAD PUSH1 0x40 MLOAD DUP1 SWAP2 SUB SWAP1 LOG2 POP JUMP JUMPDEST PUSH1 0x0 PUSH3 0x2E92 DUP3 PUSH1 0x40 MLOAD DUP1 PUSH1 0x40 ADD PUSH1 0x40 MSTORE DUP1 PUSH1 0x20 DUP2 MSTORE PUSH1 0x20 ADD PUSH32 0x5361666545524332303A206C6F772D6C6576656C2063616C6C206661696C6564 DUP2 MSTORE POP DUP6 PUSH20 0xFFFFFFFFFFFFFFFFFFFFFFFFFFFFFFFFFFFFFFFF AND PUSH3 0x3158 SWAP1 SWAP3 SWAP2 SWAP1 PUSH4 0xFFFFFFFF AND JUMP JUMPDEST SWAP1 POP PUSH1 0x0 DUP2 MLOAD GT ISZERO PUSH3 0x2EF8 JUMPI DUP1 DUP1 PUSH1 0x20 ADD SWAP1 MLOAD DUP2 ADD SWAP1 PUSH3 0x2EB5 SWAP2 SWAP1 PUSH3 0x34D1 JUMP JUMPDEST PUSH3 0x2EF7 JUMPI PUSH1 0x40 MLOAD PUSH32 0x8C379A000000000000000000000000000000000000000000000000000000000 DUP2 MSTORE PUSH1 0x4 ADD PUSH3 0x2EEE SWAP1 PUSH3 0x3CC0 JUMP JUMPDEST PUSH1 0x40 MLOAD DUP1 SWAP2 SUB SWAP1 REVERT JUMPDEST JUMPDEST POP POP POP JUMP JUMPDEST PUSH1 0x0 PUSH1 0x1 SWAP1 SLOAD SWAP1 PUSH2 0x100 EXP SWAP1 DIV PUSH1 0xFF AND DUP1 PUSH3 0x2F24 JUMPI POP PUSH1 0x0 DUP1 SLOAD SWAP1 PUSH2 0x100 EXP SWAP1 DIV PUSH1 0xFF AND ISZERO JUMPDEST PUSH3 0x2F66 JUMPI PUSH1 0x40 MLOAD PUSH32 0x8C379A000000000000000000000000000000000000000000000000000000000 DUP2 MSTORE PUSH1 0x4 ADD PUSH3 0x2F5D SWAP1 PUSH3 0x3BF4 JUMP JUMPDEST PUSH1 0x40 MLOAD DUP1 SWAP2 SUB SWAP1 REVERT JUMPDEST PUSH1 0x0 DUP1 PUSH1 0x1 SWAP1 SLOAD SWAP1 PUSH2 0x100 EXP SWAP1 DIV PUSH1 0xFF AND ISZERO SWAP1 POP DUP1 ISZERO PUSH3 0x2FB7 JUMPI PUSH1 0x1 PUSH1 0x0 PUSH1 0x1 PUSH2 0x100 EXP DUP2 SLOAD DUP2 PUSH1 0xFF MUL NOT AND SWAP1 DUP4 ISZERO ISZERO MUL OR SWAP1 SSTORE POP PUSH1 0x1 PUSH1 0x0 DUP1 PUSH2 0x100 EXP DUP2 SLOAD DUP2 PUSH1 0xFF MUL NOT AND SWAP1 DUP4 ISZERO ISZERO MUL OR SWAP1 SSTORE POP JUMPDEST DUP1 ISZERO PUSH3 0x2FD9 JUMPI PUSH1 0x0 DUP1 PUSH1 0x1 PUSH2 0x100 EXP DUP2 SLOAD DUP2 PUSH1 0xFF MUL NOT AND SWAP1 DUP4 ISZERO ISZERO MUL OR SWAP1 SSTORE POP JUMPDEST POP JUMP JUMPDEST PUSH1 0x0 PUSH1 0x1 SWAP1 SLOAD SWAP1 PUSH2 0x100 EXP SWAP1 DIV PUSH1 0xFF AND DUP1 PUSH3 0x3003 JUMPI POP PUSH1 0x0 DUP1 SLOAD SWAP1 PUSH2 0x100 EXP SWAP1 DIV PUSH1 0xFF AND ISZERO JUMPDEST PUSH3 0x3045 JUMPI PUSH1 0x40 MLOAD PUSH32 0x8C379A000000000000000000000000000000000000000000000000000000000 DUP2 MSTORE PUSH1 0x4 ADD PUSH3 0x303C SWAP1 PUSH3 0x3BF4 JUMP JUMPDEST PUSH1 0x40 MLOAD DUP1 SWAP2 SUB SWAP1 REVERT JUMPDEST PUSH1 0x0 DUP1 PUSH1 0x1 SWAP1 SLOAD SWAP1 PUSH2 0x100 EXP SWAP1 DIV PUSH1 0xFF AND ISZERO SWAP1 POP DUP1 ISZERO PUSH3 0x3096 JUMPI PUSH1 0x1 PUSH1 0x0 PUSH1 0x1 PUSH2 0x100 EXP DUP2 SLOAD DUP2 PUSH1 0xFF MUL NOT AND SWAP1 DUP4 ISZERO ISZERO MUL OR SWAP1 SSTORE POP PUSH1 0x1 PUSH1 0x0 DUP1 PUSH2 0x100 EXP DUP2 SLOAD DUP2 PUSH1 0xFF MUL NOT AND SWAP1 DUP4 ISZERO ISZERO MUL OR SWAP1 SSTORE POP JUMPDEST PUSH3 0x30AA PUSH3 0x30A4 PUSH3 0x23E4 JUMP JUMPDEST PUSH3 0x2984 JUMP JUMPDEST DUP1 ISZERO PUSH3 0x30CC JUMPI PUSH1 0x0 DUP1 PUSH1 0x1 PUSH2 0x100 EXP DUP2 SLOAD DUP2 PUSH1 0xFF MUL NOT AND SWAP1 DUP4 ISZERO ISZERO MUL OR SWAP1 SSTORE POP JUMPDEST POP JUMP JUMPDEST PUSH1 0x0 DUP2 SWAP1 POP SWAP2 SWAP1 POP JUMP JUMPDEST PUSH1 0x0 DUP1 DUP3 EXTCODESIZE SWAP1 POP PUSH1 0x0 DUP2 GT SWAP2 POP POP SWAP2 SWAP1 POP JUMP JUMPDEST PUSH1 0x60 DUP4 ISZERO PUSH3 0x30FE JUMPI DUP3 SWAP1 POP PUSH3 0x3151 JUMP JUMPDEST PUSH1 0x0 DUP4 MLOAD GT ISZERO PUSH3 0x3112 JUMPI DUP3 MLOAD DUP1 DUP5 PUSH1 0x20 ADD REVERT JUMPDEST DUP2 PUSH1 0x40 MLOAD PUSH32 0x8C379A000000000000000000000000000000000000000000000000000000000 DUP2 MSTORE PUSH1 0x4 ADD PUSH3 0x3148 SWAP2 SWAP1 PUSH3 0x3B6A JUMP JUMPDEST PUSH1 0x40 MLOAD DUP1 SWAP2 SUB SWAP1 REVERT JUMPDEST SWAP4 SWAP3 POP POP POP JUMP JUMPDEST PUSH1 0x60 PUSH3 0x3169 DUP5 DUP5 PUSH1 0x0 DUP6 PUSH3 0x3172 JUMP JUMPDEST SWAP1 POP SWAP4 SWAP3 POP POP POP JUMP JUMPDEST PUSH1 0x60 DUP3 SELFBALANCE LT ISZERO PUSH3 0x31BA JUMPI PUSH1 0x40 MLOAD PUSH32 0x8C379A000000000000000000000000000000000000000000000000000000000 DUP2 MSTORE PUSH1 0x4 ADD PUSH3 0x31B1 SWAP1 PUSH3 0x3BD2 JUMP JUMPDEST PUSH1 0x40 MLOAD DUP1 SWAP2 SUB SWAP1 REVERT JUMPDEST PUSH3 0x31C5 DUP6 PUSH3 0x3294 JUMP JUMPDEST PUSH3 0x3207 JUMPI PUSH1 0x40 MLOAD PUSH32 0x8C379A000000000000000000000000000000000000000000000000000000000 DUP2 MSTORE PUSH1 0x4 ADD PUSH3 0x31FE SWAP1 PUSH3 0x3C7C JUMP JUMPDEST PUSH1 0x40 MLOAD DUP1 SWAP2 SUB SWAP1 REVERT JUMPDEST PUSH1 0x0 DUP1 DUP7 PUSH20 0xFFFFFFFFFFFFFFFFFFFFFFFFFFFFFFFFFFFFFFFF AND DUP6 DUP8 PUSH1 0x40 MLOAD PUSH3 0x3232 SWAP2 SWAP1 PUSH3 0x39F9 JUMP JUMPDEST PUSH1 0x0 PUSH1 0x40 MLOAD DUP1 DUP4 SUB DUP2 DUP6 DUP8 GAS CALL SWAP3 POP POP POP RETURNDATASIZE DUP1 PUSH1 0x0 DUP2 EQ PUSH3 0x3271 JUMPI PUSH1 0x40 MLOAD SWAP2 POP PUSH1 0x1F NOT PUSH1 0x3F RETURNDATASIZE ADD AND DUP3 ADD PUSH1 0x40 MSTORE RETURNDATASIZE DUP3 MSTORE RETURNDATASIZE PUSH1 0x0 PUSH1 0x20 DUP5 ADD RETURNDATACOPY PUSH3 0x3276 JUMP JUMPDEST PUSH1 0x60 SWAP2 POP JUMPDEST POP SWAP2 POP SWAP2 POP PUSH3 0x3288 DUP3 DUP3 DUP7 PUSH3 0x32A7 JUMP JUMPDEST SWAP3 POP POP POP SWAP5 SWAP4 POP POP POP POP JUMP JUMPDEST PUSH1 0x0 DUP1 DUP3 EXTCODESIZE SWAP1 POP PUSH1 0x0 DUP2 GT SWAP2 POP POP SWAP2 SWAP1 POP JUMP JUMPDEST PUSH1 0x60 DUP4 ISZERO PUSH3 0x32B9 JUMPI DUP3 SWAP1 POP PUSH3 0x330C JUMP JUMPDEST PUSH1 0x0 DUP4 MLOAD GT ISZERO PUSH3 0x32CD JUMPI DUP3 MLOAD DUP1 DUP5 PUSH1 0x20 ADD REVERT JUMPDEST DUP2 PUSH1 0x40 MLOAD PUSH32 0x8C379A000000000000000000000000000000000000000000000000000000000 DUP2 MSTORE PUSH1 0x4 ADD PUSH3 0x3303 SWAP2 SWAP1 PUSH3 0x3B6A JUMP JUMPDEST PUSH1 0x40 MLOAD DUP1 SWAP2 SUB SWAP1 REVERT JUMPDEST SWAP4 SWAP3 POP POP POP JUMP JUMPDEST PUSH2 0xCED DUP1 PUSH3 0x456D DUP4 CODECOPY ADD SWAP1 JUMP JUMPDEST PUSH1 0x0 PUSH3 0x3338 PUSH3 0x3332 DUP5 PUSH3 0x3DBB JUMP JUMPDEST PUSH3 0x3D92 JUMP JUMPDEST SWAP1 POP DUP3 DUP2 MSTORE PUSH1 0x20 DUP2 ADD DUP5 DUP5 DUP5 ADD GT ISZERO PUSH3 0x3351 JUMPI PUSH1 0x0 DUP1 REVERT JUMPDEST PUSH3 0x335E DUP5 DUP3 DUP6 PUSH3 0x403E JUMP JUMPDEST POP SWAP4 SWAP3 POP POP POP JUMP JUMPDEST PUSH1 0x0 DUP2 CALLDATALOAD SWAP1 POP PUSH3 0x3377 DUP2 PUSH3 0x44EA JUMP JUMPDEST SWAP3 SWAP2 POP POP JUMP JUMPDEST PUSH1 0x0 DUP2 CALLDATALOAD SWAP1 POP PUSH3 0x338E DUP2 PUSH3 0x4504 JUMP JUMPDEST SWAP3 SWAP2 POP POP JUMP JUMPDEST PUSH1 0x0 DUP2 MLOAD SWAP1 POP PUSH3 0x33A5 DUP2 PUSH3 0x4504 JUMP JUMPDEST SWAP3 SWAP2 POP POP JUMP JUMPDEST PUSH1 0x0 DUP3 PUSH1 0x1F DUP4 ADD SLT PUSH3 0x33BD JUMPI PUSH1 0x0 DUP1 REVERT JUMPDEST DUP2 CALLDATALOAD PUSH3 0x33CF DUP5 DUP3 PUSH1 0x20 DUP7 ADD PUSH3 0x3321 JUMP JUMPDEST SWAP2 POP POP SWAP3 SWAP2 POP POP JUMP JUMPDEST PUSH1 0x0 DUP2 CALLDATALOAD SWAP1 POP PUSH3 0x33E9 DUP2 PUSH3 0x451E JUMP JUMPDEST SWAP3 SWAP2 POP POP JUMP JUMPDEST PUSH1 0x0 DUP2 MLOAD SWAP1 POP PUSH3 0x3400 DUP2 PUSH3 0x451E JUMP JUMPDEST SWAP3 SWAP2 POP POP JUMP JUMPDEST PUSH1 0x0 DUP2 CALLDATALOAD SWAP1 POP PUSH3 0x3417 DUP2 PUSH3 0x4538 JUMP JUMPDEST SWAP3 SWAP2 POP POP JUMP JUMPDEST PUSH1 0x0 DUP2 CALLDATALOAD SWAP1 POP PUSH3 0x342E DUP2 PUSH3 0x4552 JUMP JUMPDEST SWAP3 SWAP2 POP POP JUMP JUMPDEST PUSH1 0x0 DUP2 MLOAD SWAP1 POP PUSH3 0x3445 DUP2 PUSH3 0x4552 JUMP JUMPDEST SWAP3 SWAP2 POP POP JUMP JUMPDEST PUSH1 0x0 PUSH1 0x20 DUP3 DUP5 SUB SLT ISZERO PUSH3 0x345E JUMPI PUSH1 0x0 DUP1 REVERT JUMPDEST PUSH1 0x0 PUSH3 0x346E DUP5 DUP3 DUP6 ADD PUSH3 0x3366 JUMP JUMPDEST SWAP2 POP POP SWAP3 SWAP2 POP POP JUMP JUMPDEST PUSH1 0x0 DUP1 PUSH1 0x40 DUP4 DUP6 SUB SLT ISZERO PUSH3 0x348B JUMPI PUSH1 0x0 DUP1 REVERT JUMPDEST PUSH1 0x0 PUSH3 0x349B DUP6 DUP3 DUP7 ADD PUSH3 0x3366 JUMP JUMPDEST SWAP3 POP POP PUSH1 0x20 DUP4 ADD CALLDATALOAD PUSH8 0xFFFFFFFFFFFFFFFF DUP2 GT ISZERO PUSH3 0x34B9 JUMPI PUSH1 0x0 DUP1 REVERT JUMPDEST PUSH3 0x34C7 DUP6 DUP3 DUP7 ADD PUSH3 0x33AB JUMP JUMPDEST SWAP2 POP POP SWAP3 POP SWAP3 SWAP1 POP JUMP JUMPDEST PUSH1 0x0 PUSH1 0x20 DUP3 DUP5 SUB SLT ISZERO PUSH3 0x34E4 JUMPI PUSH1 0x0 DUP1 REVERT JUMPDEST PUSH1 0x0 PUSH3 0x34F4 DUP5 DUP3 DUP6 ADD PUSH3 0x3394 JUMP JUMPDEST SWAP2 POP POP SWAP3 SWAP2 POP POP JUMP JUMPDEST PUSH1 0x0 PUSH1 0x20 DUP3 DUP5 SUB SLT ISZERO PUSH3 0x3510 JUMPI PUSH1 0x0 DUP1 REVERT JUMPDEST PUSH1 0x0 PUSH3 0x3520 DUP5 DUP3 DUP6 ADD PUSH3 0x33EF JUMP JUMPDEST SWAP2 POP POP SWAP3 SWAP2 POP POP JUMP JUMPDEST PUSH1 0x0 DUP1 PUSH1 0x0 PUSH1 0x60 DUP5 DUP7 SUB SLT ISZERO PUSH3 0x353F JUMPI PUSH1 0x0 DUP1 REVERT JUMPDEST PUSH1 0x0 PUSH3 0x354F DUP7 DUP3 DUP8 ADD PUSH3 0x33D8 JUMP JUMPDEST SWAP4 POP POP PUSH1 0x20 PUSH3 0x3562 DUP7 DUP3 DUP8 ADD PUSH3 0x341D JUMP JUMPDEST SWAP3 POP POP PUSH1 0x40 PUSH3 0x3575 DUP7 DUP3 DUP8 ADD PUSH3 0x341D JUMP JUMPDEST SWAP2 POP POP SWAP3 POP SWAP3 POP SWAP3 JUMP JUMPDEST PUSH1 0x0 PUSH1 0x20 DUP3 DUP5 SUB SLT ISZERO PUSH3 0x3592 JUMPI PUSH1 0x0 DUP1 REVERT JUMPDEST PUSH1 0x0 PUSH3 0x35A2 DUP5 DUP3 DUP6 ADD PUSH3 0x3406 JUMP JUMPDEST SWAP2 POP POP SWAP3 SWAP2 POP POP JUMP JUMPDEST PUSH1 0x0 PUSH1 0x20 DUP3 DUP5 SUB SLT ISZERO PUSH3 0x35BE JUMPI PUSH1 0x0 DUP1 REVERT JUMPDEST PUSH1 0x0 PUSH3 0x35CE DUP5 DUP3 DUP6 ADD PUSH3 0x341D JUMP JUMPDEST SWAP2 POP POP SWAP3 SWAP2 POP POP JUMP JUMPDEST PUSH1 0x0 PUSH1 0x20 DUP3 DUP5 SUB SLT ISZERO PUSH3 0x35EA JUMPI PUSH1 0x0 DUP1 REVERT JUMPDEST PUSH1 0x0 PUSH3 0x35FA DUP5 DUP3 DUP6 ADD PUSH3 0x3434 JUMP JUMPDEST SWAP2 POP POP SWAP3 SWAP2 POP POP JUMP JUMPDEST PUSH1 0x0 DUP1 PUSH1 0x40 DUP4 DUP6 SUB SLT ISZERO PUSH3 0x3617 JUMPI PUSH1 0x0 DUP1 REVERT JUMPDEST PUSH1 0x0 PUSH3 0x3627 DUP6 DUP3 DUP7 ADD PUSH3 0x341D JUMP JUMPDEST SWAP3 POP POP PUSH1 0x20 PUSH3 0x363A DUP6 DUP3 DUP7 ADD PUSH3 0x3366 JUMP JUMPDEST SWAP2 POP POP SWAP3 POP SWAP3 SWAP1 POP JUMP JUMPDEST PUSH1 0x0 DUP1 PUSH1 0x0 PUSH1 0x60 DUP5 DUP7 SUB SLT ISZERO PUSH3 0x365A JUMPI PUSH1 0x0 DUP1 REVERT JUMPDEST PUSH1 0x0 PUSH3 0x366A DUP7 DUP3 DUP8 ADD PUSH3 0x341D JUMP JUMPDEST SWAP4 POP POP PUSH1 0x20 PUSH3 0x367D DUP7 DUP3 DUP8 ADD PUSH3 0x33D8 JUMP JUMPDEST SWAP3 POP POP PUSH1 0x40 PUSH3 0x3690 DUP7 DUP3 DUP8 ADD PUSH3 0x337D JUMP JUMPDEST SWAP2 POP POP SWAP3 POP SWAP3 POP SWAP3 JUMP JUMPDEST PUSH1 0x0 DUP1 PUSH1 0x40 DUP4 DUP6 SUB SLT ISZERO PUSH3 0x36AE JUMPI PUSH1 0x0 DUP1 REVERT JUMPDEST PUSH1 0x0 PUSH3 0x36BE DUP6 DUP3 DUP7 ADD PUSH3 0x341D JUMP JUMPDEST SWAP3 POP POP PUSH1 0x20 PUSH3 0x36D1 DUP6 DUP3 DUP7 ADD PUSH3 0x341D JUMP JUMPDEST SWAP2 POP POP SWAP3 POP SWAP3 SWAP1 POP JUMP JUMPDEST PUSH1 0x0 DUP1 PUSH1 0x0 PUSH1 0x60 DUP5 DUP7 SUB SLT ISZERO PUSH3 0x36F1 JUMPI PUSH1 0x0 DUP1 REVERT JUMPDEST PUSH1 0x0 PUSH3 0x3701 DUP7 DUP3 DUP8 ADD PUSH3 0x341D JUMP JUMPDEST SWAP4 POP POP PUSH1 0x20 PUSH3 0x3714 DUP7 DUP3 DUP8 ADD PUSH3 0x341D JUMP JUMPDEST SWAP3 POP POP PUSH1 0x40 PUSH3 0x3727 DUP7 DUP3 DUP8 ADD PUSH3 0x337D JUMP JUMPDEST SWAP2 POP POP SWAP3 POP SWAP3 POP SWAP3 JUMP JUMPDEST PUSH3 0x373C DUP2 PUSH3 0x3F54 JUMP JUMPDEST DUP3 MSTORE POP POP JUMP JUMPDEST PUSH1 0x0 PUSH3 0x374F DUP3 PUSH3 0x3DF1 JUMP JUMPDEST PUSH3 0x375B DUP2 DUP6 PUSH3 0x3E07 JUMP JUMPDEST SWAP4 POP PUSH3 0x376D DUP2 DUP6 PUSH1 0x20 DUP7 ADD PUSH3 0x404D JUMP JUMPDEST DUP1 DUP5 ADD SWAP2 POP POP SWAP3 SWAP2 POP POP JUMP JUMPDEST PUSH3 0x3784 DUP2 PUSH3 0x3FC6 JUMP JUMPDEST DUP3 MSTORE POP POP JUMP JUMPDEST PUSH3 0x3795 DUP2 PUSH3 0x3FEE JUMP JUMPDEST DUP3 MSTORE POP POP JUMP JUMPDEST PUSH3 0x37A6 DUP2 PUSH3 0x4016 JUMP JUMPDEST DUP3 MSTORE POP POP JUMP JUMPDEST PUSH1 0x0 PUSH3 0x37B9 DUP3 PUSH3 0x3DFC JUMP JUMPDEST PUSH3 0x37C5 DUP2 DUP6 PUSH3 0x3E12 JUMP JUMPDEST SWAP4 POP PUSH3 0x37D7 DUP2 DUP6 PUSH1 0x20 DUP7 ADD PUSH3 0x404D JUMP JUMPDEST PUSH3 0x37E2 DUP2 PUSH3 0x4194 JUMP JUMPDEST DUP5 ADD SWAP2 POP POP SWAP3 SWAP2 POP POP JUMP JUMPDEST PUSH1 0x0 PUSH3 0x37FC PUSH1 0x2F DUP4 PUSH3 0x3E12 JUMP JUMPDEST SWAP2 POP PUSH3 0x3809 DUP3 PUSH3 0x41A5 JUMP JUMPDEST PUSH1 0x40 DUP3 ADD SWAP1 POP SWAP2 SWAP1 POP JUMP JUMPDEST PUSH1 0x0 PUSH3 0x3823 PUSH1 0x26 DUP4 PUSH3 0x3E12 JUMP JUMPDEST SWAP2 POP PUSH3 0x3830 DUP3 PUSH3 0x41F4 JUMP JUMPDEST PUSH1 0x40 DUP3 ADD SWAP1 POP SWAP2 SWAP1 POP JUMP JUMPDEST PUSH1 0x0 PUSH3 0x384A PUSH1 0x26 DUP4 PUSH3 0x3E12 JUMP JUMPDEST SWAP2 POP PUSH3 0x3857 DUP3 PUSH3 0x4243 JUMP JUMPDEST PUSH1 0x40 DUP3 ADD SWAP1 POP SWAP2 SWAP1 POP JUMP JUMPDEST PUSH1 0x0 PUSH3 0x3871 PUSH1 0x2E DUP4 PUSH3 0x3E12 JUMP JUMPDEST SWAP2 POP PUSH3 0x387E DUP3 PUSH3 0x4292 JUMP JUMPDEST PUSH1 0x40 DUP3 ADD SWAP1 POP SWAP2 SWAP1 POP JUMP JUMPDEST PUSH1 0x0 PUSH3 0x3898 PUSH1 0x2D DUP4 PUSH3 0x3E12 JUMP JUMPDEST SWAP2 POP PUSH3 0x38A5 DUP3 PUSH3 0x42E1 JUMP JUMPDEST PUSH1 0x40 DUP3 ADD SWAP1 POP SWAP2 SWAP1 POP JUMP JUMPDEST PUSH1 0x0 PUSH3 0x38BF PUSH1 0x20 DUP4 PUSH3 0x3E12 JUMP JUMPDEST SWAP2 POP PUSH3 0x38CC DUP3 PUSH3 0x4330 JUMP JUMPDEST PUSH1 0x20 DUP3 ADD SWAP1 POP SWAP2 SWAP1 POP JUMP JUMPDEST PUSH1 0x0 PUSH3 0x38E6 PUSH1 0x26 DUP4 PUSH3 0x3E12 JUMP JUMPDEST SWAP2 POP PUSH3 0x38F3 DUP3 PUSH3 0x4359 JUMP JUMPDEST PUSH1 0x40 DUP3 ADD SWAP1 POP SWAP2 SWAP1 POP JUMP JUMPDEST PUSH1 0x0 PUSH3 0x390D PUSH1 0x1D DUP4 PUSH3 0x3E12 JUMP JUMPDEST SWAP2 POP PUSH3 0x391A DUP3 PUSH3 0x43A8 JUMP JUMPDEST PUSH1 0x20 DUP3 ADD SWAP1 POP SWAP2 SWAP1 POP JUMP JUMPDEST PUSH1 0x0 PUSH3 0x3934 PUSH1 0x12 DUP4 PUSH3 0x3E12 JUMP JUMPDEST SWAP2 POP PUSH3 0x3941 DUP3 PUSH3 0x43D1 JUMP JUMPDEST PUSH1 0x20 DUP3 ADD SWAP1 POP SWAP2 SWAP1 POP JUMP JUMPDEST PUSH1 0x0 PUSH3 0x395B PUSH1 0x2A DUP4 PUSH3 0x3E12 JUMP JUMPDEST SWAP2 POP PUSH3 0x3968 DUP3 PUSH3 0x43FA JUMP JUMPDEST PUSH1 0x40 DUP3 ADD SWAP1 POP SWAP2 SWAP1 POP JUMP JUMPDEST PUSH1 0x0 PUSH3 0x3982 PUSH1 0xC DUP4 PUSH3 0x3E12 JUMP JUMPDEST SWAP2 POP PUSH3 0x398F DUP3 PUSH3 0x4449 JUMP JUMPDEST PUSH1 0x20 DUP3 ADD SWAP1 POP SWAP2 SWAP1 POP JUMP JUMPDEST PUSH1 0x0 PUSH3 0x39A9 PUSH1 0x36 DUP4 PUSH3 0x3E12 JUMP JUMPDEST SWAP2 POP PUSH3 0x39B6 DUP3 PUSH3 0x4472 JUMP JUMPDEST PUSH1 0x40 DUP3 ADD SWAP1 POP SWAP2 SWAP1 POP JUMP JUMPDEST PUSH1 0x0 PUSH3 0x39D0 PUSH1 0x14 DUP4 PUSH3 0x3E12 JUMP JUMPDEST SWAP2 POP PUSH3 0x39DD DUP3 PUSH3 0x44C1 JUMP JUMPDEST PUSH1 0x20 DUP3 ADD SWAP1 POP SWAP2 SWAP1 POP JUMP JUMPDEST PUSH3 0x39F3 DUP2 PUSH3 0x3FBC JUMP JUMPDEST DUP3 MSTORE POP POP JUMP JUMPDEST PUSH1 0x0 PUSH3 0x3A07 DUP3 DUP5 PUSH3 0x3742 JUMP JUMPDEST SWAP2 POP DUP2 SWAP1 POP SWAP3 SWAP2 POP POP JUMP JUMPDEST PUSH1 0x0 PUSH1 0x20 DUP3 ADD SWAP1 POP PUSH3 0x3A29 PUSH1 0x0 DUP4 ADD DUP5 PUSH3 0x3731 JUMP JUMPDEST SWAP3 SWAP2 POP POP JUMP JUMPDEST PUSH1 0x0 PUSH1 0x40 DUP3 ADD SWAP1 POP PUSH3 0x3A46 PUSH1 0x0 DUP4 ADD DUP6 PUSH3 0x3731 JUMP JUMPDEST PUSH3 0x3A55 PUSH1 0x20 DUP4 ADD DUP5 PUSH3 0x3731 JUMP JUMPDEST SWAP4 SWAP3 POP POP POP JUMP JUMPDEST PUSH1 0x0 PUSH1 0x60 DUP3 ADD SWAP1 POP PUSH3 0x3A73 PUSH1 0x0 DUP4 ADD DUP7 PUSH3 0x3731 JUMP JUMPDEST PUSH3 0x3A82 PUSH1 0x20 DUP4 ADD DUP6 PUSH3 0x3731 JUMP JUMPDEST PUSH3 0x3A91 PUSH1 0x40 DUP4 ADD DUP5 PUSH3 0x39E8 JUMP JUMPDEST SWAP5 SWAP4 POP POP POP POP JUMP JUMPDEST PUSH1 0x0 PUSH1 0x40 DUP3 ADD SWAP1 POP PUSH3 0x3AB0 PUSH1 0x0 DUP4 ADD DUP6 PUSH3 0x3731 JUMP JUMPDEST PUSH3 0x3ABF PUSH1 0x20 DUP4 ADD DUP5 PUSH3 0x39E8 JUMP JUMPDEST SWAP4 SWAP3 POP POP POP JUMP JUMPDEST PUSH1 0x0 PUSH1 0x20 DUP3 ADD SWAP1 POP PUSH3 0x3ADD PUSH1 0x0 DUP4 ADD DUP5 PUSH3 0x3779 JUMP JUMPDEST SWAP3 SWAP2 POP POP JUMP JUMPDEST PUSH1 0x0 PUSH1 0x80 DUP3 ADD SWAP1 POP PUSH3 0x3AFA PUSH1 0x0 DUP4 ADD DUP8 PUSH3 0x3779 JUMP JUMPDEST PUSH3 0x3B09 PUSH1 0x20 DUP4 ADD DUP7 PUSH3 0x39E8 JUMP JUMPDEST PUSH3 0x3B18 PUSH1 0x40 DUP4 ADD DUP6 PUSH3 0x39E8 JUMP JUMPDEST PUSH3 0x3B27 PUSH1 0x60 DUP4 ADD DUP5 PUSH3 0x39E8 JUMP JUMPDEST SWAP6 SWAP5 POP POP POP POP POP JUMP JUMPDEST PUSH1 0x0 PUSH1 0x20 DUP3 ADD SWAP1 POP PUSH3 0x3B47 PUSH1 0x0 DUP4 ADD DUP5 PUSH3 0x378A JUMP JUMPDEST SWAP3 SWAP2 POP POP JUMP JUMPDEST PUSH1 0x0 PUSH1 0x20 DUP3 ADD SWAP1 POP PUSH3 0x3B64 PUSH1 0x0 DUP4 ADD DUP5 PUSH3 0x379B JUMP JUMPDEST SWAP3 SWAP2 POP POP JUMP JUMPDEST PUSH1 0x0 PUSH1 0x20 DUP3 ADD SWAP1 POP DUP2 DUP2 SUB PUSH1 0x0 DUP4 ADD MSTORE PUSH3 0x3B86 DUP2 DUP5 PUSH3 0x37AC JUMP JUMPDEST SWAP1 POP SWAP3 SWAP2 POP POP JUMP JUMPDEST PUSH1 0x0 PUSH1 0x20 DUP3 ADD SWAP1 POP DUP2 DUP2 SUB PUSH1 0x0 DUP4 ADD MSTORE PUSH3 0x3BA9 DUP2 PUSH3 0x37ED JUMP JUMPDEST SWAP1 POP SWAP2 SWAP1 POP JUMP JUMPDEST PUSH1 0x0 PUSH1 0x20 DUP3 ADD SWAP1 POP DUP2 DUP2 SUB PUSH1 0x0 DUP4 ADD MSTORE PUSH3 0x3BCB DUP2 PUSH3 0x3814 JUMP JUMPDEST SWAP1 POP SWAP2 SWAP1 POP JUMP JUMPDEST PUSH1 0x0 PUSH1 0x20 DUP3 ADD SWAP1 POP DUP2 DUP2 SUB PUSH1 0x0 DUP4 ADD MSTORE PUSH3 0x3BED DUP2 PUSH3 0x383B JUMP JUMPDEST SWAP1 POP SWAP2 SWAP1 POP JUMP JUMPDEST PUSH1 0x0 PUSH1 0x20 DUP3 ADD SWAP1 POP DUP2 DUP2 SUB PUSH1 0x0 DUP4 ADD MSTORE PUSH3 0x3C0F DUP2 PUSH3 0x3862 JUMP JUMPDEST SWAP1 POP SWAP2 SWAP1 POP JUMP JUMPDEST PUSH1 0x0 PUSH1 0x20 DUP3 ADD SWAP1 POP DUP2 DUP2 SUB PUSH1 0x0 DUP4 ADD MSTORE PUSH3 0x3C31 DUP2 PUSH3 0x3889 JUMP JUMPDEST SWAP1 POP SWAP2 SWAP1 POP JUMP JUMPDEST PUSH1 0x0 PUSH1 0x20 DUP3 ADD SWAP1 POP DUP2 DUP2 SUB PUSH1 0x0 DUP4 ADD MSTORE PUSH3 0x3C53 DUP2 PUSH3 0x38B0 JUMP JUMPDEST SWAP1 POP SWAP2 SWAP1 POP JUMP JUMPDEST PUSH1 0x0 PUSH1 0x20 DUP3 ADD SWAP1 POP DUP2 DUP2 SUB PUSH1 0x0 DUP4 ADD MSTORE PUSH3 0x3C75 DUP2 PUSH3 0x38D7 JUMP JUMPDEST SWAP1 POP SWAP2 SWAP1 POP JUMP JUMPDEST PUSH1 0x0 PUSH1 0x20 DUP3 ADD SWAP1 POP DUP2 DUP2 SUB PUSH1 0x0 DUP4 ADD MSTORE PUSH3 0x3C97 DUP2 PUSH3 0x38FE JUMP JUMPDEST SWAP1 POP SWAP2 SWAP1 POP JUMP JUMPDEST PUSH1 0x0 PUSH1 0x20 DUP3 ADD SWAP1 POP DUP2 DUP2 SUB PUSH1 0x0 DUP4 ADD MSTORE PUSH3 0x3CB9 DUP2 PUSH3 0x3925 JUMP JUMPDEST SWAP1 POP SWAP2 SWAP1 POP JUMP JUMPDEST PUSH1 0x0 PUSH1 0x20 DUP3 ADD SWAP1 POP DUP2 DUP2 SUB PUSH1 0x0 DUP4 ADD MSTORE PUSH3 0x3CDB DUP2 PUSH3 0x394C JUMP JUMPDEST SWAP1 POP SWAP2 SWAP1 POP JUMP JUMPDEST PUSH1 0x0 PUSH1 0x20 DUP3 ADD SWAP1 POP DUP2 DUP2 SUB PUSH1 0x0 DUP4 ADD MSTORE PUSH3 0x3CFD DUP2 PUSH3 0x3973 JUMP JUMPDEST SWAP1 POP SWAP2 SWAP1 POP JUMP JUMPDEST PUSH1 0x0 PUSH1 0x20 DUP3 ADD SWAP1 POP DUP2 DUP2 SUB PUSH1 0x0 DUP4 ADD MSTORE PUSH3 0x3D1F DUP2 PUSH3 0x399A JUMP JUMPDEST SWAP1 POP SWAP2 SWAP1 POP JUMP JUMPDEST PUSH1 0x0 PUSH1 0x20 DUP3 ADD SWAP1 POP DUP2 DUP2 SUB PUSH1 0x0 DUP4 ADD MSTORE PUSH3 0x3D41 DUP2 PUSH3 0x39C1 JUMP JUMPDEST SWAP1 POP SWAP2 SWAP1 POP JUMP JUMPDEST PUSH1 0x0 PUSH1 0x20 DUP3 ADD SWAP1 POP PUSH3 0x3D5F PUSH1 0x0 DUP4 ADD DUP5 PUSH3 0x39E8 JUMP JUMPDEST SWAP3 SWAP2 POP POP JUMP JUMPDEST PUSH1 0x0 PUSH1 0x40 DUP3 ADD SWAP1 POP PUSH3 0x3D7C PUSH1 0x0 DUP4 ADD DUP6 PUSH3 0x39E8 JUMP JUMPDEST PUSH3 0x3D8B PUSH1 0x20 DUP4 ADD DUP5 PUSH3 0x39E8 JUMP JUMPDEST SWAP4 SWAP3 POP POP POP JUMP JUMPDEST PUSH1 0x0 PUSH3 0x3D9E PUSH3 0x3DB1 JUMP JUMPDEST SWAP1 POP PUSH3 0x3DAC DUP3 DUP3 PUSH3 0x4083 JUMP JUMPDEST SWAP2 SWAP1 POP JUMP JUMPDEST PUSH1 0x0 PUSH1 0x40 MLOAD SWAP1 POP SWAP1 JUMP JUMPDEST PUSH1 0x0 PUSH8 0xFFFFFFFFFFFFFFFF DUP3 GT ISZERO PUSH3 0x3DD9 JUMPI PUSH3 0x3DD8 PUSH3 0x4165 JUMP JUMPDEST JUMPDEST PUSH3 0x3DE4 DUP3 PUSH3 0x4194 JUMP JUMPDEST SWAP1 POP PUSH1 0x20 DUP2 ADD SWAP1 POP SWAP2 SWAP1 POP JUMP JUMPDEST PUSH1 0x0 DUP2 MLOAD SWAP1 POP SWAP2 SWAP1 POP JUMP JUMPDEST PUSH1 0x0 DUP2 MLOAD SWAP1 POP SWAP2 SWAP1 POP JUMP JUMPDEST PUSH1 0x0 DUP2 SWAP1 POP SWAP3 SWAP2 POP POP JUMP JUMPDEST PUSH1 0x0 DUP3 DUP3 MSTORE PUSH1 0x20 DUP3 ADD SWAP1 POP SWAP3 SWAP2 POP POP JUMP JUMPDEST PUSH1 0x0 PUSH3 0x3E30 DUP3 PUSH3 0x3FBC JUMP JUMPDEST SWAP2 POP PUSH3 0x3E3D DUP4 PUSH3 0x3FBC JUMP JUMPDEST SWAP3 POP DUP3 PUSH32 0xFFFFFFFFFFFFFFFFFFFFFFFFFFFFFFFFFFFFFFFFFFFFFFFFFFFFFFFFFFFFFFFF SUB DUP3 GT ISZERO PUSH3 0x3E75 JUMPI PUSH3 0x3E74 PUSH3 0x4107 JUMP JUMPDEST JUMPDEST DUP3 DUP3 ADD SWAP1 POP SWAP3 SWAP2 POP POP JUMP JUMPDEST PUSH1 0x0 PUSH3 0x3E8D DUP3 PUSH3 0x3FBC JUMP JUMPDEST SWAP2 POP PUSH3 0x3E9A DUP4 PUSH3 0x3FBC JUMP JUMPDEST SWAP3 POP DUP3 PUSH3 0x3EAD JUMPI PUSH3 0x3EAC PUSH3 0x4136 JUMP JUMPDEST JUMPDEST DUP3 DUP3 DIV SWAP1 POP SWAP3 SWAP2 POP POP JUMP JUMPDEST PUSH1 0x0 PUSH3 0x3EC5 DUP3 PUSH3 0x3FBC JUMP JUMPDEST SWAP2 POP PUSH3 0x3ED2 DUP4 PUSH3 0x3FBC JUMP JUMPDEST SWAP3 POP DUP2 PUSH32 0xFFFFFFFFFFFFFFFFFFFFFFFFFFFFFFFFFFFFFFFFFFFFFFFFFFFFFFFFFFFFFFFF DIV DUP4 GT DUP3 ISZERO ISZERO AND ISZERO PUSH3 0x3F0E JUMPI PUSH3 0x3F0D PUSH3 0x4107 JUMP JUMPDEST JUMPDEST DUP3 DUP3 MUL SWAP1 POP SWAP3 SWAP2 POP POP JUMP JUMPDEST PUSH1 0x0 PUSH3 0x3F26 DUP3 PUSH3 0x3FBC JUMP JUMPDEST SWAP2 POP PUSH3 0x3F33 DUP4 PUSH3 0x3FBC JUMP JUMPDEST SWAP3 POP DUP3 DUP3 LT ISZERO PUSH3 0x3F49 JUMPI PUSH3 0x3F48 PUSH3 0x4107 JUMP JUMPDEST JUMPDEST DUP3 DUP3 SUB SWAP1 POP SWAP3 SWAP2 POP POP JUMP JUMPDEST PUSH1 0x0 PUSH3 0x3F61 DUP3 PUSH3 0x3F9C JUMP JUMPDEST SWAP1 POP SWAP2 SWAP1 POP JUMP JUMPDEST PUSH1 0x0 DUP2 ISZERO ISZERO SWAP1 POP SWAP2 SWAP1 POP JUMP JUMPDEST PUSH1 0x0 PUSH3 0x3F81 DUP3 PUSH3 0x3F54 JUMP JUMPDEST SWAP1 POP SWAP2 SWAP1 POP JUMP JUMPDEST PUSH1 0x0 PUSH3 0x3F95 DUP3 PUSH3 0x3F54 JUMP JUMPDEST SWAP1 POP SWAP2 SWAP1 POP JUMP JUMPDEST PUSH1 0x0 PUSH20 0xFFFFFFFFFFFFFFFFFFFFFFFFFFFFFFFFFFFFFFFF DUP3 AND SWAP1 POP SWAP2 SWAP1 POP JUMP JUMPDEST PUSH1 0x0 DUP2 SWAP1 POP SWAP2 SWAP1 POP JUMP JUMPDEST PUSH1 0x0 PUSH3 0x3FD3 DUP3 PUSH3 0x3FDA JUMP JUMPDEST SWAP1 POP SWAP2 SWAP1 POP JUMP JUMPDEST PUSH1 0x0 PUSH3 0x3FE7 DUP3 PUSH3 0x3F9C JUMP JUMPDEST SWAP1 POP SWAP2 SWAP1 POP JUMP JUMPDEST PUSH1 0x0 PUSH3 0x3FFB DUP3 PUSH3 0x4002 JUMP JUMPDEST SWAP1 POP SWAP2 SWAP1 POP JUMP JUMPDEST PUSH1 0x0 PUSH3 0x400F DUP3 PUSH3 0x3F9C JUMP JUMPDEST SWAP1 POP SWAP2 SWAP1 POP JUMP JUMPDEST PUSH1 0x0 PUSH3 0x4023 DUP3 PUSH3 0x402A JUMP JUMPDEST SWAP1 POP SWAP2 SWAP1 POP JUMP JUMPDEST PUSH1 0x0 PUSH3 0x4037 DUP3 PUSH3 0x3F9C JUMP JUMPDEST SWAP1 POP SWAP2 SWAP1 POP JUMP JUMPDEST DUP3 DUP2 DUP4 CALLDATACOPY PUSH1 0x0 DUP4 DUP4 ADD MSTORE POP POP POP JUMP JUMPDEST PUSH1 0x0 JUMPDEST DUP4 DUP2 LT ISZERO PUSH3 0x406D JUMPI DUP1 DUP3 ADD MLOAD DUP2 DUP5 ADD MSTORE PUSH1 0x20 DUP2 ADD SWAP1 POP PUSH3 0x4050 JUMP JUMPDEST DUP4 DUP2 GT ISZERO PUSH3 0x407D JUMPI PUSH1 0x0 DUP5 DUP5 ADD MSTORE JUMPDEST POP POP POP POP JUMP JUMPDEST PUSH3 0x408E DUP3 PUSH3 0x4194 JUMP JUMPDEST DUP2 ADD DUP2 DUP2 LT PUSH8 0xFFFFFFFFFFFFFFFF DUP3 GT OR ISZERO PUSH3 0x40B0 JUMPI PUSH3 0x40AF PUSH3 0x4165 JUMP JUMPDEST JUMPDEST DUP1 PUSH1 0x40 MSTORE POP POP POP JUMP JUMPDEST PUSH1 0x0 PUSH3 0x40C6 DUP3 PUSH3 0x3FBC JUMP JUMPDEST SWAP2 POP PUSH32 0xFFFFFFFFFFFFFFFFFFFFFFFFFFFFFFFFFFFFFFFFFFFFFFFFFFFFFFFFFFFFFFFF DUP3 EQ ISZERO PUSH3 0x40FC JUMPI PUSH3 0x40FB PUSH3 0x4107 JUMP JUMPDEST JUMPDEST PUSH1 0x1 DUP3 ADD SWAP1 POP SWAP2 SWAP1 POP JUMP JUMPDEST PUSH32 0x4E487B7100000000000000000000000000000000000000000000000000000000 PUSH1 0x0 MSTORE PUSH1 0x11 PUSH1 0x4 MSTORE PUSH1 0x24 PUSH1 0x0 REVERT JUMPDEST PUSH32 0x4E487B7100000000000000000000000000000000000000000000000000000000 PUSH1 0x0 MSTORE PUSH1 0x12 PUSH1 0x4 MSTORE PUSH1 0x24 PUSH1 0x0 REVERT JUMPDEST PUSH32 0x4E487B7100000000000000000000000000000000000000000000000000000000 PUSH1 0x0 MSTORE PUSH1 0x41 PUSH1 0x4 MSTORE PUSH1 0x24 PUSH1 0x0 REVERT JUMPDEST PUSH1 0x0 PUSH1 0x1F NOT PUSH1 0x1F DUP4 ADD AND SWAP1 POP SWAP2 SWAP1 POP JUMP JUMPDEST PUSH32 0x45524331393637557067726164653A207570677261646520627265616B732066 PUSH1 0x0 DUP3 ADD MSTORE PUSH32 0x7572746865722075706772616465730000000000000000000000000000000000 PUSH1 0x20 DUP3 ADD MSTORE POP JUMP JUMPDEST PUSH32 0x4F776E61626C653A206E6577206F776E657220697320746865207A65726F2061 PUSH1 0x0 DUP3 ADD MSTORE PUSH32 0x6464726573730000000000000000000000000000000000000000000000000000 PUSH1 0x20 DUP3 ADD MSTORE POP JUMP JUMPDEST PUSH32 0x416464726573733A20696E73756666696369656E742062616C616E636520666F PUSH1 0x0 DUP3 ADD MSTORE PUSH32 0x722063616C6C0000000000000000000000000000000000000000000000000000 PUSH1 0x20 DUP3 ADD MSTORE POP JUMP JUMPDEST PUSH32 0x496E697469616C697A61626C653A20636F6E747261637420697320616C726561 PUSH1 0x0 DUP3 ADD MSTORE PUSH32 0x647920696E697469616C697A6564000000000000000000000000000000000000 PUSH1 0x20 DUP3 ADD MSTORE POP JUMP JUMPDEST PUSH32 0x455243313936373A206E657720696D706C656D656E746174696F6E206973206E PUSH1 0x0 DUP3 ADD MSTORE PUSH32 0x6F74206120636F6E747261637400000000000000000000000000000000000000 PUSH1 0x20 DUP3 ADD MSTORE POP JUMP JUMPDEST PUSH32 0x4F776E61626C653A2063616C6C6572206973206E6F7420746865206F776E6572 PUSH1 0x0 DUP3 ADD MSTORE POP JUMP JUMPDEST PUSH32 0x416464726573733A2064656C65676174652063616C6C20746F206E6F6E2D636F PUSH1 0x0 DUP3 ADD MSTORE PUSH32 0x6E74726163740000000000000000000000000000000000000000000000000000 PUSH1 0x20 DUP3 ADD MSTORE POP JUMP JUMPDEST PUSH32 0x416464726573733A2063616C6C20746F206E6F6E2D636F6E7472616374000000 PUSH1 0x0 DUP3 ADD MSTORE POP JUMP JUMPDEST PUSH32 0x77697468647261773A206E6F7420676F6F640000000000000000000000000000 PUSH1 0x0 DUP3 ADD MSTORE POP JUMP JUMPDEST PUSH32 0x5361666545524332303A204552433230206F7065726174696F6E20646964206E PUSH1 0x0 DUP3 ADD MSTORE PUSH32 0x6F74207375636365656400000000000000000000000000000000000000000000 PUSH1 0x20 DUP3 ADD MSTORE POP JUMP JUMPDEST PUSH32 0x6D6967726174653A206261640000000000000000000000000000000000000000 PUSH1 0x0 DUP3 ADD MSTORE POP JUMP JUMPDEST PUSH32 0x5361666545524332303A20617070726F76652066726F6D206E6F6E2D7A65726F PUSH1 0x0 DUP3 ADD MSTORE PUSH32 0x20746F206E6F6E2D7A65726F20616C6C6F77616E636500000000000000000000 PUSH1 0x20 DUP3 ADD MSTORE POP JUMP JUMPDEST PUSH32 0x6D6967726174653A206E6F206D69677261746F72000000000000000000000000 PUSH1 0x0 DUP3 ADD MSTORE POP JUMP JUMPDEST PUSH3 0x44F5 DUP2 PUSH3 0x3F54 JUMP JUMPDEST DUP2 EQ PUSH3 0x4501 JUMPI PUSH1 0x0 DUP1 REVERT JUMPDEST POP JUMP JUMPDEST PUSH3 0x450F DUP2 PUSH3 0x3F68 JUMP JUMPDEST DUP2 EQ PUSH3 0x451B JUMPI PUSH1 0x0 DUP1 REVERT JUMPDEST POP JUMP JUMPDEST PUSH3 0x4529 DUP2 PUSH3 0x3F74 JUMP JUMPDEST DUP2 EQ PUSH3 0x4535 JUMPI PUSH1 0x0 DUP1 REVERT JUMPDEST POP JUMP JUMPDEST PUSH3 0x4543 DUP2 PUSH3 0x3F88 JUMP JUMPDEST DUP2 EQ PUSH3 0x454F JUMPI PUSH1 0x0 DUP1 REVERT JUMPDEST POP JUMP JUMPDEST PUSH3 0x455D DUP2 PUSH3 0x3FBC JUMP JUMPDEST DUP2 EQ PUSH3 0x4569 JUMPI PUSH1 0x0 DUP1 REVERT JUMPDEST POP JUMP INVALID PUSH1 0x80 PUSH1 0x40 MSTORE CALLVALUE DUP1 ISZERO PUSH2 0x10 JUMPI PUSH1 0x0 DUP1 REVERT JUMPDEST POP PUSH1 0x40 MLOAD PUSH2 0xCED CODESIZE SUB DUP1 PUSH2 0xCED DUP4 CODECOPY DUP2 DUP2 ADD PUSH1 0x40 MSTORE DUP2 ADD SWAP1 PUSH2 0x32 SWAP2 SWAP1 PUSH2 0xCE JUMP JUMPDEST DUP1 PUSH1 0x0 DUP1 PUSH2 0x100 EXP DUP2 SLOAD DUP2 PUSH20 0xFFFFFFFFFFFFFFFFFFFFFFFFFFFFFFFFFFFFFFFF MUL NOT AND SWAP1 DUP4 PUSH20 0xFFFFFFFFFFFFFFFFFFFFFFFFFFFFFFFFFFFFFFFF AND MUL OR SWAP1 SSTORE POP CALLER PUSH1 0x1 PUSH1 0x0 PUSH2 0x100 EXP DUP2 SLOAD DUP2 PUSH20 0xFFFFFFFFFFFFFFFFFFFFFFFFFFFFFFFFFFFFFFFF MUL NOT AND SWAP1 DUP4 PUSH20 0xFFFFFFFFFFFFFFFFFFFFFFFFFFFFFFFFFFFFFFFF AND MUL OR SWAP1 SSTORE POP POP PUSH2 0x152 JUMP JUMPDEST PUSH1 0x0 DUP2 MLOAD SWAP1 POP PUSH2 0xC8 DUP2 PUSH2 0x13B JUMP JUMPDEST SWAP3 SWAP2 POP POP JUMP JUMPDEST PUSH1 0x0 PUSH1 0x20 DUP3 DUP5 SUB SLT ISZERO PUSH2 0xE0 JUMPI PUSH1 0x0 DUP1 REVERT JUMPDEST PUSH1 0x0 PUSH2 0xEE DUP5 DUP3 DUP6 ADD PUSH2 0xB9 JUMP JUMPDEST SWAP2 POP POP SWAP3 SWAP2 POP POP JUMP JUMPDEST PUSH1 0x0 PUSH2 0x102 DUP3 PUSH2 0x11B JUMP JUMPDEST SWAP1 POP SWAP2 SWAP1 POP JUMP JUMPDEST PUSH1 0x0 PUSH2 0x114 DUP3 PUSH2 0xF7 JUMP JUMPDEST SWAP1 POP SWAP2 SWAP1 POP JUMP JUMPDEST PUSH1 0x0 PUSH20 0xFFFFFFFFFFFFFFFFFFFFFFFFFFFFFFFFFFFFFFFF DUP3 AND SWAP1 POP SWAP2 SWAP1 POP JUMP JUMPDEST PUSH2 0x144 DUP2 PUSH2 0x109 JUMP JUMPDEST DUP2 EQ PUSH2 0x14F JUMPI PUSH1 0x0 DUP1 REVERT JUMPDEST POP JUMP JUMPDEST PUSH2 0xB8C DUP1 PUSH2 0x161 PUSH1 0x0 CODECOPY PUSH1 0x0 RETURN INVALID PUSH1 0x80 PUSH1 0x40 MSTORE CALLVALUE DUP1 ISZERO PUSH2 0x10 JUMPI PUSH1 0x0 DUP1 REVERT JUMPDEST POP PUSH1 0x4 CALLDATASIZE LT PUSH2 0x41 JUMPI PUSH1 0x0 CALLDATALOAD PUSH1 0xE0 SHR DUP1 PUSH4 0x8DA5CB5B EQ PUSH2 0x46 JUMPI DUP1 PUSH4 0xE5C9AD2E EQ PUSH2 0x64 JUMPI DUP1 PUSH4 0xE6D41A82 EQ PUSH2 0x82 JUMPI JUMPDEST PUSH1 0x0 DUP1 REVERT JUMPDEST PUSH2 0x4E PUSH2 0xB2 JUMP JUMPDEST PUSH1 0x40 MLOAD PUSH2 0x5B SWAP2 SWAP1 PUSH2 0x7FD JUMP JUMPDEST PUSH1 0x40 MLOAD DUP1 SWAP2 SUB SWAP1 RETURN JUMPDEST PUSH2 0x6C PUSH2 0xD8 JUMP JUMPDEST PUSH1 0x40 MLOAD PUSH2 0x79 SWAP2 SWAP1 PUSH2 0x841 JUMP JUMPDEST PUSH1 0x40 MLOAD DUP1 SWAP2 SUB SWAP1 RETURN JUMPDEST PUSH2 0x9C PUSH1 0x4 DUP1 CALLDATASIZE SUB DUP2 ADD SWAP1 PUSH2 0x97 SWAP2 SWAP1 PUSH2 0x635 JUMP JUMPDEST PUSH2 0xFC JUMP JUMPDEST PUSH1 0x40 MLOAD PUSH2 0xA9 SWAP2 SWAP1 PUSH2 0x8FE JUMP JUMPDEST PUSH1 0x40 MLOAD DUP1 SWAP2 SUB SWAP1 RETURN JUMPDEST PUSH1 0x1 PUSH1 0x0 SWAP1 SLOAD SWAP1 PUSH2 0x100 EXP SWAP1 DIV PUSH20 0xFFFFFFFFFFFFFFFFFFFFFFFFFFFFFFFFFFFFFFFF AND DUP2 JUMP JUMPDEST PUSH1 0x0 DUP1 SLOAD SWAP1 PUSH2 0x100 EXP SWAP1 DIV PUSH20 0xFFFFFFFFFFFFFFFFFFFFFFFFFFFFFFFFFFFFFFFF AND DUP2 JUMP JUMPDEST PUSH1 0x0 PUSH1 0x1 PUSH1 0x0 SWAP1 SLOAD SWAP1 PUSH2 0x100 EXP SWAP1 DIV PUSH20 0xFFFFFFFFFFFFFFFFFFFFFFFFFFFFFFFFFFFFFFFF AND PUSH20 0xFFFFFFFFFFFFFFFFFFFFFFFFFFFFFFFFFFFFFFFF AND CALLER PUSH20 0xFFFFFFFFFFFFFFFFFFFFFFFFFFFFFFFFFFFFFFFF AND EQ PUSH2 0x18E JUMPI PUSH1 0x40 MLOAD PUSH32 0x8C379A000000000000000000000000000000000000000000000000000000000 DUP2 MSTORE PUSH1 0x4 ADD PUSH2 0x185 SWAP1 PUSH2 0x89E JUMP JUMPDEST PUSH1 0x40 MLOAD DUP1 SWAP2 SUB SWAP1 REVERT JUMPDEST PUSH1 0x0 DUP1 PUSH1 0x0 SWAP1 SLOAD SWAP1 PUSH2 0x100 EXP SWAP1 DIV PUSH20 0xFFFFFFFFFFFFFFFFFFFFFFFFFFFFFFFFFFFFFFFF AND PUSH20 0xFFFFFFFFFFFFFFFFFFFFFFFFFFFFFFFFFFFFFFFF AND PUSH4 0x70A08231 ADDRESS PUSH1 0x40 MLOAD DUP3 PUSH4 0xFFFFFFFF AND PUSH1 0xE0 SHL DUP2 MSTORE PUSH1 0x4 ADD PUSH2 0x1EA SWAP2 SWAP1 PUSH2 0x7FD JUMP JUMPDEST PUSH1 0x20 PUSH1 0x40 MLOAD DUP1 DUP4 SUB DUP2 DUP7 DUP1 EXTCODESIZE ISZERO DUP1 ISZERO PUSH2 0x202 JUMPI PUSH1 0x0 DUP1 REVERT JUMPDEST POP GAS STATICCALL ISZERO DUP1 ISZERO PUSH2 0x216 JUMPI RETURNDATASIZE PUSH1 0x0 DUP1 RETURNDATACOPY RETURNDATASIZE PUSH1 0x0 REVERT JUMPDEST POP POP POP POP PUSH1 0x40 MLOAD RETURNDATASIZE PUSH1 0x1F NOT PUSH1 0x1F DUP3 ADD AND DUP3 ADD DUP1 PUSH1 0x40 MSTORE POP DUP2 ADD SWAP1 PUSH2 0x23A SWAP2 SWAP1 PUSH2 0x69A JUMP JUMPDEST SWAP1 POP DUP1 DUP4 GT ISZERO PUSH2 0x298 JUMPI PUSH2 0x28F DUP5 DUP3 PUSH1 0x0 DUP1 SLOAD SWAP1 PUSH2 0x100 EXP SWAP1 DIV PUSH20 0xFFFFFFFFFFFFFFFFFFFFFFFFFFFFFFFFFFFFFFFF AND PUSH20 0xFFFFFFFFFFFFFFFFFFFFFFFFFFFFFFFFFFFFFFFF AND PUSH2 0x2EE SWAP1 SWAP3 SWAP2 SWAP1 PUSH4 0xFFFFFFFF AND JUMP JUMPDEST DUP1 SWAP2 POP POP PUSH2 0x2E8 JUMP JUMPDEST PUSH2 0x2E3 DUP5 DUP5 PUSH1 0x0 DUP1 SLOAD SWAP1 PUSH2 0x100 EXP SWAP1 DIV PUSH20 0xFFFFFFFFFFFFFFFFFFFFFFFFFFFFFFFFFFFFFFFF AND PUSH20 0xFFFFFFFFFFFFFFFFFFFFFFFFFFFFFFFFFFFFFFFF AND PUSH2 0x2EE SWAP1 SWAP3 SWAP2 SWAP1 PUSH4 0xFFFFFFFF AND JUMP JUMPDEST DUP3 SWAP2 POP POP JUMPDEST SWAP3 SWAP2 POP POP JUMP JUMPDEST PUSH2 0x36F DUP4 PUSH4 0xA9059CBB PUSH1 0xE0 SHL DUP5 DUP5 PUSH1 0x40 MLOAD PUSH1 0x24 ADD PUSH2 0x30D SWAP3 SWAP2 SWAP1 PUSH2 0x818 JUMP JUMPDEST PUSH1 0x40 MLOAD PUSH1 0x20 DUP2 DUP4 SUB SUB DUP2 MSTORE SWAP1 PUSH1 0x40 MSTORE SWAP1 PUSH28 0xFFFFFFFFFFFFFFFFFFFFFFFFFFFFFFFFFFFFFFFFFFFFFFFFFFFFFFFF NOT AND PUSH1 0x20 DUP3 ADD DUP1 MLOAD PUSH28 0xFFFFFFFFFFFFFFFFFFFFFFFFFFFFFFFFFFFFFFFFFFFFFFFFFFFFFFFF DUP4 DUP2 DUP4 AND OR DUP4 MSTORE POP POP POP POP PUSH2 0x374 JUMP JUMPDEST POP POP POP JUMP JUMPDEST PUSH1 0x0 PUSH2 0x3D6 DUP3 PUSH1 0x40 MLOAD DUP1 PUSH1 0x40 ADD PUSH1 0x40 MSTORE DUP1 PUSH1 0x20 DUP2 MSTORE PUSH1 0x20 ADD PUSH32 0x5361666545524332303A206C6F772D6C6576656C2063616C6C206661696C6564 DUP2 MSTORE POP DUP6 PUSH20 0xFFFFFFFFFFFFFFFFFFFFFFFFFFFFFFFFFFFFFFFF AND PUSH2 0x43B SWAP1 SWAP3 SWAP2 SWAP1 PUSH4 0xFFFFFFFF AND JUMP JUMPDEST SWAP1 POP PUSH1 0x0 DUP2 MLOAD GT ISZERO PUSH2 0x436 JUMPI DUP1 DUP1 PUSH1 0x20 ADD SWAP1 MLOAD DUP2 ADD SWAP1 PUSH2 0x3F6 SWAP2 SWAP1 PUSH2 0x671 JUMP JUMPDEST PUSH2 0x435 JUMPI PUSH1 0x40 MLOAD PUSH32 0x8C379A000000000000000000000000000000000000000000000000000000000 DUP2 MSTORE PUSH1 0x4 ADD PUSH2 0x42C SWAP1 PUSH2 0x8DE JUMP JUMPDEST PUSH1 0x40 MLOAD DUP1 SWAP2 SUB SWAP1 REVERT JUMPDEST JUMPDEST POP POP POP JUMP JUMPDEST PUSH1 0x60 PUSH2 0x44A DUP5 DUP5 PUSH1 0x0 DUP6 PUSH2 0x453 JUMP JUMPDEST SWAP1 POP SWAP4 SWAP3 POP POP POP JUMP JUMPDEST PUSH1 0x60 DUP3 SELFBALANCE LT ISZERO PUSH2 0x498 JUMPI PUSH1 0x40 MLOAD PUSH32 0x8C379A000000000000000000000000000000000000000000000000000000000 DUP2 MSTORE PUSH1 0x4 ADD PUSH2 0x48F SWAP1 PUSH2 0x87E JUMP JUMPDEST PUSH1 0x40 MLOAD DUP1 SWAP2 SUB SWAP1 REVERT JUMPDEST PUSH2 0x4A1 DUP6 PUSH2 0x567 JUMP JUMPDEST PUSH2 0x4E0 JUMPI PUSH1 0x40 MLOAD PUSH32 0x8C379A000000000000000000000000000000000000000000000000000000000 DUP2 MSTORE PUSH1 0x4 ADD PUSH2 0x4D7 SWAP1 PUSH2 0x8BE JUMP JUMPDEST PUSH1 0x40 MLOAD DUP1 SWAP2 SUB SWAP1 REVERT JUMPDEST PUSH1 0x0 DUP1 DUP7 PUSH20 0xFFFFFFFFFFFFFFFFFFFFFFFFFFFFFFFFFFFFFFFF AND DUP6 DUP8 PUSH1 0x40 MLOAD PUSH2 0x509 SWAP2 SWAP1 PUSH2 0x7E6 JUMP JUMPDEST PUSH1 0x0 PUSH1 0x40 MLOAD DUP1 DUP4 SUB DUP2 DUP6 DUP8 GAS CALL SWAP3 POP POP POP RETURNDATASIZE DUP1 PUSH1 0x0 DUP2 EQ PUSH2 0x546 JUMPI PUSH1 0x40 MLOAD SWAP2 POP PUSH1 0x1F NOT PUSH1 0x3F RETURNDATASIZE ADD AND DUP3 ADD PUSH1 0x40 MSTORE RETURNDATASIZE DUP3 MSTORE RETURNDATASIZE PUSH1 0x0 PUSH1 0x20 DUP5 ADD RETURNDATACOPY PUSH2 0x54B JUMP JUMPDEST PUSH1 0x60 SWAP2 POP JUMPDEST POP SWAP2 POP SWAP2 POP PUSH2 0x55B DUP3 DUP3 DUP7 PUSH2 0x57A JUMP JUMPDEST SWAP3 POP POP POP SWAP5 SWAP4 POP POP POP POP JUMP JUMPDEST PUSH1 0x0 DUP1 DUP3 EXTCODESIZE SWAP1 POP PUSH1 0x0 DUP2 GT SWAP2 POP POP SWAP2 SWAP1 POP JUMP JUMPDEST PUSH1 0x60 DUP4 ISZERO PUSH2 0x58A JUMPI DUP3 SWAP1 POP PUSH2 0x5DA JUMP JUMPDEST PUSH1 0x0 DUP4 MLOAD GT ISZERO PUSH2 0x59D JUMPI DUP3 MLOAD DUP1 DUP5 PUSH1 0x20 ADD REVERT JUMPDEST DUP2 PUSH1 0x40 MLOAD PUSH32 0x8C379A000000000000000000000000000000000000000000000000000000000 DUP2 MSTORE PUSH1 0x4 ADD PUSH2 0x5D1 SWAP2 SWAP1 PUSH2 0x85C JUMP JUMPDEST PUSH1 0x40 MLOAD DUP1 SWAP2 SUB SWAP1 REVERT JUMPDEST SWAP4 SWAP3 POP POP POP JUMP JUMPDEST PUSH1 0x0 DUP2 CALLDATALOAD SWAP1 POP PUSH2 0x5F0 DUP2 PUSH2 0xB11 JUMP JUMPDEST SWAP3 SWAP2 POP POP JUMP JUMPDEST PUSH1 0x0 DUP2 MLOAD SWAP1 POP PUSH2 0x605 DUP2 PUSH2 0xB28 JUMP JUMPDEST SWAP3 SWAP2 POP POP JUMP JUMPDEST PUSH1 0x0 DUP2 CALLDATALOAD SWAP1 POP PUSH2 0x61A DUP2 PUSH2 0xB3F JUMP JUMPDEST SWAP3 SWAP2 POP POP JUMP JUMPDEST PUSH1 0x0 DUP2 MLOAD SWAP1 POP PUSH2 0x62F DUP2 PUSH2 0xB3F JUMP JUMPDEST SWAP3 SWAP2 POP POP JUMP JUMPDEST PUSH1 0x0 DUP1 PUSH1 0x40 DUP4 DUP6 SUB SLT ISZERO PUSH2 0x648 JUMPI PUSH1 0x0 DUP1 REVERT JUMPDEST PUSH1 0x0 PUSH2 0x656 DUP6 DUP3 DUP7 ADD PUSH2 0x5E1 JUMP JUMPDEST SWAP3 POP POP PUSH1 0x20 PUSH2 0x667 DUP6 DUP3 DUP7 ADD PUSH2 0x60B JUMP JUMPDEST SWAP2 POP POP SWAP3 POP SWAP3 SWAP1 POP JUMP JUMPDEST PUSH1 0x0 PUSH1 0x20 DUP3 DUP5 SUB SLT ISZERO PUSH2 0x683 JUMPI PUSH1 0x0 DUP1 REVERT JUMPDEST PUSH1 0x0 PUSH2 0x691 DUP5 DUP3 DUP6 ADD PUSH2 0x5F6 JUMP JUMPDEST SWAP2 POP POP SWAP3 SWAP2 POP POP JUMP JUMPDEST PUSH1 0x0 PUSH1 0x20 DUP3 DUP5 SUB SLT ISZERO PUSH2 0x6AC JUMPI PUSH1 0x0 DUP1 REVERT JUMPDEST PUSH1 0x0 PUSH2 0x6BA DUP5 DUP3 DUP6 ADD PUSH2 0x620 JUMP JUMPDEST SWAP2 POP POP SWAP3 SWAP2 POP POP JUMP JUMPDEST PUSH2 0x6CC DUP2 PUSH2 0x94B JUMP JUMPDEST DUP3 MSTORE POP POP JUMP JUMPDEST PUSH1 0x0 PUSH2 0x6DD DUP3 PUSH2 0x919 JUMP JUMPDEST PUSH2 0x6E7 DUP2 DUP6 PUSH2 0x92F JUMP JUMPDEST SWAP4 POP PUSH2 0x6F7 DUP2 DUP6 PUSH1 0x20 DUP7 ADD PUSH2 0x9B7 JUMP JUMPDEST DUP1 DUP5 ADD SWAP2 POP POP SWAP3 SWAP2 POP POP JUMP JUMPDEST PUSH2 0x70C DUP2 PUSH2 0x993 JUMP JUMPDEST DUP3 MSTORE POP POP JUMP JUMPDEST PUSH1 0x0 PUSH2 0x71D DUP3 PUSH2 0x924 JUMP JUMPDEST PUSH2 0x727 DUP2 DUP6 PUSH2 0x93A JUMP JUMPDEST SWAP4 POP PUSH2 0x737 DUP2 DUP6 PUSH1 0x20 DUP7 ADD PUSH2 0x9B7 JUMP JUMPDEST PUSH2 0x740 DUP2 PUSH2 0x9EA JUMP JUMPDEST DUP5 ADD SWAP2 POP POP SWAP3 SWAP2 POP POP JUMP JUMPDEST PUSH1 0x0 PUSH2 0x758 PUSH1 0x26 DUP4 PUSH2 0x93A JUMP JUMPDEST SWAP2 POP PUSH2 0x763 DUP3 PUSH2 0x9FB JUMP JUMPDEST PUSH1 0x40 DUP3 ADD SWAP1 POP SWAP2 SWAP1 POP JUMP JUMPDEST PUSH1 0x0 PUSH2 0x77B PUSH1 0x24 DUP4 PUSH2 0x93A JUMP JUMPDEST SWAP2 POP PUSH2 0x786 DUP3 PUSH2 0xA4A JUMP JUMPDEST PUSH1 0x40 DUP3 ADD SWAP1 POP SWAP2 SWAP1 POP JUMP JUMPDEST PUSH1 0x0 PUSH2 0x79E PUSH1 0x1D DUP4 PUSH2 0x93A JUMP JUMPDEST SWAP2 POP PUSH2 0x7A9 DUP3 PUSH2 0xA99 JUMP JUMPDEST PUSH1 0x20 DUP3 ADD SWAP1 POP SWAP2 SWAP1 POP JUMP JUMPDEST PUSH1 0x0 PUSH2 0x7C1 PUSH1 0x2A DUP4 PUSH2 0x93A JUMP JUMPDEST SWAP2 POP PUSH2 0x7CC DUP3 PUSH2 0xAC2 JUMP JUMPDEST PUSH1 0x40 DUP3 ADD SWAP1 POP SWAP2 SWAP1 POP JUMP JUMPDEST PUSH2 0x7E0 DUP2 PUSH2 0x989 JUMP JUMPDEST DUP3 MSTORE POP POP JUMP JUMPDEST PUSH1 0x0 PUSH2 0x7F2 DUP3 DUP5 PUSH2 0x6D2 JUMP JUMPDEST SWAP2 POP DUP2 SWAP1 POP SWAP3 SWAP2 POP POP JUMP JUMPDEST PUSH1 0x0 PUSH1 0x20 DUP3 ADD SWAP1 POP PUSH2 0x812 PUSH1 0x0 DUP4 ADD DUP5 PUSH2 0x6C3 JUMP JUMPDEST SWAP3 SWAP2 POP POP JUMP JUMPDEST PUSH1 0x0 PUSH1 0x40 DUP3 ADD SWAP1 POP PUSH2 0x82D PUSH1 0x0 DUP4 ADD DUP6 PUSH2 0x6C3 JUMP JUMPDEST PUSH2 0x83A PUSH1 0x20 DUP4 ADD DUP5 PUSH2 0x7D7 JUMP JUMPDEST SWAP4 SWAP3 POP POP POP JUMP JUMPDEST PUSH1 0x0 PUSH1 0x20 DUP3 ADD SWAP1 POP PUSH2 0x856 PUSH1 0x0 DUP4 ADD DUP5 PUSH2 0x703 JUMP JUMPDEST SWAP3 SWAP2 POP POP JUMP JUMPDEST PUSH1 0x0 PUSH1 0x20 DUP3 ADD SWAP1 POP DUP2 DUP2 SUB PUSH1 0x0 DUP4 ADD MSTORE PUSH2 0x876 DUP2 DUP5 PUSH2 0x712 JUMP JUMPDEST SWAP1 POP SWAP3 SWAP2 POP POP JUMP JUMPDEST PUSH1 0x0 PUSH1 0x20 DUP3 ADD SWAP1 POP DUP2 DUP2 SUB PUSH1 0x0 DUP4 ADD MSTORE PUSH2 0x897 DUP2 PUSH2 0x74B JUMP JUMPDEST SWAP1 POP SWAP2 SWAP1 POP JUMP JUMPDEST PUSH1 0x0 PUSH1 0x20 DUP3 ADD SWAP1 POP DUP2 DUP2 SUB PUSH1 0x0 DUP4 ADD MSTORE PUSH2 0x8B7 DUP2 PUSH2 0x76E JUMP JUMPDEST SWAP1 POP SWAP2 SWAP1 POP JUMP JUMPDEST PUSH1 0x0 PUSH1 0x20 DUP3 ADD SWAP1 POP DUP2 DUP2 SUB PUSH1 0x0 DUP4 ADD MSTORE PUSH2 0x8D7 DUP2 PUSH2 0x791 JUMP JUMPDEST SWAP1 POP SWAP2 SWAP1 POP JUMP JUMPDEST PUSH1 0x0 PUSH1 0x20 DUP3 ADD SWAP1 POP DUP2 DUP2 SUB PUSH1 0x0 DUP4 ADD MSTORE PUSH2 0x8F7 DUP2 PUSH2 0x7B4 JUMP JUMPDEST SWAP1 POP SWAP2 SWAP1 POP JUMP JUMPDEST PUSH1 0x0 PUSH1 0x20 DUP3 ADD SWAP1 POP PUSH2 0x913 PUSH1 0x0 DUP4 ADD DUP5 PUSH2 0x7D7 JUMP JUMPDEST SWAP3 SWAP2 POP POP JUMP JUMPDEST PUSH1 0x0 DUP2 MLOAD SWAP1 POP SWAP2 SWAP1 POP JUMP JUMPDEST PUSH1 0x0 DUP2 MLOAD SWAP1 POP SWAP2 SWAP1 POP JUMP JUMPDEST PUSH1 0x0 DUP2 SWAP1 POP SWAP3 SWAP2 POP POP JUMP JUMPDEST PUSH1 0x0 DUP3 DUP3 MSTORE PUSH1 0x20 DUP3 ADD SWAP1 POP SWAP3 SWAP2 POP POP JUMP JUMPDEST PUSH1 0x0 PUSH2 0x956 DUP3 PUSH2 0x969 JUMP JUMPDEST SWAP1 POP SWAP2 SWAP1 POP JUMP JUMPDEST PUSH1 0x0 DUP2 ISZERO ISZERO SWAP1 POP SWAP2 SWAP1 POP JUMP JUMPDEST PUSH1 0x0 PUSH20 0xFFFFFFFFFFFFFFFFFFFFFFFFFFFFFFFFFFFFFFFF DUP3 AND SWAP1 POP SWAP2 SWAP1 POP JUMP JUMPDEST PUSH1 0x0 DUP2 SWAP1 POP SWAP2 SWAP1 POP JUMP JUMPDEST PUSH1 0x0 PUSH2 0x99E DUP3 PUSH2 0x9A5 JUMP JUMPDEST SWAP1 POP SWAP2 SWAP1 POP JUMP JUMPDEST PUSH1 0x0 PUSH2 0x9B0 DUP3 PUSH2 0x969 JUMP JUMPDEST SWAP1 POP SWAP2 SWAP1 POP JUMP JUMPDEST PUSH1 0x0 JUMPDEST DUP4 DUP2 LT ISZERO PUSH2 0x9D5 JUMPI DUP1 DUP3 ADD MLOAD DUP2 DUP5 ADD MSTORE PUSH1 0x20 DUP2 ADD SWAP1 POP PUSH2 0x9BA JUMP JUMPDEST DUP4 DUP2 GT ISZERO PUSH2 0x9E4 JUMPI PUSH1 0x0 DUP5 DUP5 ADD MSTORE JUMPDEST POP POP POP POP JUMP JUMPDEST PUSH1 0x0 PUSH1 0x1F NOT PUSH1 0x1F DUP4 ADD AND SWAP1 POP SWAP2 SWAP1 POP JUMP JUMPDEST PUSH32 0x416464726573733A20696E73756666696369656E742062616C616E636520666F PUSH1 0x0 DUP3 ADD MSTORE PUSH32 0x722063616C6C0000000000000000000000000000000000000000000000000000 PUSH1 0x20 DUP3 ADD MSTORE POP JUMP JUMPDEST PUSH32 0x57616C6C65743A204F6E6C79204D6173746572507265642063616E207472616E PUSH1 0x0 DUP3 ADD MSTORE PUSH32 0x7366657200000000000000000000000000000000000000000000000000000000 PUSH1 0x20 DUP3 ADD MSTORE POP JUMP JUMPDEST PUSH32 0x416464726573733A2063616C6C20746F206E6F6E2D636F6E7472616374000000 PUSH1 0x0 DUP3 ADD MSTORE POP JUMP JUMPDEST PUSH32 0x5361666545524332303A204552433230206F7065726174696F6E20646964206E PUSH1 0x0 DUP3 ADD MSTORE PUSH32 0x6F74207375636365656400000000000000000000000000000000000000000000 PUSH1 0x20 DUP3 ADD MSTORE POP JUMP JUMPDEST PUSH2 0xB1A DUP2 PUSH2 0x94B JUMP JUMPDEST DUP2 EQ PUSH2 0xB25 JUMPI PUSH1 0x0 DUP1 REVERT JUMPDEST POP JUMP JUMPDEST PUSH2 0xB31 DUP2 PUSH2 0x95D JUMP JUMPDEST DUP2 EQ PUSH2 0xB3C JUMPI PUSH1 0x0 DUP1 REVERT JUMPDEST POP JUMP JUMPDEST PUSH2 0xB48 DUP2 PUSH2 0x989 JUMP JUMPDEST DUP2 EQ PUSH2 0xB53 JUMPI PUSH1 0x0 DUP1 REVERT JUMPDEST POP JUMP INVALID LOG2 PUSH5 0x6970667358 0x22 SLT KECCAK256 CODECOPY PUSH16 0x74D03D1C75F8FEB040E1F1AFC01C0BAD KECCAK256 CALLDATASIZE EXTCODECOPY 0x28 DUP1 0x2E 0xC4 CALLDATACOPY EXTCODESIZE 0xDE 0xC MULMOD 0xE8 0xCF PUSH5 0x736F6C6343 STOP ADDMOD MUL STOP CALLER COINBASE PUSH5 0x6472657373 GASPRICE KECCAK256 PUSH13 0x6F772D6C6576656C2064656C65 PUSH8 0x6174652063616C6C KECCAK256 PUSH7 0x61696C6564A264 PUSH10 0x70667358221220AB5583 0xE 0xA7 0x4F 0x5D 0xD 0xCD 0xD6 0x4D TIMESTAMP 0xFC 0xCF 0xF8 GASLIMIT ADDMOD DUP11 0xAA 0xD7 0xC 0xBC KECCAK256 DUP10 0xFB PUSH25 0x1C6D61EE85AB64736F6C634300080200330000000000000000 "
		},
		"gasEstimates": {
			"creation": {
				"codeDepositCost": "4234800",
				"executionCost": "29890",
				"totalCost": "4264690"
			},
			"external": {
				"BONUS_MULTIPLIER()": "1196",
				"add(uint256,address,bool)": "infinite",
				"deposit(uint256,uint256)": "infinite",
				"emergencyWithdraw(uint256)": "infinite",
				"getMultiplier(uint256,uint256)": "infinite",
				"initialize(address,uint256,uint256)": "infinite",
				"massUpdatePools()": "infinite",
				"migrate(uint256)": "infinite",
				"migrator()": "1368",
				"owner()": "1311",
				"pendingPred(uint256,address)": "infinite",
				"poolInfo(uint256)": "infinite",
				"poolLength()": "1192",
				"pred()": "1345",
				"predPerBlock()": "1197",
				"renounceOwnership()": "24441",
				"set(uint256,uint256,bool)": "infinite",
				"setMigrator(address)": "22395",
				"startBlock()": "1219",
				"totalAllocPoint()": "1220",
				"totalRewardDebt()": "1174",
				"transferOwnership(address)": "24833",
				"updateMultiplier(uint256)": "21406",
				"updatePool(uint256)": "infinite",
				"upgradeTo(address)": "infinite",
				"upgradeToAndCall(address,bytes)": "infinite",
				"userInfo(uint256,address)": "infinite",
				"wallet()": "1346",
				"withdraw(uint256,uint256)": "infinite"
			},
			"internal": {
				"_authorizeUpgrade(address)": "infinite",
				"safePredTransfer(address,uint256)": "infinite"
			}
		},
		"methodIdentifiers": {
			"BONUS_MULTIPLIER()": "8aa28550",
			"add(uint256,address,bool)": "1eaaa045",
			"deposit(uint256,uint256)": "e2bbb158",
			"emergencyWithdraw(uint256)": "5312ea8e",
			"getMultiplier(uint256,uint256)": "8dbb1e3a",
			"initialize(address,uint256,uint256)": "7a1ac61e",
			"massUpdatePools()": "630b5ba1",
			"migrate(uint256)": "454b0608",
			"migrator()": "7cd07e47",
			"owner()": "8da5cb5b",
			"pendingPred(uint256,address)": "6450b8a9",
			"poolInfo(uint256)": "1526fe27",
			"poolLength()": "081e3eda",
			"pred()": "e5c9ad2e",
			"predPerBlock()": "1fc7be89",
			"renounceOwnership()": "715018a6",
			"set(uint256,uint256,bool)": "64482f79",
			"setMigrator(address)": "23cf3118",
			"startBlock()": "48cd4cb1",
			"totalAllocPoint()": "17caf6f1",
			"totalRewardDebt()": "83bb3877",
			"transferOwnership(address)": "f2fde38b",
			"updateMultiplier(uint256)": "5ffe6146",
			"updatePool(uint256)": "51eb05a6",
			"upgradeTo(address)": "3659cfe6",
			"upgradeToAndCall(address,bytes)": "4f1ef286",
			"userInfo(uint256,address)": "93f1a40b",
			"wallet()": "521eb273",
			"withdraw(uint256,uint256)": "441a3e70"
		}
	},
	"abi": [
		{
			"anonymous": false,
			"inputs": [
				{
					"indexed": false,
					"internalType": "address",
					"name": "previousAdmin",
					"type": "address"
				},
				{
					"indexed": false,
					"internalType": "address",
					"name": "newAdmin",
					"type": "address"
				}
			],
			"name": "AdminChanged",
			"type": "event"
		},
		{
			"anonymous": false,
			"inputs": [
				{
					"indexed": true,
					"internalType": "address",
					"name": "beacon",
					"type": "address"
				}
			],
			"name": "BeaconUpgraded",
			"type": "event"
		},
		{
			"anonymous": false,
			"inputs": [
				{
					"indexed": true,
					"internalType": "address",
					"name": "user",
					"type": "address"
				},
				{
					"indexed": true,
					"internalType": "uint256",
					"name": "pid",
					"type": "uint256"
				},
				{
					"indexed": false,
					"internalType": "uint256",
					"name": "amount",
					"type": "uint256"
				}
			],
			"name": "Deposit",
			"type": "event"
		},
		{
			"anonymous": false,
			"inputs": [
				{
					"indexed": true,
					"internalType": "address",
					"name": "user",
					"type": "address"
				},
				{
					"indexed": true,
					"internalType": "uint256",
					"name": "pid",
					"type": "uint256"
				},
				{
					"indexed": false,
					"internalType": "uint256",
					"name": "amount",
					"type": "uint256"
				}
			],
			"name": "EmergencyWithdraw",
			"type": "event"
		},
		{
			"anonymous": false,
			"inputs": [
				{
					"indexed": true,
					"internalType": "address",
					"name": "previousOwner",
					"type": "address"
				},
				{
					"indexed": true,
					"internalType": "address",
					"name": "newOwner",
					"type": "address"
				}
			],
			"name": "OwnershipTransferred",
			"type": "event"
		},
		{
			"anonymous": false,
			"inputs": [
				{
					"indexed": true,
					"internalType": "address",
					"name": "implementation",
					"type": "address"
				}
			],
			"name": "Upgraded",
			"type": "event"
		},
		{
			"anonymous": false,
			"inputs": [
				{
					"indexed": true,
					"internalType": "address",
					"name": "user",
					"type": "address"
				},
				{
					"indexed": true,
					"internalType": "uint256",
					"name": "pid",
					"type": "uint256"
				},
				{
					"indexed": false,
					"internalType": "uint256",
					"name": "amount",
					"type": "uint256"
				}
			],
			"name": "Withdraw",
			"type": "event"
		},
		{
			"inputs": [],
			"name": "BONUS_MULTIPLIER",
			"outputs": [
				{
					"internalType": "uint256",
					"name": "",
					"type": "uint256"
				}
			],
			"stateMutability": "view",
			"type": "function"
		},
		{
			"inputs": [
				{
					"internalType": "uint256",
					"name": "_allocPoint",
					"type": "uint256"
				},
				{
					"internalType": "contract IBEP20",
					"name": "_lpToken",
					"type": "address"
				},
				{
					"internalType": "bool",
					"name": "_withUpdate",
					"type": "bool"
				}
			],
			"name": "add",
			"outputs": [],
			"stateMutability": "nonpayable",
			"type": "function"
		},
		{
			"inputs": [
				{
					"internalType": "uint256",
					"name": "_pid",
					"type": "uint256"
				},
				{
					"internalType": "uint256",
					"name": "_amount",
					"type": "uint256"
				}
			],
			"name": "deposit",
			"outputs": [],
			"stateMutability": "nonpayable",
			"type": "function"
		},
		{
			"inputs": [
				{
					"internalType": "uint256",
					"name": "_pid",
					"type": "uint256"
				}
			],
			"name": "emergencyWithdraw",
			"outputs": [],
			"stateMutability": "nonpayable",
			"type": "function"
		},
		{
			"inputs": [
				{
					"internalType": "uint256",
					"name": "_from",
					"type": "uint256"
				},
				{
					"internalType": "uint256",
					"name": "_to",
					"type": "uint256"
				}
			],
			"name": "getMultiplier",
			"outputs": [
				{
					"internalType": "uint256",
					"name": "",
					"type": "uint256"
				}
			],
			"stateMutability": "view",
			"type": "function"
		},
		{
			"inputs": [
				{
					"internalType": "contract IBEP20",
					"name": "_pred",
					"type": "address"
				},
				{
					"internalType": "uint256",
					"name": "_predPerBlock",
					"type": "uint256"
				},
				{
					"internalType": "uint256",
					"name": "_startBlock",
					"type": "uint256"
				}
			],
			"name": "initialize",
			"outputs": [],
			"stateMutability": "nonpayable",
			"type": "function"
		},
		{
			"inputs": [],
			"name": "massUpdatePools",
			"outputs": [],
			"stateMutability": "nonpayable",
			"type": "function"
		},
		{
			"inputs": [
				{
					"internalType": "uint256",
					"name": "_pid",
					"type": "uint256"
				}
			],
			"name": "migrate",
			"outputs": [],
			"stateMutability": "nonpayable",
			"type": "function"
		},
		{
			"inputs": [],
			"name": "migrator",
			"outputs": [
				{
					"internalType": "contract IMigratorChef",
					"name": "",
					"type": "address"
				}
			],
			"stateMutability": "view",
			"type": "function"
		},
		{
			"inputs": [],
			"name": "owner",
			"outputs": [
				{
					"internalType": "address",
					"name": "",
					"type": "address"
				}
			],
			"stateMutability": "view",
			"type": "function"
		},
		{
			"inputs": [
				{
					"internalType": "uint256",
					"name": "_pid",
					"type": "uint256"
				},
				{
					"internalType": "address",
					"name": "_user",
					"type": "address"
				}
			],
			"name": "pendingPred",
			"outputs": [
				{
					"internalType": "uint256",
					"name": "",
					"type": "uint256"
				}
			],
			"stateMutability": "view",
			"type": "function"
		},
		{
			"inputs": [
				{
					"internalType": "uint256",
					"name": "",
					"type": "uint256"
				}
			],
			"name": "poolInfo",
			"outputs": [
				{
					"internalType": "contract IBEP20",
					"name": "lpToken",
					"type": "address"
				},
				{
					"internalType": "uint256",
					"name": "allocPoint",
					"type": "uint256"
				},
				{
					"internalType": "uint256",
					"name": "lastRewardBlock",
					"type": "uint256"
				},
				{
					"internalType": "uint256",
					"name": "accPredPerShare",
					"type": "uint256"
				}
			],
			"stateMutability": "view",
			"type": "function"
		},
		{
			"inputs": [],
			"name": "poolLength",
			"outputs": [
				{
					"internalType": "uint256",
					"name": "",
					"type": "uint256"
				}
			],
			"stateMutability": "view",
			"type": "function"
		},
		{
			"inputs": [],
			"name": "pred",
			"outputs": [
				{
					"internalType": "contract IBEP20",
					"name": "",
					"type": "address"
				}
			],
			"stateMutability": "view",
			"type": "function"
		},
		{
			"inputs": [],
			"name": "predPerBlock",
			"outputs": [
				{
					"internalType": "uint256",
					"name": "",
					"type": "uint256"
				}
			],
			"stateMutability": "view",
			"type": "function"
		},
		{
			"inputs": [],
			"name": "renounceOwnership",
			"outputs": [],
			"stateMutability": "nonpayable",
			"type": "function"
		},
		{
			"inputs": [
				{
					"internalType": "uint256",
					"name": "_pid",
					"type": "uint256"
				},
				{
					"internalType": "uint256",
					"name": "_allocPoint",
					"type": "uint256"
				},
				{
					"internalType": "bool",
					"name": "_withUpdate",
					"type": "bool"
				}
			],
			"name": "set",
			"outputs": [],
			"stateMutability": "nonpayable",
			"type": "function"
		},
		{
			"inputs": [
				{
					"internalType": "contract IMigratorChef",
					"name": "_migrator",
					"type": "address"
				}
			],
			"name": "setMigrator",
			"outputs": [],
			"stateMutability": "nonpayable",
			"type": "function"
		},
		{
			"inputs": [],
			"name": "startBlock",
			"outputs": [
				{
					"internalType": "uint256",
					"name": "",
					"type": "uint256"
				}
			],
			"stateMutability": "view",
			"type": "function"
		},
		{
			"inputs": [],
			"name": "totalAllocPoint",
			"outputs": [
				{
					"internalType": "uint256",
					"name": "",
					"type": "uint256"
				}
			],
			"stateMutability": "view",
			"type": "function"
		},
		{
			"inputs": [],
			"name": "totalRewardDebt",
			"outputs": [
				{
					"internalType": "uint256",
					"name": "",
					"type": "uint256"
				}
			],
			"stateMutability": "view",
			"type": "function"
		},
		{
			"inputs": [
				{
					"internalType": "address",
					"name": "newOwner",
					"type": "address"
				}
			],
			"name": "transferOwnership",
			"outputs": [],
			"stateMutability": "nonpayable",
			"type": "function"
		},
		{
			"inputs": [
				{
					"internalType": "uint256",
					"name": "multiplierNumber",
					"type": "uint256"
				}
			],
			"name": "updateMultiplier",
			"outputs": [],
			"stateMutability": "nonpayable",
			"type": "function"
		},
		{
			"inputs": [
				{
					"internalType": "uint256",
					"name": "_pid",
					"type": "uint256"
				}
			],
			"name": "updatePool",
			"outputs": [],
			"stateMutability": "nonpayable",
			"type": "function"
		},
		{
			"inputs": [
				{
					"internalType": "address",
					"name": "newImplementation",
					"type": "address"
				}
			],
			"name": "upgradeTo",
			"outputs": [],
			"stateMutability": "nonpayable",
			"type": "function"
		},
		{
			"inputs": [
				{
					"internalType": "address",
					"name": "newImplementation",
					"type": "address"
				},
				{
					"internalType": "bytes",
					"name": "data",
					"type": "bytes"
				}
			],
			"name": "upgradeToAndCall",
			"outputs": [],
			"stateMutability": "payable",
			"type": "function"
		},
		{
			"inputs": [
				{
					"internalType": "uint256",
					"name": "",
					"type": "uint256"
				},
				{
					"internalType": "address",
					"name": "",
					"type": "address"
				}
			],
			"name": "userInfo",
			"outputs": [
				{
					"internalType": "uint256",
					"name": "amount",
					"type": "uint256"
				},
				{
					"internalType": "uint256",
					"name": "rewardDebt",
					"type": "uint256"
				}
			],
			"stateMutability": "view",
			"type": "function"
		},
		{
			"inputs": [],
			"name": "wallet",
			"outputs": [
				{
					"internalType": "contract MasterPredWallet",
					"name": "",
					"type": "address"
				}
			],
			"stateMutability": "view",
			"type": "function"
		},
		{
			"inputs": [
				{
					"internalType": "uint256",
					"name": "_pid",
					"type": "uint256"
				},
				{
					"internalType": "uint256",
					"name": "_amount",
					"type": "uint256"
				}
			],
			"name": "withdraw",
			"outputs": [],
			"stateMutability": "nonpayable",
			"type": "function"
		}
	]
}