{
	"data": {
		"bytecode": {
			"linkReferences": {},
			"object": "6080604052348015600f57600080fd5b50609b8061001e6000396000f3fe6080604052348015600f57600080fd5b506004361060325760003560e01c806357e871e7146037578063856e481b146053575b600080fd5b603d605b565b6040518082815260200191505060405180910390f35b60596063565b005b600043905090565b56fea26469706673582212206426095bb02f3aaf87ded17f01cce064634b29d3f813285055a43fcef73e795964736f6c634300060c0033",
			"opcodes": "PUSH1 0x80 PUSH1 0x40 MSTORE CALLVALUE DUP1 ISZERO PUSH1 0xF JUMPI PUSH1 0x0 DUP1 REVERT JUMPDEST POP PUSH1 0x9B DUP1 PUSH2 0x1E PUSH1 0x0 CODECOPY PUSH1 0x0 RETURN INVALID PUSH1 0x80 PUSH1 0x40 MSTORE CALLVALUE DUP1 ISZERO PUSH1 0xF JUMPI PUSH1 0x0 DUP1 REVERT JUMPDEST POP PUSH1 0x4 CALLDATASIZE LT PUSH1 0x32 JUMPI PUSH1 0x0 CALLDATALOAD PUSH1 0xE0 SHR DUP1 PUSH4 0x57E871E7 EQ PUSH1 0x37 JUMPI DUP1 PUSH4 0x856E481B EQ PUSH1 0x53 JUMPI JUMPDEST PUSH1 0x0 DUP1 REVERT JUMPDEST PUSH1 0x3D PUSH1 0x5B JUMP JUMPDEST PUSH1 0x40 MLOAD DUP1 DUP3 DUP2 MSTORE PUSH1 0x20 ADD SWAP2 POP POP PUSH1 0x40 MLOAD DUP1 SWAP2 SUB SWAP1 RETURN JUMPDEST PUSH1 0x59 PUSH1 0x63 JUMP JUMPDEST STOP JUMPDEST PUSH1 0x0 NUMBER SWAP1 POP SWAP1 JUMP JUMPDEST JUMP INVALID LOG2 PUSH5 0x6970667358 0x22 SLT KECCAK256 PUSH5 0x26095BB02F GASPRICE 0xAF DUP8 0xDE 0xD1 PUSH32 0x1CCE064634B29D3F813285055A43FCEF73E795964736F6C634300060C003300 "
		},
		"gasEstimates": {
			"creation": {
				"codeDepositCost": "31000",
				"executionCost": "81",
				"totalCost": "31081"
			},
			"external": {
				"blockNumber()": "190",
				"mineblock()": "144"
			}
		},
		"methodIdentifiers": {
			"blockNumber()": "57e871e7",
			"mineblock()": "856e481b"
		}
	},
	"abi": [
		{
			"inputs": [],
			"name": "blockNumber",
			"outputs": [
				{
					"internalType": "uint256",
					"name": "",
					"type": "uint256"
				}
			],
			"stateMutability": "view",
			"type": "function"
		},
		{
			"inputs": [],
			"name": "mineblock",
			"outputs": [],
			"stateMutability": "nonpayable",
			"type": "function"
		}
	]
}